{
	"data": {
		"bytecode": {
			"linkReferences": {},
			"object": "608060405234801561000f575f80fd5b506040516146b43803806146b483398101604081905261002e91610155565b6040518060400160405280600b81526020016a2237b3b3b7b9aa37b5b2b760a91b815250604051806040016040528060048152602001631113d1d560e21b815250815f908161007d919061021a565b50600161008a828261021a565b5050600b805460ff19169055506100a15f826100a8565b50506102d4565b5f828152600c602090815260408083206001600160a01b038516845290915281205460ff1661014c575f838152600c602090815260408083206001600160a01b03861684529091529020805460ff191660011790556101043390565b6001600160a01b0316826001600160a01b0316847f2f8788117e7eff1d82e926ec794901d17c78024a50270940304540a733656f0d60405160405180910390a450600161014f565b505f5b92915050565b5f60208284031215610165575f80fd5b81516001600160a01b038116811461017b575f80fd5b9392505050565b634e487b7160e01b5f52604160045260245ffd5b600181811c908216806101aa57607f821691505b6020821081036101c857634e487b7160e01b5f52602260045260245ffd5b50919050565b601f82111561021557805f5260205f20601f840160051c810160208510156101f35750805b601f840160051c820191505b81811015610212575f81556001016101ff565b50505b505050565b81516001600160401b0381111561023357610233610182565b610247816102418454610196565b846101ce565b6020601f821160018114610279575f83156102625750848201515b5f19600385901b1c1916600184901b178455610212565b5f84815260208120601f198516915b828110156102a85787850151825560209485019460019092019101610288565b50848210156102c557868401515f19600387901b60f8161c191681555b50505050600190811b01905550565b6143d3806102e15f395ff3fe608060405234801561000f575f80fd5b5060043610610281575f3560e01c80636c11c21c11610156578063b88d4fde116100ca578063e985e9c511610084578063e985e9c5146105db578063f4c7d765146105ee578063f865af0814610601578063fabce2d414610614578063fcbe62f114610634578063fe736b7114610647575f80fd5b8063b88d4fde14610567578063c87b56dd1461057a578063d53913931461058d578063d547741f146105a1578063e63ab1e9146105b4578063e89cc0f4146105c8575f80fd5b80638e5e7d671161011b5780638e5e7d67146104ff57806391d148541461051257806395d89b4114610525578063a217fddf1461052d578063a22cb46514610534578063b7c971ff14610547575f80fd5b80636c11c21c146104ab57806370a08231146104be5780637f352df6146104d1578063825d91d4146104e45780638456cb59146104f7575f80fd5b806336dc7676116101f85780634a9699ef116101b25780634a9699ef1461041e5780634f6ccce7146104475780635c975abb1461045a5780636352211e1461046557806369c3f3161461047857806369e2f0fb14610498575f80fd5b806336dc7676146103955780633dd1eb61146103b55780633f4ba83a146103c857806342842e0e146103d057806342966c68146103e3578063447865eb146103f6575f80fd5b806318160ddd1161024957806318160ddd1461031557806323b872dd14610327578063248a9ca31461033a5780632f2ff15d1461035c5780632f745c591461036f57806336568abe14610382575f80fd5b806301ffc9a71461028557806306fdde03146102ad578063081812fc146102c257806308920ab8146102ed578063095ea7b314610302575b5f80fd5b61029861029336600461357c565b61066f565b60405190151581526020015b60405180910390f35b6102b561067f565b6040516102a491906135c5565b6102d56102d03660046135d7565b61070e565b6040516001600160a01b0390911681526020016102a4565b6103006102fb3660046135d7565b610735565b005b610300610310366004613609565b610853565b6008545b6040519081526020016102a4565b610300610335366004613631565b61085e565b6103196103483660046135d7565b5f908152600c602052604090206001015490565b61030061036a36600461366b565b6108e7565b61031961037d366004613609565b61090b565b61030061039036600461366b565b61096e565b6103a86103a3366004613695565b6109a6565b6040516102a49190613807565b6103006103c3366004613695565b610f6f565b610300610f90565b6103006103de366004613631565b610fb2565b6103006103f13660046135d7565b610fcc565b6102d56104043660046135d7565b60116020525f90815260409020546001600160a01b031681565b61043161042c3660046135d7565b610fd7565b6040516102a49a9998979695949392919061386a565b6103196104553660046135d7565b611353565b600b5460ff16610298565b6102d56104733660046135d7565b6113a8565b61048b6104863660046135d7565b6113b2565b6040516102a49190613919565b6103006104a6366004613695565b611850565b6103006104b9366004613695565b611871565b6103196104cc366004613695565b611892565b6102b56104df36600461392b565b6118d7565b6103006104f2366004613a84565b611988565b610300611c4d565b61030061050d3660046135d7565b611c6c565b61029861052036600461366b565b611d32565b6102b5611d5c565b6103195f81565b610300610542366004613c03565b611d6b565b61055a6105553660046135d7565b611d76565b6040516102a49190613c3c565b610300610575366004613c93565b611eba565b6102b56105883660046135d7565b611ed2565b6103195f8051602061437e83398151915281565b6103006105af36600461366b565b611edd565b6103195f8051602061435e83398151915281565b6103006105d63660046135d7565b611f01565b6102986105e9366004613d09565b611f87565b6103006105fc36600461366b565b611fb4565b61030061060f366004613695565b612094565b6106276106223660046135d7565b6120b5565b6040516102a49190613d31565b610300610642366004613d73565b61217c565b6102d56106553660046135d7565b60106020525f90815260409020546001600160a01b031681565b5f610679826122ff565b92915050565b60605f805461068d90613ec1565b80601f01602080910402602001604051908101604052809291908181526020018280546106b990613ec1565b80156107045780601f106106db57610100808354040283529160200191610704565b820191905f5260205f20905b8154815290600101906020018083116106e757829003601f168201915b5050505050905090565b5f61071882612323565b505f828152600460205260409020546001600160a01b0316610679565b5f61073f8161235a565b5f828152600f60205260409020600b01546001600160a01b031633146107b65760405162461bcd60e51b815260206004820152602160248201527f596f7520617265206e6f7420746865206f776e6572206f66207468697320646f6044820152606760f81b60648201526084015b60405180910390fd5b6040518060400160405280600a815260200169494e5f5355524745525960b01b815250600f5f8481526020019081526020015f2060090190816107f99190613f3d565b5061084f82604051806040016040528060078152602001665355524745525960c81b815250604051806040016040528060128152602001715065742070757420696e207375726765727960701b81525042612364565b5050565b61084f828233612401565b6001600160a01b03821661088757604051633250574960e11b81525f60048201526024016107ad565b5f61089383833361240e565b9050836001600160a01b0316816001600160a01b0316146108e1576040516364283d7b60e01b81526001600160a01b03808616600483015260248201849052821660448201526064016107ad565b50505050565b5f828152600c60205260409020600101546109018161235a565b6108e18383612422565b5f61091583611892565b82106109465760405163295f44f760e21b81526001600160a01b0384166004820152602481018390526044016107ad565b506001600160a01b03919091165f908152600660209081526040808320938352929052205490565b6001600160a01b03811633146109975760405163334bd91960e11b815260040160405180910390fd5b6109a182826124b3565b505050565b604080515f8082526020820190925260609190816109da565b6109c761342d565b8152602001906001900390816109bf5790505b5090505f806109e860085490565b90505f5b81811015610f65575f6109fe82611353565b9050866001600160a01b0316610a138261251e565b6001600160a01b031603610f5c5783610a2b8161400b565b9450505f846001600160401b03811115610a4757610a4761394b565b604051908082528060200260200182016040528015610a8057816020015b610a6d61342d565b815260200190600190039081610a655790505b5090505f5b610a90600187614023565b811015610ad657868181518110610aa957610aa9614036565b6020026020010151828281518110610ac357610ac3614036565b6020908102919091010152600101610a85565b505f828152600f60205260409081902081516101808101909252805482908290610aff90613ec1565b80601f0160208091040260200160405190810160405280929190818152602001828054610b2b90613ec1565b8015610b765780601f10610b4d57610100808354040283529160200191610b76565b820191905f5260205f20905b815481529060010190602001808311610b5957829003601f168201915b50505050508152602001600182018054610b8f90613ec1565b80601f0160208091040260200160405190810160405280929190818152602001828054610bbb90613ec1565b8015610c065780601f10610bdd57610100808354040283529160200191610c06565b820191905f5260205f20905b815481529060010190602001808311610be957829003601f168201915b50505050508152602001600282018054610c1f90613ec1565b80601f0160208091040260200160405190810160405280929190818152602001828054610c4b90613ec1565b8015610c965780601f10610c6d57610100808354040283529160200191610c96565b820191905f5260205f20905b815481529060010190602001808311610c7957829003601f168201915b5050505050815260200160038201548152602001600482018054610cb990613ec1565b80601f0160208091040260200160405190810160405280929190818152602001828054610ce590613ec1565b8015610d305780601f10610d0757610100808354040283529160200191610d30565b820191905f5260205f20905b815481529060010190602001808311610d1357829003601f168201915b50505050508152602001600582018054610d4990613ec1565b80601f0160208091040260200160405190810160405280929190818152602001828054610d7590613ec1565b8015610dc05780601f10610d9757610100808354040283529160200191610dc0565b820191905f5260205f20905b815481529060010190602001808311610da357829003601f168201915b5050505050815260200160068201805480602002602001604051908101604052809291908181526020018280548015610e1657602002820191905f5260205f20905b815481526020019060010190808311610e02575b505050505081526020016007820154815260200160088201805480602002602001604051908101604052809291908181526020018280548015610e7657602002820191905f5260205f20905b815481526020019060010190808311610e62575b50505050508152602001600982018054610e8f90613ec1565b80601f0160208091040260200160405190810160405280929190818152602001828054610ebb90613ec1565b8015610f065780601f10610edd57610100808354040283529160200191610f06565b820191905f5260205f20905b815481529060010190602001808311610ee957829003601f168201915b5050509183525050600a8201546001600160a01b039081166020830152600b9092015490911660409091015281610f3e600188614023565b81518110610f4e57610f4e614036565b602090810291909101015294505b506001016109ec565b5091949350505050565b5f610f798161235a565b6109a15f8051602061437e83398151915283612422565b5f8051602061435e833981519152610fa78161235a565b610faf612538565b50565b6109a183838360405180602001604052805f815250611eba565b61084f5f823361240e565b600f6020525f9081526040902080548190610ff190613ec1565b80601f016020809104026020016040519081016040528092919081815260200182805461101d90613ec1565b80156110685780601f1061103f57610100808354040283529160200191611068565b820191905f5260205f20905b81548152906001019060200180831161104b57829003601f168201915b50505050509080600101805461107d90613ec1565b80601f01602080910402602001604051908101604052809291908181526020018280546110a990613ec1565b80156110f45780601f106110cb576101008083540402835291602001916110f4565b820191905f5260205f20905b8154815290600101906020018083116110d757829003601f168201915b50505050509080600201805461110990613ec1565b80601f016020809104026020016040519081016040528092919081815260200182805461113590613ec1565b80156111805780601f1061115757610100808354040283529160200191611180565b820191905f5260205f20905b81548152906001019060200180831161116357829003601f168201915b50505050509080600301549080600401805461119b90613ec1565b80601f01602080910402602001604051908101604052809291908181526020018280546111c790613ec1565b80156112125780601f106111e957610100808354040283529160200191611212565b820191905f5260205f20905b8154815290600101906020018083116111f557829003601f168201915b50505050509080600501805461122790613ec1565b80601f016020809104026020016040519081016040528092919081815260200182805461125390613ec1565b801561129e5780601f106112755761010080835404028352916020019161129e565b820191905f5260205f20905b81548152906001019060200180831161128157829003601f168201915b5050505050908060070154908060090180546112b990613ec1565b80601f01602080910402602001604051908101604052809291908181526020018280546112e590613ec1565b80156113305780601f1061130757610100808354040283529160200191611330565b820191905f5260205f20905b81548152906001019060200180831161131357829003601f168201915b50505050600a830154600b9093015491926001600160a01b03908116921690508a565b5f61135d60085490565b82106113855760405163295f44f760e21b81525f6004820152602481018390526044016107ad565b6008828154811061139857611398614036565b905f5260205f2001549050919050565b5f61067982612323565b6113ba61342d565b5f828152601060205260409020546001600160a01b031633146113ef5760405162461bcd60e51b81526004016107ad9061404a565b5f828152600f6020526040908190208151610180810190925280548290829061141790613ec1565b80601f016020809104026020016040519081016040528092919081815260200182805461144390613ec1565b801561148e5780601f106114655761010080835404028352916020019161148e565b820191905f5260205f20905b81548152906001019060200180831161147157829003601f168201915b505050505081526020016001820180546114a790613ec1565b80601f01602080910402602001604051908101604052809291908181526020018280546114d390613ec1565b801561151e5780601f106114f55761010080835404028352916020019161151e565b820191905f5260205f20905b81548152906001019060200180831161150157829003601f168201915b5050505050815260200160028201805461153790613ec1565b80601f016020809104026020016040519081016040528092919081815260200182805461156390613ec1565b80156115ae5780601f10611585576101008083540402835291602001916115ae565b820191905f5260205f20905b81548152906001019060200180831161159157829003601f168201915b50505050508152602001600382015481526020016004820180546115d190613ec1565b80601f01602080910402602001604051908101604052809291908181526020018280546115fd90613ec1565b80156116485780601f1061161f57610100808354040283529160200191611648565b820191905f5260205f20905b81548152906001019060200180831161162b57829003601f168201915b5050505050815260200160058201805461166190613ec1565b80601f016020809104026020016040519081016040528092919081815260200182805461168d90613ec1565b80156116d85780601f106116af576101008083540402835291602001916116d8565b820191905f5260205f20905b8154815290600101906020018083116116bb57829003601f168201915b505050505081526020016006820180548060200260200160405190810160405280929190818152602001828054801561172e57602002820191905f5260205f20905b81548152602001906001019080831161171a575b50505050508152602001600782015481526020016008820180548060200260200160405190810160405280929190818152602001828054801561178e57602002820191905f5260205f20905b81548152602001906001019080831161177a575b505050505081526020016009820180546117a790613ec1565b80601f01602080910402602001604051908101604052809291908181526020018280546117d390613ec1565b801561181e5780601f106117f55761010080835404028352916020019161181e565b820191905f5260205f20905b81548152906001019060200180831161180157829003601f168201915b5050509183525050600a8201546001600160a01b039081166020830152600b9092015490911660409091015292915050565b5f61185a8161235a565b6109a15f8051602061437e833981519152836124b3565b5f61187b8161235a565b6109a15f8051602061435e83398151915283612422565b5f6001600160a01b0382166118bc576040516322718ad960e21b81525f60048201526024016107ad565b506001600160a01b03165f9081526003602052604090205490565b600e602052815f5260405f2081815481106118f0575f80fd5b905f5260205f20015f9150915050805461190990613ec1565b80601f016020809104026020016040519081016040528092919081815260200182805461193590613ec1565b80156119805780601f1061195757610100808354040283529160200191611980565b820191905f5260205f20905b81548152906001019060200180831161196357829003601f168201915b505050505081565b5f8051602061437e83398151915261199f8161235a565b600d80545f91826119af8361400b565b9190505590506119bf8d8261258a565b6119c9818d6125a3565b6040518061018001604052808c81526020018b81526020018a8152602001898152602001878152602001868152602001858152602001888152602001848152602001604051806040016040528060068152602001654c4956494e4760d01b81525081526020018e6001600160a01b031681526020015f6001600160a01b0316815250600f5f8381526020019081526020015f205f820151815f019081611a6f9190613f3d565b5060208201516001820190611a849082613f3d565b5060408201516002820190611a999082613f3d565b506060820151600382015560808201516004820190611ab89082613f3d565b5060a08201516005820190611acd9082613f3d565b5060c08201518051611ae991600684019160209091019061349c565b5060e082015160078201556101008201518051611b1091600884019160209091019061349c565b506101208201516009820190611b269082613f3d565b5061014082015181600a015f6101000a8154816001600160a01b0302191690836001600160a01b0316021790555061016082015181600b015f6101000a8154816001600160a01b0302191690836001600160a01b031602179055509050508c60105f8381526020019081526020015f205f6101000a8154816001600160a01b0302191690836001600160a01b03160217905550611c0381604051806040016040528060048152602001631352539560e21b8152506040518060400160405280600a81526020016914195d081b5a5b9d195960b21b81525042612364565b7fbab4e411c1dc0debd826ac8280b272de04d65152ad2d55b4c8397febbd0d1488818c8f604051611c369392919061408b565b60405180910390a150505050505050505050505050565b5f8051602061435e833981519152611c648161235a565b610faf6125f2565b5f611c768161235a565b5f611c808361251e565b6001600160a01b031603611ca65760405162461bcd60e51b81526004016107ad906140bb565b5f82815260106020908152604080832080546001600160a01b03198116909155600e90925282206001600160a01b0390911691611ce391906134e5565b611cec8361262f565b604080518481526001600160a01b03831660208201527f25f50c25148e481cb3a859a9bdfbd7129ae346628a997dbd848447d5af07ef18910160405180910390a1505050565b5f918252600c602090815260408084206001600160a01b0393909316845291905290205460ff1690565b60606001805461068d90613ec1565b61084f338383612667565b5f818152600f60205260409020600a01546060906001600160a01b0316611ddf5760405162461bcd60e51b815260206004820152601b60248201527f70657420686173206e6f74206265656e206d696e74656420796574000000000060448201526064016107ad565b5f828152600e6020908152604080832080548251818502810185019093528083529193909284015b82821015611eaf578382905f5260205f20018054611e2490613ec1565b80601f0160208091040260200160405190810160405280929190818152602001828054611e5090613ec1565b8015611e9b5780601f10611e7257610100808354040283529160200191611e9b565b820191905f5260205f20905b815481529060010190602001808311611e7e57829003601f168201915b505050505081526020019060010190611e07565b505050509050919050565b611ec584848461085e565b6108e13385858585612705565b60606106798261282d565b5f828152600c6020526040902060010154611ef78161235a565b6108e183836124b3565b5f611f0b8161235a565b5f828152600f6020908152604091829020600b0180546001600160a01b031916905581518083018352600e81526d15915517d5539054d4d251d3915160921b818301528251808401909352601583527415995d195c9a5b985c9e481d5b985cdcda59db9959605a1b9183019190915261084f9184919042612364565b6001600160a01b039182165f90815260056020908152604080832093909416825291909152205460ff1690565b33611fbe8361251e565b6001600160a01b031614611fe45760405162461bcd60e51b81526004016107ad9061404a565b5f611fee8361251e565b9050611ffb33838561085e565b61204e83604051806040016040528060088152602001672a2920a729a322a960c11b81525061202985612930565b60405160200161203991906140fe565b60405160208183030381529060405242612364565b816001600160a01b0316816001600160a01b0316847fec966f1f123f894c9a734212c909ce0b3ce805cc4098502797b949c65ca65e7860405160405180910390a4505050565b5f61209e8161235a565b6109a15f8051602061435e833981519152836124b3565b60605f6120c18361251e565b6001600160a01b0316036120e75760405162461bcd60e51b81526004016107ad906140bb565b5f828152601060205260409020546001600160a01b0316331461211c5760405162461bcd60e51b81526004016107ad9061404a565b5f828152600f60209081526040918290206006018054835181840281018401909452808452909183018282801561217057602002820191905f5260205f20905b81548152602001906001019080831161215c575b50505050509050919050565b5f6121868161235a565b5f6121908c61251e565b6001600160a01b0316036121b65760405162461bcd60e51b81526004016107ad906140bb565b5f8b8152600f602052604090206121cd8b82613f3d565b505f8b8152600f602052604090206001016121e88a82613f3d565b505f8b8152600f602052604090206002016122038982613f3d565b505f8b8152600f60205260409020600381018690556004016122258882613f3d565b505f8b8152600f602052604090206005016122408782613f3d565b5061224c606485614139565b5f8c8152600f6020908152604090912060078101929092558451612276926006019186019061349c565b505f8b8152600f60209081526040909120835161229b9260089092019185019061349c565b506122f28b6040518060400160405280600a81526020016915541110551157d4115560b21b8152506040518060400160405280601081526020016f14195d081a5b999bc81d5c19185d195960821b81525042612364565b5050505050505050505050565b5f6001600160e01b03198216637965db0b60e01b1480610679575061067982612ac1565b5f8061232e8361251e565b90506001600160a01b03811661067957604051637e27328960e01b8152600481018490526024016107ad565b610faf8133612ae5565b5f848152600e60205260409020838361237c84612b1e565b60405160200161238e9392919061414c565b60408051601f1981840301815291905281546001810183555f9283526020909220909101906123bd9082613f3d565b507f06af170517272e60d652f4ebeb8064e501a5fa522a2b3346d6363f270aacd955848484846040516123f39493929190614181565b60405180910390a150505050565b6109a18383836001612c1a565b5f61241a848484612d1e565b949350505050565b5f61242d8383611d32565b6124ac575f838152600c602090815260408083206001600160a01b03861684529091529020805460ff191660011790556124643390565b6001600160a01b0316826001600160a01b0316847f2f8788117e7eff1d82e926ec794901d17c78024a50270940304540a733656f0d60405160405180910390a4506001610679565b505f610679565b5f6124be8383611d32565b156124ac575f838152600c602090815260408083206001600160a01b0386168085529252808320805460ff1916905551339286917ff6391f5c32d9c69d2a47ea670b442974b53935d1edc7fd64eb21e047a839171b9190a4506001610679565b5f908152600260205260409020546001600160a01b031690565b612540612d32565b600b805460ff191690557f5db9ee0a495bf2e6ff9c91a7834c1ba4fdd244a5e8aa4e537bd38aeae4b073aa335b6040516001600160a01b03909116815260200160405180910390a1565b61084f828260405180602001604052805f815250612d57565b5f828152600a602052604090206125ba8282613f3d565b506040518281527ff8e1a15aba9398e019f0b49df1a4fde98ee17ae345cb5f6b5e2c27f5033e8ce79060200160405180910390a15050565b6125fa612d6e565b600b805460ff191660011790557f62e78cea01bee320cd4e420270b5ea74000d11b0c9f74754ebdbfc544b05a25861256d3390565b5f61263b5f835f61240e565b90506001600160a01b03811661084f57604051637e27328960e01b8152600481018390526024016107ad565b6001600160a01b03821661269957604051630b61174360e31b81526001600160a01b03831660048201526024016107ad565b6001600160a01b038381165f81815260056020908152604080832094871680845294825291829020805460ff191686151590811790915591519182527f17307eab39ab6107e8899845ad3d59bd9653f200f220920489ca2b5937696c31910160405180910390a3505050565b6001600160a01b0383163b1561282657604051630a85bd0160e11b81526001600160a01b0384169063150b7a02906127479088908890879087906004016141bd565b6020604051808303815f875af1925050508015612781575060408051601f3d908101601f1916820190925261277e918101906141ef565b60015b6127e8573d8080156127ae576040519150601f19603f3d011682016040523d82523d5f602084013e6127b3565b606091505b5080515f036127e057604051633250574960e11b81526001600160a01b03851660048201526024016107ad565b805181602001fd5b6001600160e01b03198116630a85bd0160e11b1461282457604051633250574960e11b81526001600160a01b03851660048201526024016107ad565b505b5050505050565b606061283882612323565b505f828152600a60205260408120805461285190613ec1565b80601f016020809104026020016040519081016040528092919081815260200182805461287d90613ec1565b80156128c85780601f1061289f576101008083540402835291602001916128c8565b820191905f5260205f20905b8154815290600101906020018083116128ab57829003601f168201915b505050505090505f6128e460408051602081019091525f815290565b905080515f036128f5575092915050565b81511561292757808260405160200161290f92919061420a565b60405160208183030381529060405292505050919050565b61241a84612d92565b60408051602a80825260608281019093525f9190602082018180368337019050509050600360fc1b815f8151811061296a5761296a614036565b60200101906001600160f81b03191690815f1a905350600f60fb1b8160018151811061299857612998614036565b60200101906001600160f81b03191690815f1a9053505f5b6014811015612aba575f6129c5826013614023565b6129d090600461421e565b6129db906002614318565b6129ee906001600160a01b038716614139565b600f811691505f9060f81b600f60f81b16600360fc1b85612a1086600261421e565b612a1b906002614323565b81518110612a2b57612a2b614036565b60200101906001600160f81b03191690815f1a9053506f181899199a1a9b1b9c1cb0b131b232b360811b60f882901c60108110612a6a57612a6a614036565b1a60f81b85612a7a86600261421e565b612a85906003614323565b81518110612a9557612a95614036565b60200101906001600160f81b03191690815f1a90535050600190920191506129b09050565b5092915050565b5f6001600160e01b03198216632483248360e11b1480610679575061067982612e03565b612aef8282611d32565b61084f5760405163e2517d3f60e01b81526001600160a01b0382166004820152602481018390526044016107ad565b6060815f03612b445750506040805180820190915260018152600360fc1b602082015290565b815f5b8115612b6d5780612b578161400b565b9150612b669050600a83614139565b9150612b47565b5f816001600160401b03811115612b8657612b8661394b565b6040519080825280601f01601f191660200182016040528015612bb0576020820181803683370190505b5090505b841561241a57612bc5600183614023565b9150612bd2600a86614336565b612bdd906030614323565b60f81b818381518110612bf257612bf2614036565b60200101906001600160f81b03191690815f1a905350612c13600a86614139565b9450612bb4565b8080612c2e57506001600160a01b03821615155b15612cef575f612c3d84612323565b90506001600160a01b03831615801590612c695750826001600160a01b0316816001600160a01b031614155b8015612c7c5750612c7a8184611f87565b155b15612ca55760405163a9fbf51f60e01b81526001600160a01b03841660048201526024016107ad565b8115612ced5783856001600160a01b0316826001600160a01b03167f8c5be1e5ebec7d5bd14f71427d1e84f3dd0314c0f7b2291e5b200ac8c7c3b92560405160405180910390a45b505b50505f90815260046020526040902080546001600160a01b0319166001600160a01b0392909216919091179055565b5f612d27612d6e565b61241a848484612e27565b600b5460ff16612d5557604051638dfc202b60e01b815260040160405180910390fd5b565b612d618383612ef2565b6109a1335f858585612705565b600b5460ff1615612d555760405163d93c066560e01b815260040160405180910390fd5b6060612d9d82612323565b505f612db360408051602081019091525f815290565b90505f815111612dd15760405180602001604052805f815250612dfc565b80612ddb84612f53565b604051602001612dec92919061420a565b6040516020818303038152906040525b9392505050565b5f6001600160e01b0319821663780e9d6360e01b1480610679575061067982612fe3565b5f80612e34858585613032565b90506001600160a01b038116612e9057612e8b84600880545f838152600960205260408120829055600182018355919091527ff3f7a9fe364faab93b216da50a3214154f22a0a2b415b23a84c8169e8b636ee30155565b612eb3565b846001600160a01b0316816001600160a01b031614612eb357612eb3818561311f565b6001600160a01b038516612ecf57612eca8461319c565b61241a565b846001600160a01b0316816001600160a01b03161461241a5761241a8585613243565b6001600160a01b038216612f1b57604051633250574960e11b81525f60048201526024016107ad565b5f612f2783835f61240e565b90506001600160a01b038116156109a1576040516339e3563760e11b81525f60048201526024016107ad565b60605f612f5f83613291565b60010190505f816001600160401b03811115612f7d57612f7d61394b565b6040519080825280601f01601f191660200182016040528015612fa7576020820181803683370190505b5090508181016020015b5f19016f181899199a1a9b1b9c1cb0b131b232b360811b600a86061a8153600a8504945084612fb1575b509392505050565b5f6001600160e01b031982166380ac58cd60e01b148061301357506001600160e01b03198216635b5e139f60e01b145b8061067957506301ffc9a760e01b6001600160e01b0319831614610679565b5f8061303d8461251e565b90506001600160a01b0383161561305957613059818486613368565b6001600160a01b03811615613093576130745f855f80612c1a565b6001600160a01b0381165f90815260036020526040902080545f190190555b6001600160a01b038516156130c1576001600160a01b0385165f908152600360205260409020805460010190555b5f8481526002602052604080822080546001600160a01b0319166001600160a01b0389811691821790925591518793918516917fddf252ad1be2c89b69c2b068fc378daa952ba7f163c4a11628f55a4df523b3ef91a4949350505050565b5f61312983611892565b5f838152600760209081526040808320546001600160a01b038816845260069092529091209192509081831461317e575f83815260208281526040808320548584528184208190558352600790915290208290555b5f938452600760209081526040808620869055938552525081205550565b6008545f906131ad90600190614023565b5f83815260096020526040812054600880549394509092849081106131d4576131d4614036565b905f5260205f200154905080600883815481106131f3576131f3614036565b5f91825260208083209091019290925582815260099091526040808220849055858252812055600880548061322a5761322a614349565b600190038181905f5260205f20015f9055905550505050565b5f600161324f84611892565b6132599190614023565b6001600160a01b039093165f908152600660209081526040808320868452825280832085905593825260079052919091209190915550565b5f8072184f03e93ff9f4daa797ed6e38ed64bf6a1f0160401b83106132cf5772184f03e93ff9f4daa797ed6e38ed64bf6a1f0160401b830492506040015b6d04ee2d6d415b85acef810000000083106132fb576d04ee2d6d415b85acef8100000000830492506020015b662386f26fc10000831061331957662386f26fc10000830492506010015b6305f5e1008310613331576305f5e100830492506008015b612710831061334557612710830492506004015b60648310613357576064830492506002015b600a83106106795760010192915050565b6133738383836133cc565b6109a1576001600160a01b0383166133a157604051637e27328960e01b8152600481018290526024016107ad565b60405163177e802f60e01b81526001600160a01b0383166004820152602481018290526044016107ad565b5f6001600160a01b0383161580159061241a5750826001600160a01b0316846001600160a01b0316148061340557506134058484611f87565b8061241a5750505f908152600460205260409020546001600160a01b03908116911614919050565b6040518061018001604052806060815260200160608152602001606081526020015f81526020016060815260200160608152602001606081526020015f815260200160608152602001606081526020015f6001600160a01b031681526020015f6001600160a01b031681525090565b828054828255905f5260205f209081019282156134d5579160200282015b828111156134d55782518255916020019190600101906134ba565b506134e1929150613500565b5090565b5080545f8255905f5260205f2090810190610faf9190613514565b5b808211156134e1575f8155600101613501565b808211156134e1575f6135278282613530565b50600101613514565b50805461353c90613ec1565b5f825580601f1061354b575050565b601f0160209004905f5260205f2090810190610faf9190613500565b6001600160e01b031981168114610faf575f80fd5b5f6020828403121561358c575f80fd5b8135612dfc81613567565b5f81518084528060208401602086015e5f602082860101526020601f19601f83011685010191505092915050565b602081525f612dfc6020830184613597565b5f602082840312156135e7575f80fd5b5035919050565b80356001600160a01b0381168114613604575f80fd5b919050565b5f806040838503121561361a575f80fd5b613623836135ee565b946020939093013593505050565b5f805f60608486031215613643575f80fd5b61364c846135ee565b925061365a602085016135ee565b929592945050506040919091013590565b5f806040838503121561367c575f80fd5b8235915061368c602084016135ee565b90509250929050565b5f602082840312156136a5575f80fd5b612dfc826135ee565b5f8151808452602084019350602083015f5b828110156136de5781518652602095860195909101906001016136c0565b5093949350505050565b5f815161018084526136fe610180850182613597565b9050602083015184820360208601526137178282613597565b915050604083015184820360408601526137318282613597565b91505060608301516060850152608083015184820360808601526137558282613597565b91505060a083015184820360a086015261376f8282613597565b91505060c083015184820360c086015261378982826136ae565b91505060e083015160e08501526101008301518482036101008601526137af82826136ae565b9150506101208301518482036101208601526137cb8282613597565b9150506101408301516137ea6101408601826001600160a01b03169052565b50610160830151612fdb6101608601826001600160a01b03169052565b5f602082016020835280845180835260408501915060408160051b8601019250602086015f5b8281101561385e57603f198786030184526138498583516136e8565b9450602093840193919091019060010161382d565b50929695505050505050565b61014081525f61387e61014083018d613597565b8281036020840152613890818d613597565b905082810360408401526138a4818c613597565b905089606084015282810360808401526138be818a613597565b905082810360a08401526138d28189613597565b90508660c084015282810360e08401526138ec8187613597565b6001600160a01b039586166101008501529390941661012090920191909152509998505050505050505050565b602081525f612dfc60208301846136e8565b5f806040838503121561393c575f80fd5b50508035926020909101359150565b634e487b7160e01b5f52604160045260245ffd5b604051601f8201601f191681016001600160401b03811182821017156139875761398761394b565b604052919050565b5f806001600160401b038411156139a8576139a861394b565b50601f8301601f19166020016139bd8161395f565b9150508281528383830111156139d1575f80fd5b828260208301375f602084830101529392505050565b5f82601f8301126139f6575f80fd5b612dfc8383356020850161398f565b5f82601f830112613a14575f80fd5b81356001600160401b03811115613a2d57613a2d61394b565b8060051b613a3d6020820161395f565b91825260208185018101929081019086841115613a58575f80fd5b6020860192505b83831015613a7a578235825260209283019290910190613a5f565b9695505050505050565b5f805f805f805f805f805f6101608c8e031215613a9f575f80fd5b613aa88c6135ee565b9a5060208c01356001600160401b03811115613ac2575f80fd5b613ace8e828f016139e7565b9a505060408c01356001600160401b03811115613ae9575f80fd5b613af58e828f016139e7565b99505060608c01356001600160401b03811115613b10575f80fd5b613b1c8e828f016139e7565b98505060808c01356001600160401b03811115613b37575f80fd5b613b438e828f016139e7565b97505060a08c0135955060c08c0135945060e08c01356001600160401b03811115613b6c575f80fd5b613b788e828f016139e7565b9450506101008c01356001600160401b03811115613b94575f80fd5b613ba08e828f016139e7565b9350506101208c01356001600160401b03811115613bbc575f80fd5b613bc88e828f01613a05565b9250506101408c01356001600160401b03811115613be4575f80fd5b613bf08e828f01613a05565b9150509295989b509295989b9093969950565b5f8060408385031215613c14575f80fd5b613c1d836135ee565b915060208301358015158114613c31575f80fd5b809150509250929050565b5f602082016020835280845180835260408501915060408160051b8601019250602086015f5b8281101561385e57603f19878603018452613c7e858351613597565b94506020938401939190910190600101613c62565b5f805f8060808587031215613ca6575f80fd5b613caf856135ee565b9350613cbd602086016135ee565b92506040850135915060608501356001600160401b03811115613cde575f80fd5b8501601f81018713613cee575f80fd5b613cfd8782356020840161398f565b91505092959194509250565b5f8060408385031215613d1a575f80fd5b613d23836135ee565b915061368c602084016135ee565b602080825282518282018190525f918401906040840190835b81811015613d68578351835260209384019390920191600101613d4a565b509095945050505050565b5f805f805f805f805f806101408b8d031215613d8d575f80fd5b8a35995060208b01356001600160401b03811115613da9575f80fd5b613db58d828e016139e7565b99505060408b01356001600160401b03811115613dd0575f80fd5b613ddc8d828e016139e7565b98505060608b01356001600160401b03811115613df7575f80fd5b613e038d828e016139e7565b97505060808b01356001600160401b03811115613e1e575f80fd5b613e2a8d828e016139e7565b96505060a08b01356001600160401b03811115613e45575f80fd5b613e518d828e016139e7565b95505060c08b0135935060e08b013592506101008b01356001600160401b03811115613e7b575f80fd5b613e878d828e01613a05565b9250506101208b01356001600160401b03811115613ea3575f80fd5b613eaf8d828e01613a05565b9150509295989b9194979a5092959850565b600181811c90821680613ed557607f821691505b602082108103613ef357634e487b7160e01b5f52602260045260245ffd5b50919050565b601f8211156109a157805f5260205f20601f840160051c81016020851015613f1e5750805b601f840160051c820191505b81811015612826575f8155600101613f2a565b81516001600160401b03811115613f5657613f5661394b565b613f6a81613f648454613ec1565b84613ef9565b6020601f821160018114613f9c575f8315613f855750848201515b5f19600385901b1c1916600184901b178455612826565b5f84815260208120601f198516915b82811015613fcb5787850151825560209485019460019092019101613fab565b5084821015613fe857868401515f19600387901b60f8161c191681555b50505050600190811b01905550565b634e487b7160e01b5f52601160045260245ffd5b5f6001820161401c5761401c613ff7565b5060010190565b8181038181111561067957610679613ff7565b634e487b7160e01b5f52603260045260245ffd5b60208082526021908201527f596f7520617265206e6f7420746865206f776e6572206f6620746869732070656040820152601d60fa1b606082015260800190565b838152606060208201525f6140a36060830185613597565b905060018060a01b0383166040830152949350505050565b60208082526012908201527114195d08191bd95cc81b9bdd08195e1a5cdd60721b604082015260600190565b5f81518060208401855e5f93019283525090919050565b7202832ba103a3930b739b332b93932b2103a379606d1b81525f612dfc60138301846140e7565b634e487b7160e01b5f52601260045260245ffd5b5f8261414757614147614125565b500490565b5f61415782866140e7565b601f60fa1b815261416b60018201866140e7565b9050601f60fa1b8152613a7a60018201856140e7565b848152608060208201525f6141996080830186613597565b82810360408401526141ab8186613597565b91505082606083015295945050505050565b6001600160a01b03858116825284166020820152604081018390526080606082018190525f90613a7a90830184613597565b5f602082840312156141ff575f80fd5b8151612dfc81613567565b5f61241a61421883866140e7565b846140e7565b808202811582820484141761067957610679613ff7565b6001815b60018411156142705780850481111561425457614254613ff7565b600184161561426257908102905b60019390931c928002614239565b935093915050565b5f8261428657506001610679565b8161429257505f610679565b81600181146142a857600281146142b2576142ce565b6001915050610679565b60ff8411156142c3576142c3613ff7565b50506001821b610679565b5060208310610133831016604e8410600b84101617156142f1575081810a610679565b6142fd5f198484614235565b805f190482111561431057614310613ff7565b029392505050565b5f612dfc8383614278565b8082018082111561067957610679613ff7565b5f8261434457614344614125565b500690565b634e487b7160e01b5f52603160045260245ffdfe65d7a28e3265b37a6474929f336521b332c1681b933f6cb9f3376673440d862a9f2df0fed2c77648de5860a4cc508cd0818c85b8b8a1ab4ceeef8d981c8956a6a2646970667358221220c02a4d81416f1f4cab5d18926366899968b91ca81458bf1be38cfa482cbf280964736f6c634300081a0033",
			"opcodes": "PUSH1 0x80 PUSH1 0x40 MSTORE CALLVALUE DUP1 ISZERO PUSH2 0xF JUMPI PUSH0 DUP1 REVERT JUMPDEST POP PUSH1 0x40 MLOAD PUSH2 0x46B4 CODESIZE SUB DUP1 PUSH2 0x46B4 DUP4 CODECOPY DUP2 ADD PUSH1 0x40 DUP2 SWAP1 MSTORE PUSH2 0x2E SWAP2 PUSH2 0x155 JUMP JUMPDEST PUSH1 0x40 MLOAD DUP1 PUSH1 0x40 ADD PUSH1 0x40 MSTORE DUP1 PUSH1 0xB DUP2 MSTORE PUSH1 0x20 ADD PUSH11 0x2237B3B3B7B9AA37B5B2B7 PUSH1 0xA9 SHL DUP2 MSTORE POP PUSH1 0x40 MLOAD DUP1 PUSH1 0x40 ADD PUSH1 0x40 MSTORE DUP1 PUSH1 0x4 DUP2 MSTORE PUSH1 0x20 ADD PUSH4 0x1113D1D5 PUSH1 0xE2 SHL DUP2 MSTORE POP DUP2 PUSH0 SWAP1 DUP2 PUSH2 0x7D SWAP2 SWAP1 PUSH2 0x21A JUMP JUMPDEST POP PUSH1 0x1 PUSH2 0x8A DUP3 DUP3 PUSH2 0x21A JUMP JUMPDEST POP POP PUSH1 0xB DUP1 SLOAD PUSH1 0xFF NOT AND SWAP1 SSTORE POP PUSH2 0xA1 PUSH0 DUP3 PUSH2 0xA8 JUMP JUMPDEST POP POP PUSH2 0x2D4 JUMP JUMPDEST PUSH0 DUP3 DUP2 MSTORE PUSH1 0xC PUSH1 0x20 SWAP1 DUP2 MSTORE PUSH1 0x40 DUP1 DUP4 KECCAK256 PUSH1 0x1 PUSH1 0x1 PUSH1 0xA0 SHL SUB DUP6 AND DUP5 MSTORE SWAP1 SWAP2 MSTORE DUP2 KECCAK256 SLOAD PUSH1 0xFF AND PUSH2 0x14C JUMPI PUSH0 DUP4 DUP2 MSTORE PUSH1 0xC PUSH1 0x20 SWAP1 DUP2 MSTORE PUSH1 0x40 DUP1 DUP4 KECCAK256 PUSH1 0x1 PUSH1 0x1 PUSH1 0xA0 SHL SUB DUP7 AND DUP5 MSTORE SWAP1 SWAP2 MSTORE SWAP1 KECCAK256 DUP1 SLOAD PUSH1 0xFF NOT AND PUSH1 0x1 OR SWAP1 SSTORE PUSH2 0x104 CALLER SWAP1 JUMP JUMPDEST PUSH1 0x1 PUSH1 0x1 PUSH1 0xA0 SHL SUB AND DUP3 PUSH1 0x1 PUSH1 0x1 PUSH1 0xA0 SHL SUB AND DUP5 PUSH32 0x2F8788117E7EFF1D82E926EC794901D17C78024A50270940304540A733656F0D PUSH1 0x40 MLOAD PUSH1 0x40 MLOAD DUP1 SWAP2 SUB SWAP1 LOG4 POP PUSH1 0x1 PUSH2 0x14F JUMP JUMPDEST POP PUSH0 JUMPDEST SWAP3 SWAP2 POP POP JUMP JUMPDEST PUSH0 PUSH1 0x20 DUP3 DUP5 SUB SLT ISZERO PUSH2 0x165 JUMPI PUSH0 DUP1 REVERT JUMPDEST DUP2 MLOAD PUSH1 0x1 PUSH1 0x1 PUSH1 0xA0 SHL SUB DUP2 AND DUP2 EQ PUSH2 0x17B JUMPI PUSH0 DUP1 REVERT JUMPDEST SWAP4 SWAP3 POP POP POP JUMP JUMPDEST PUSH4 0x4E487B71 PUSH1 0xE0 SHL PUSH0 MSTORE PUSH1 0x41 PUSH1 0x4 MSTORE PUSH1 0x24 PUSH0 REVERT JUMPDEST PUSH1 0x1 DUP2 DUP2 SHR SWAP1 DUP3 AND DUP1 PUSH2 0x1AA JUMPI PUSH1 0x7F DUP3 AND SWAP2 POP JUMPDEST PUSH1 0x20 DUP3 LT DUP2 SUB PUSH2 0x1C8 JUMPI PUSH4 0x4E487B71 PUSH1 0xE0 SHL PUSH0 MSTORE PUSH1 0x22 PUSH1 0x4 MSTORE PUSH1 0x24 PUSH0 REVERT JUMPDEST POP SWAP2 SWAP1 POP JUMP JUMPDEST PUSH1 0x1F DUP3 GT ISZERO PUSH2 0x215 JUMPI DUP1 PUSH0 MSTORE PUSH1 0x20 PUSH0 KECCAK256 PUSH1 0x1F DUP5 ADD PUSH1 0x5 SHR DUP2 ADD PUSH1 0x20 DUP6 LT ISZERO PUSH2 0x1F3 JUMPI POP DUP1 JUMPDEST PUSH1 0x1F DUP5 ADD PUSH1 0x5 SHR DUP3 ADD SWAP2 POP JUMPDEST DUP2 DUP2 LT ISZERO PUSH2 0x212 JUMPI PUSH0 DUP2 SSTORE PUSH1 0x1 ADD PUSH2 0x1FF JUMP JUMPDEST POP POP JUMPDEST POP POP POP JUMP JUMPDEST DUP2 MLOAD PUSH1 0x1 PUSH1 0x1 PUSH1 0x40 SHL SUB DUP2 GT ISZERO PUSH2 0x233 JUMPI PUSH2 0x233 PUSH2 0x182 JUMP JUMPDEST PUSH2 0x247 DUP2 PUSH2 0x241 DUP5 SLOAD PUSH2 0x196 JUMP JUMPDEST DUP5 PUSH2 0x1CE JUMP JUMPDEST PUSH1 0x20 PUSH1 0x1F DUP3 GT PUSH1 0x1 DUP2 EQ PUSH2 0x279 JUMPI PUSH0 DUP4 ISZERO PUSH2 0x262 JUMPI POP DUP5 DUP3 ADD MLOAD JUMPDEST PUSH0 NOT PUSH1 0x3 DUP6 SWAP1 SHL SHR NOT AND PUSH1 0x1 DUP5 SWAP1 SHL OR DUP5 SSTORE PUSH2 0x212 JUMP JUMPDEST PUSH0 DUP5 DUP2 MSTORE PUSH1 0x20 DUP2 KECCAK256 PUSH1 0x1F NOT DUP6 AND SWAP2 JUMPDEST DUP3 DUP2 LT ISZERO PUSH2 0x2A8 JUMPI DUP8 DUP6 ADD MLOAD DUP3 SSTORE PUSH1 0x20 SWAP5 DUP6 ADD SWAP5 PUSH1 0x1 SWAP1 SWAP3 ADD SWAP2 ADD PUSH2 0x288 JUMP JUMPDEST POP DUP5 DUP3 LT ISZERO PUSH2 0x2C5 JUMPI DUP7 DUP5 ADD MLOAD PUSH0 NOT PUSH1 0x3 DUP8 SWAP1 SHL PUSH1 0xF8 AND SHR NOT AND DUP2 SSTORE JUMPDEST POP POP POP POP PUSH1 0x1 SWAP1 DUP2 SHL ADD SWAP1 SSTORE POP JUMP JUMPDEST PUSH2 0x43D3 DUP1 PUSH2 0x2E1 PUSH0 CODECOPY PUSH0 RETURN INVALID PUSH1 0x80 PUSH1 0x40 MSTORE CALLVALUE DUP1 ISZERO PUSH2 0xF JUMPI PUSH0 DUP1 REVERT JUMPDEST POP PUSH1 0x4 CALLDATASIZE LT PUSH2 0x281 JUMPI PUSH0 CALLDATALOAD PUSH1 0xE0 SHR DUP1 PUSH4 0x6C11C21C GT PUSH2 0x156 JUMPI DUP1 PUSH4 0xB88D4FDE GT PUSH2 0xCA JUMPI DUP1 PUSH4 0xE985E9C5 GT PUSH2 0x84 JUMPI DUP1 PUSH4 0xE985E9C5 EQ PUSH2 0x5DB JUMPI DUP1 PUSH4 0xF4C7D765 EQ PUSH2 0x5EE JUMPI DUP1 PUSH4 0xF865AF08 EQ PUSH2 0x601 JUMPI DUP1 PUSH4 0xFABCE2D4 EQ PUSH2 0x614 JUMPI DUP1 PUSH4 0xFCBE62F1 EQ PUSH2 0x634 JUMPI DUP1 PUSH4 0xFE736B71 EQ PUSH2 0x647 JUMPI PUSH0 DUP1 REVERT JUMPDEST DUP1 PUSH4 0xB88D4FDE EQ PUSH2 0x567 JUMPI DUP1 PUSH4 0xC87B56DD EQ PUSH2 0x57A JUMPI DUP1 PUSH4 0xD5391393 EQ PUSH2 0x58D JUMPI DUP1 PUSH4 0xD547741F EQ PUSH2 0x5A1 JUMPI DUP1 PUSH4 0xE63AB1E9 EQ PUSH2 0x5B4 JUMPI DUP1 PUSH4 0xE89CC0F4 EQ PUSH2 0x5C8 JUMPI PUSH0 DUP1 REVERT JUMPDEST DUP1 PUSH4 0x8E5E7D67 GT PUSH2 0x11B JUMPI DUP1 PUSH4 0x8E5E7D67 EQ PUSH2 0x4FF JUMPI DUP1 PUSH4 0x91D14854 EQ PUSH2 0x512 JUMPI DUP1 PUSH4 0x95D89B41 EQ PUSH2 0x525 JUMPI DUP1 PUSH4 0xA217FDDF EQ PUSH2 0x52D JUMPI DUP1 PUSH4 0xA22CB465 EQ PUSH2 0x534 JUMPI DUP1 PUSH4 0xB7C971FF EQ PUSH2 0x547 JUMPI PUSH0 DUP1 REVERT JUMPDEST DUP1 PUSH4 0x6C11C21C EQ PUSH2 0x4AB JUMPI DUP1 PUSH4 0x70A08231 EQ PUSH2 0x4BE JUMPI DUP1 PUSH4 0x7F352DF6 EQ PUSH2 0x4D1 JUMPI DUP1 PUSH4 0x825D91D4 EQ PUSH2 0x4E4 JUMPI DUP1 PUSH4 0x8456CB59 EQ PUSH2 0x4F7 JUMPI PUSH0 DUP1 REVERT JUMPDEST DUP1 PUSH4 0x36DC7676 GT PUSH2 0x1F8 JUMPI DUP1 PUSH4 0x4A9699EF GT PUSH2 0x1B2 JUMPI DUP1 PUSH4 0x4A9699EF EQ PUSH2 0x41E JUMPI DUP1 PUSH4 0x4F6CCCE7 EQ PUSH2 0x447 JUMPI DUP1 PUSH4 0x5C975ABB EQ PUSH2 0x45A JUMPI DUP1 PUSH4 0x6352211E EQ PUSH2 0x465 JUMPI DUP1 PUSH4 0x69C3F316 EQ PUSH2 0x478 JUMPI DUP1 PUSH4 0x69E2F0FB EQ PUSH2 0x498 JUMPI PUSH0 DUP1 REVERT JUMPDEST DUP1 PUSH4 0x36DC7676 EQ PUSH2 0x395 JUMPI DUP1 PUSH4 0x3DD1EB61 EQ PUSH2 0x3B5 JUMPI DUP1 PUSH4 0x3F4BA83A EQ PUSH2 0x3C8 JUMPI DUP1 PUSH4 0x42842E0E EQ PUSH2 0x3D0 JUMPI DUP1 PUSH4 0x42966C68 EQ PUSH2 0x3E3 JUMPI DUP1 PUSH4 0x447865EB EQ PUSH2 0x3F6 JUMPI PUSH0 DUP1 REVERT JUMPDEST DUP1 PUSH4 0x18160DDD GT PUSH2 0x249 JUMPI DUP1 PUSH4 0x18160DDD EQ PUSH2 0x315 JUMPI DUP1 PUSH4 0x23B872DD EQ PUSH2 0x327 JUMPI DUP1 PUSH4 0x248A9CA3 EQ PUSH2 0x33A JUMPI DUP1 PUSH4 0x2F2FF15D EQ PUSH2 0x35C JUMPI DUP1 PUSH4 0x2F745C59 EQ PUSH2 0x36F JUMPI DUP1 PUSH4 0x36568ABE EQ PUSH2 0x382 JUMPI PUSH0 DUP1 REVERT JUMPDEST DUP1 PUSH4 0x1FFC9A7 EQ PUSH2 0x285 JUMPI DUP1 PUSH4 0x6FDDE03 EQ PUSH2 0x2AD JUMPI DUP1 PUSH4 0x81812FC EQ PUSH2 0x2C2 JUMPI DUP1 PUSH4 0x8920AB8 EQ PUSH2 0x2ED JUMPI DUP1 PUSH4 0x95EA7B3 EQ PUSH2 0x302 JUMPI JUMPDEST PUSH0 DUP1 REVERT JUMPDEST PUSH2 0x298 PUSH2 0x293 CALLDATASIZE PUSH1 0x4 PUSH2 0x357C JUMP JUMPDEST PUSH2 0x66F JUMP JUMPDEST PUSH1 0x40 MLOAD SWAP1 ISZERO ISZERO DUP2 MSTORE PUSH1 0x20 ADD JUMPDEST PUSH1 0x40 MLOAD DUP1 SWAP2 SUB SWAP1 RETURN JUMPDEST PUSH2 0x2B5 PUSH2 0x67F JUMP JUMPDEST PUSH1 0x40 MLOAD PUSH2 0x2A4 SWAP2 SWAP1 PUSH2 0x35C5 JUMP JUMPDEST PUSH2 0x2D5 PUSH2 0x2D0 CALLDATASIZE PUSH1 0x4 PUSH2 0x35D7 JUMP JUMPDEST PUSH2 0x70E JUMP JUMPDEST PUSH1 0x40 MLOAD PUSH1 0x1 PUSH1 0x1 PUSH1 0xA0 SHL SUB SWAP1 SWAP2 AND DUP2 MSTORE PUSH1 0x20 ADD PUSH2 0x2A4 JUMP JUMPDEST PUSH2 0x300 PUSH2 0x2FB CALLDATASIZE PUSH1 0x4 PUSH2 0x35D7 JUMP JUMPDEST PUSH2 0x735 JUMP JUMPDEST STOP JUMPDEST PUSH2 0x300 PUSH2 0x310 CALLDATASIZE PUSH1 0x4 PUSH2 0x3609 JUMP JUMPDEST PUSH2 0x853 JUMP JUMPDEST PUSH1 0x8 SLOAD JUMPDEST PUSH1 0x40 MLOAD SWAP1 DUP2 MSTORE PUSH1 0x20 ADD PUSH2 0x2A4 JUMP JUMPDEST PUSH2 0x300 PUSH2 0x335 CALLDATASIZE PUSH1 0x4 PUSH2 0x3631 JUMP JUMPDEST PUSH2 0x85E JUMP JUMPDEST PUSH2 0x319 PUSH2 0x348 CALLDATASIZE PUSH1 0x4 PUSH2 0x35D7 JUMP JUMPDEST PUSH0 SWAP1 DUP2 MSTORE PUSH1 0xC PUSH1 0x20 MSTORE PUSH1 0x40 SWAP1 KECCAK256 PUSH1 0x1 ADD SLOAD SWAP1 JUMP JUMPDEST PUSH2 0x300 PUSH2 0x36A CALLDATASIZE PUSH1 0x4 PUSH2 0x366B JUMP JUMPDEST PUSH2 0x8E7 JUMP JUMPDEST PUSH2 0x319 PUSH2 0x37D CALLDATASIZE PUSH1 0x4 PUSH2 0x3609 JUMP JUMPDEST PUSH2 0x90B JUMP JUMPDEST PUSH2 0x300 PUSH2 0x390 CALLDATASIZE PUSH1 0x4 PUSH2 0x366B JUMP JUMPDEST PUSH2 0x96E JUMP JUMPDEST PUSH2 0x3A8 PUSH2 0x3A3 CALLDATASIZE PUSH1 0x4 PUSH2 0x3695 JUMP JUMPDEST PUSH2 0x9A6 JUMP JUMPDEST PUSH1 0x40 MLOAD PUSH2 0x2A4 SWAP2 SWAP1 PUSH2 0x3807 JUMP JUMPDEST PUSH2 0x300 PUSH2 0x3C3 CALLDATASIZE PUSH1 0x4 PUSH2 0x3695 JUMP JUMPDEST PUSH2 0xF6F JUMP JUMPDEST PUSH2 0x300 PUSH2 0xF90 JUMP JUMPDEST PUSH2 0x300 PUSH2 0x3DE CALLDATASIZE PUSH1 0x4 PUSH2 0x3631 JUMP JUMPDEST PUSH2 0xFB2 JUMP JUMPDEST PUSH2 0x300 PUSH2 0x3F1 CALLDATASIZE PUSH1 0x4 PUSH2 0x35D7 JUMP JUMPDEST PUSH2 0xFCC JUMP JUMPDEST PUSH2 0x2D5 PUSH2 0x404 CALLDATASIZE PUSH1 0x4 PUSH2 0x35D7 JUMP JUMPDEST PUSH1 0x11 PUSH1 0x20 MSTORE PUSH0 SWAP1 DUP2 MSTORE PUSH1 0x40 SWAP1 KECCAK256 SLOAD PUSH1 0x1 PUSH1 0x1 PUSH1 0xA0 SHL SUB AND DUP2 JUMP JUMPDEST PUSH2 0x431 PUSH2 0x42C CALLDATASIZE PUSH1 0x4 PUSH2 0x35D7 JUMP JUMPDEST PUSH2 0xFD7 JUMP JUMPDEST PUSH1 0x40 MLOAD PUSH2 0x2A4 SWAP11 SWAP10 SWAP9 SWAP8 SWAP7 SWAP6 SWAP5 SWAP4 SWAP3 SWAP2 SWAP1 PUSH2 0x386A JUMP JUMPDEST PUSH2 0x319 PUSH2 0x455 CALLDATASIZE PUSH1 0x4 PUSH2 0x35D7 JUMP JUMPDEST PUSH2 0x1353 JUMP JUMPDEST PUSH1 0xB SLOAD PUSH1 0xFF AND PUSH2 0x298 JUMP JUMPDEST PUSH2 0x2D5 PUSH2 0x473 CALLDATASIZE PUSH1 0x4 PUSH2 0x35D7 JUMP JUMPDEST PUSH2 0x13A8 JUMP JUMPDEST PUSH2 0x48B PUSH2 0x486 CALLDATASIZE PUSH1 0x4 PUSH2 0x35D7 JUMP JUMPDEST PUSH2 0x13B2 JUMP JUMPDEST PUSH1 0x40 MLOAD PUSH2 0x2A4 SWAP2 SWAP1 PUSH2 0x3919 JUMP JUMPDEST PUSH2 0x300 PUSH2 0x4A6 CALLDATASIZE PUSH1 0x4 PUSH2 0x3695 JUMP JUMPDEST PUSH2 0x1850 JUMP JUMPDEST PUSH2 0x300 PUSH2 0x4B9 CALLDATASIZE PUSH1 0x4 PUSH2 0x3695 JUMP JUMPDEST PUSH2 0x1871 JUMP JUMPDEST PUSH2 0x319 PUSH2 0x4CC CALLDATASIZE PUSH1 0x4 PUSH2 0x3695 JUMP JUMPDEST PUSH2 0x1892 JUMP JUMPDEST PUSH2 0x2B5 PUSH2 0x4DF CALLDATASIZE PUSH1 0x4 PUSH2 0x392B JUMP JUMPDEST PUSH2 0x18D7 JUMP JUMPDEST PUSH2 0x300 PUSH2 0x4F2 CALLDATASIZE PUSH1 0x4 PUSH2 0x3A84 JUMP JUMPDEST PUSH2 0x1988 JUMP JUMPDEST PUSH2 0x300 PUSH2 0x1C4D JUMP JUMPDEST PUSH2 0x300 PUSH2 0x50D CALLDATASIZE PUSH1 0x4 PUSH2 0x35D7 JUMP JUMPDEST PUSH2 0x1C6C JUMP JUMPDEST PUSH2 0x298 PUSH2 0x520 CALLDATASIZE PUSH1 0x4 PUSH2 0x366B JUMP JUMPDEST PUSH2 0x1D32 JUMP JUMPDEST PUSH2 0x2B5 PUSH2 0x1D5C JUMP JUMPDEST PUSH2 0x319 PUSH0 DUP2 JUMP JUMPDEST PUSH2 0x300 PUSH2 0x542 CALLDATASIZE PUSH1 0x4 PUSH2 0x3C03 JUMP JUMPDEST PUSH2 0x1D6B JUMP JUMPDEST PUSH2 0x55A PUSH2 0x555 CALLDATASIZE PUSH1 0x4 PUSH2 0x35D7 JUMP JUMPDEST PUSH2 0x1D76 JUMP JUMPDEST PUSH1 0x40 MLOAD PUSH2 0x2A4 SWAP2 SWAP1 PUSH2 0x3C3C JUMP JUMPDEST PUSH2 0x300 PUSH2 0x575 CALLDATASIZE PUSH1 0x4 PUSH2 0x3C93 JUMP JUMPDEST PUSH2 0x1EBA JUMP JUMPDEST PUSH2 0x2B5 PUSH2 0x588 CALLDATASIZE PUSH1 0x4 PUSH2 0x35D7 JUMP JUMPDEST PUSH2 0x1ED2 JUMP JUMPDEST PUSH2 0x319 PUSH0 DUP1 MLOAD PUSH1 0x20 PUSH2 0x437E DUP4 CODECOPY DUP2 MLOAD SWAP2 MSTORE DUP2 JUMP JUMPDEST PUSH2 0x300 PUSH2 0x5AF CALLDATASIZE PUSH1 0x4 PUSH2 0x366B JUMP JUMPDEST PUSH2 0x1EDD JUMP JUMPDEST PUSH2 0x319 PUSH0 DUP1 MLOAD PUSH1 0x20 PUSH2 0x435E DUP4 CODECOPY DUP2 MLOAD SWAP2 MSTORE DUP2 JUMP JUMPDEST PUSH2 0x300 PUSH2 0x5D6 CALLDATASIZE PUSH1 0x4 PUSH2 0x35D7 JUMP JUMPDEST PUSH2 0x1F01 JUMP JUMPDEST PUSH2 0x298 PUSH2 0x5E9 CALLDATASIZE PUSH1 0x4 PUSH2 0x3D09 JUMP JUMPDEST PUSH2 0x1F87 JUMP JUMPDEST PUSH2 0x300 PUSH2 0x5FC CALLDATASIZE PUSH1 0x4 PUSH2 0x366B JUMP JUMPDEST PUSH2 0x1FB4 JUMP JUMPDEST PUSH2 0x300 PUSH2 0x60F CALLDATASIZE PUSH1 0x4 PUSH2 0x3695 JUMP JUMPDEST PUSH2 0x2094 JUMP JUMPDEST PUSH2 0x627 PUSH2 0x622 CALLDATASIZE PUSH1 0x4 PUSH2 0x35D7 JUMP JUMPDEST PUSH2 0x20B5 JUMP JUMPDEST PUSH1 0x40 MLOAD PUSH2 0x2A4 SWAP2 SWAP1 PUSH2 0x3D31 JUMP JUMPDEST PUSH2 0x300 PUSH2 0x642 CALLDATASIZE PUSH1 0x4 PUSH2 0x3D73 JUMP JUMPDEST PUSH2 0x217C JUMP JUMPDEST PUSH2 0x2D5 PUSH2 0x655 CALLDATASIZE PUSH1 0x4 PUSH2 0x35D7 JUMP JUMPDEST PUSH1 0x10 PUSH1 0x20 MSTORE PUSH0 SWAP1 DUP2 MSTORE PUSH1 0x40 SWAP1 KECCAK256 SLOAD PUSH1 0x1 PUSH1 0x1 PUSH1 0xA0 SHL SUB AND DUP2 JUMP JUMPDEST PUSH0 PUSH2 0x679 DUP3 PUSH2 0x22FF JUMP JUMPDEST SWAP3 SWAP2 POP POP JUMP JUMPDEST PUSH1 0x60 PUSH0 DUP1 SLOAD PUSH2 0x68D SWAP1 PUSH2 0x3EC1 JUMP JUMPDEST DUP1 PUSH1 0x1F ADD PUSH1 0x20 DUP1 SWAP2 DIV MUL PUSH1 0x20 ADD PUSH1 0x40 MLOAD SWAP1 DUP2 ADD PUSH1 0x40 MSTORE DUP1 SWAP3 SWAP2 SWAP1 DUP2 DUP2 MSTORE PUSH1 0x20 ADD DUP3 DUP1 SLOAD PUSH2 0x6B9 SWAP1 PUSH2 0x3EC1 JUMP JUMPDEST DUP1 ISZERO PUSH2 0x704 JUMPI DUP1 PUSH1 0x1F LT PUSH2 0x6DB JUMPI PUSH2 0x100 DUP1 DUP4 SLOAD DIV MUL DUP4 MSTORE SWAP2 PUSH1 0x20 ADD SWAP2 PUSH2 0x704 JUMP JUMPDEST DUP3 ADD SWAP2 SWAP1 PUSH0 MSTORE PUSH1 0x20 PUSH0 KECCAK256 SWAP1 JUMPDEST DUP2 SLOAD DUP2 MSTORE SWAP1 PUSH1 0x1 ADD SWAP1 PUSH1 0x20 ADD DUP1 DUP4 GT PUSH2 0x6E7 JUMPI DUP3 SWAP1 SUB PUSH1 0x1F AND DUP3 ADD SWAP2 JUMPDEST POP POP POP POP POP SWAP1 POP SWAP1 JUMP JUMPDEST PUSH0 PUSH2 0x718 DUP3 PUSH2 0x2323 JUMP JUMPDEST POP PUSH0 DUP3 DUP2 MSTORE PUSH1 0x4 PUSH1 0x20 MSTORE PUSH1 0x40 SWAP1 KECCAK256 SLOAD PUSH1 0x1 PUSH1 0x1 PUSH1 0xA0 SHL SUB AND PUSH2 0x679 JUMP JUMPDEST PUSH0 PUSH2 0x73F DUP2 PUSH2 0x235A JUMP JUMPDEST PUSH0 DUP3 DUP2 MSTORE PUSH1 0xF PUSH1 0x20 MSTORE PUSH1 0x40 SWAP1 KECCAK256 PUSH1 0xB ADD SLOAD PUSH1 0x1 PUSH1 0x1 PUSH1 0xA0 SHL SUB AND CALLER EQ PUSH2 0x7B6 JUMPI PUSH1 0x40 MLOAD PUSH3 0x461BCD PUSH1 0xE5 SHL DUP2 MSTORE PUSH1 0x20 PUSH1 0x4 DUP3 ADD MSTORE PUSH1 0x21 PUSH1 0x24 DUP3 ADD MSTORE PUSH32 0x596F7520617265206E6F7420746865206F776E6572206F66207468697320646F PUSH1 0x44 DUP3 ADD MSTORE PUSH1 0x67 PUSH1 0xF8 SHL PUSH1 0x64 DUP3 ADD MSTORE PUSH1 0x84 ADD JUMPDEST PUSH1 0x40 MLOAD DUP1 SWAP2 SUB SWAP1 REVERT JUMPDEST PUSH1 0x40 MLOAD DUP1 PUSH1 0x40 ADD PUSH1 0x40 MSTORE DUP1 PUSH1 0xA DUP2 MSTORE PUSH1 0x20 ADD PUSH10 0x494E5F53555247455259 PUSH1 0xB0 SHL DUP2 MSTORE POP PUSH1 0xF PUSH0 DUP5 DUP2 MSTORE PUSH1 0x20 ADD SWAP1 DUP2 MSTORE PUSH1 0x20 ADD PUSH0 KECCAK256 PUSH1 0x9 ADD SWAP1 DUP2 PUSH2 0x7F9 SWAP2 SWAP1 PUSH2 0x3F3D JUMP JUMPDEST POP PUSH2 0x84F DUP3 PUSH1 0x40 MLOAD DUP1 PUSH1 0x40 ADD PUSH1 0x40 MSTORE DUP1 PUSH1 0x7 DUP2 MSTORE PUSH1 0x20 ADD PUSH7 0x53555247455259 PUSH1 0xC8 SHL DUP2 MSTORE POP PUSH1 0x40 MLOAD DUP1 PUSH1 0x40 ADD PUSH1 0x40 MSTORE DUP1 PUSH1 0x12 DUP2 MSTORE PUSH1 0x20 ADD PUSH18 0x5065742070757420696E2073757267657279 PUSH1 0x70 SHL DUP2 MSTORE POP TIMESTAMP PUSH2 0x2364 JUMP JUMPDEST POP POP JUMP JUMPDEST PUSH2 0x84F DUP3 DUP3 CALLER PUSH2 0x2401 JUMP JUMPDEST PUSH1 0x1 PUSH1 0x1 PUSH1 0xA0 SHL SUB DUP3 AND PUSH2 0x887 JUMPI PUSH1 0x40 MLOAD PUSH4 0x32505749 PUSH1 0xE1 SHL DUP2 MSTORE PUSH0 PUSH1 0x4 DUP3 ADD MSTORE PUSH1 0x24 ADD PUSH2 0x7AD JUMP JUMPDEST PUSH0 PUSH2 0x893 DUP4 DUP4 CALLER PUSH2 0x240E JUMP JUMPDEST SWAP1 POP DUP4 PUSH1 0x1 PUSH1 0x1 PUSH1 0xA0 SHL SUB AND DUP2 PUSH1 0x1 PUSH1 0x1 PUSH1 0xA0 SHL SUB AND EQ PUSH2 0x8E1 JUMPI PUSH1 0x40 MLOAD PUSH4 0x64283D7B PUSH1 0xE0 SHL DUP2 MSTORE PUSH1 0x1 PUSH1 0x1 PUSH1 0xA0 SHL SUB DUP1 DUP7 AND PUSH1 0x4 DUP4 ADD MSTORE PUSH1 0x24 DUP3 ADD DUP5 SWAP1 MSTORE DUP3 AND PUSH1 0x44 DUP3 ADD MSTORE PUSH1 0x64 ADD PUSH2 0x7AD JUMP JUMPDEST POP POP POP POP JUMP JUMPDEST PUSH0 DUP3 DUP2 MSTORE PUSH1 0xC PUSH1 0x20 MSTORE PUSH1 0x40 SWAP1 KECCAK256 PUSH1 0x1 ADD SLOAD PUSH2 0x901 DUP2 PUSH2 0x235A JUMP JUMPDEST PUSH2 0x8E1 DUP4 DUP4 PUSH2 0x2422 JUMP JUMPDEST PUSH0 PUSH2 0x915 DUP4 PUSH2 0x1892 JUMP JUMPDEST DUP3 LT PUSH2 0x946 JUMPI PUSH1 0x40 MLOAD PUSH4 0x295F44F7 PUSH1 0xE2 SHL DUP2 MSTORE PUSH1 0x1 PUSH1 0x1 PUSH1 0xA0 SHL SUB DUP5 AND PUSH1 0x4 DUP3 ADD MSTORE PUSH1 0x24 DUP2 ADD DUP4 SWAP1 MSTORE PUSH1 0x44 ADD PUSH2 0x7AD JUMP JUMPDEST POP PUSH1 0x1 PUSH1 0x1 PUSH1 0xA0 SHL SUB SWAP2 SWAP1 SWAP2 AND PUSH0 SWAP1 DUP2 MSTORE PUSH1 0x6 PUSH1 0x20 SWAP1 DUP2 MSTORE PUSH1 0x40 DUP1 DUP4 KECCAK256 SWAP4 DUP4 MSTORE SWAP3 SWAP1 MSTORE KECCAK256 SLOAD SWAP1 JUMP JUMPDEST PUSH1 0x1 PUSH1 0x1 PUSH1 0xA0 SHL SUB DUP2 AND CALLER EQ PUSH2 0x997 JUMPI PUSH1 0x40 MLOAD PUSH4 0x334BD919 PUSH1 0xE1 SHL DUP2 MSTORE PUSH1 0x4 ADD PUSH1 0x40 MLOAD DUP1 SWAP2 SUB SWAP1 REVERT JUMPDEST PUSH2 0x9A1 DUP3 DUP3 PUSH2 0x24B3 JUMP JUMPDEST POP POP POP JUMP JUMPDEST PUSH1 0x40 DUP1 MLOAD PUSH0 DUP1 DUP3 MSTORE PUSH1 0x20 DUP3 ADD SWAP1 SWAP3 MSTORE PUSH1 0x60 SWAP2 SWAP1 DUP2 PUSH2 0x9DA JUMP JUMPDEST PUSH2 0x9C7 PUSH2 0x342D JUMP JUMPDEST DUP2 MSTORE PUSH1 0x20 ADD SWAP1 PUSH1 0x1 SWAP1 SUB SWAP1 DUP2 PUSH2 0x9BF JUMPI SWAP1 POP JUMPDEST POP SWAP1 POP PUSH0 DUP1 PUSH2 0x9E8 PUSH1 0x8 SLOAD SWAP1 JUMP JUMPDEST SWAP1 POP PUSH0 JUMPDEST DUP2 DUP2 LT ISZERO PUSH2 0xF65 JUMPI PUSH0 PUSH2 0x9FE DUP3 PUSH2 0x1353 JUMP JUMPDEST SWAP1 POP DUP7 PUSH1 0x1 PUSH1 0x1 PUSH1 0xA0 SHL SUB AND PUSH2 0xA13 DUP3 PUSH2 0x251E JUMP JUMPDEST PUSH1 0x1 PUSH1 0x1 PUSH1 0xA0 SHL SUB AND SUB PUSH2 0xF5C JUMPI DUP4 PUSH2 0xA2B DUP2 PUSH2 0x400B JUMP JUMPDEST SWAP5 POP POP PUSH0 DUP5 PUSH1 0x1 PUSH1 0x1 PUSH1 0x40 SHL SUB DUP2 GT ISZERO PUSH2 0xA47 JUMPI PUSH2 0xA47 PUSH2 0x394B JUMP JUMPDEST PUSH1 0x40 MLOAD SWAP1 DUP1 DUP3 MSTORE DUP1 PUSH1 0x20 MUL PUSH1 0x20 ADD DUP3 ADD PUSH1 0x40 MSTORE DUP1 ISZERO PUSH2 0xA80 JUMPI DUP2 PUSH1 0x20 ADD JUMPDEST PUSH2 0xA6D PUSH2 0x342D JUMP JUMPDEST DUP2 MSTORE PUSH1 0x20 ADD SWAP1 PUSH1 0x1 SWAP1 SUB SWAP1 DUP2 PUSH2 0xA65 JUMPI SWAP1 POP JUMPDEST POP SWAP1 POP PUSH0 JUMPDEST PUSH2 0xA90 PUSH1 0x1 DUP8 PUSH2 0x4023 JUMP JUMPDEST DUP2 LT ISZERO PUSH2 0xAD6 JUMPI DUP7 DUP2 DUP2 MLOAD DUP2 LT PUSH2 0xAA9 JUMPI PUSH2 0xAA9 PUSH2 0x4036 JUMP JUMPDEST PUSH1 0x20 MUL PUSH1 0x20 ADD ADD MLOAD DUP3 DUP3 DUP2 MLOAD DUP2 LT PUSH2 0xAC3 JUMPI PUSH2 0xAC3 PUSH2 0x4036 JUMP JUMPDEST PUSH1 0x20 SWAP1 DUP2 MUL SWAP2 SWAP1 SWAP2 ADD ADD MSTORE PUSH1 0x1 ADD PUSH2 0xA85 JUMP JUMPDEST POP PUSH0 DUP3 DUP2 MSTORE PUSH1 0xF PUSH1 0x20 MSTORE PUSH1 0x40 SWAP1 DUP2 SWAP1 KECCAK256 DUP2 MLOAD PUSH2 0x180 DUP2 ADD SWAP1 SWAP3 MSTORE DUP1 SLOAD DUP3 SWAP1 DUP3 SWAP1 PUSH2 0xAFF SWAP1 PUSH2 0x3EC1 JUMP JUMPDEST DUP1 PUSH1 0x1F ADD PUSH1 0x20 DUP1 SWAP2 DIV MUL PUSH1 0x20 ADD PUSH1 0x40 MLOAD SWAP1 DUP2 ADD PUSH1 0x40 MSTORE DUP1 SWAP3 SWAP2 SWAP1 DUP2 DUP2 MSTORE PUSH1 0x20 ADD DUP3 DUP1 SLOAD PUSH2 0xB2B SWAP1 PUSH2 0x3EC1 JUMP JUMPDEST DUP1 ISZERO PUSH2 0xB76 JUMPI DUP1 PUSH1 0x1F LT PUSH2 0xB4D JUMPI PUSH2 0x100 DUP1 DUP4 SLOAD DIV MUL DUP4 MSTORE SWAP2 PUSH1 0x20 ADD SWAP2 PUSH2 0xB76 JUMP JUMPDEST DUP3 ADD SWAP2 SWAP1 PUSH0 MSTORE PUSH1 0x20 PUSH0 KECCAK256 SWAP1 JUMPDEST DUP2 SLOAD DUP2 MSTORE SWAP1 PUSH1 0x1 ADD SWAP1 PUSH1 0x20 ADD DUP1 DUP4 GT PUSH2 0xB59 JUMPI DUP3 SWAP1 SUB PUSH1 0x1F AND DUP3 ADD SWAP2 JUMPDEST POP POP POP POP POP DUP2 MSTORE PUSH1 0x20 ADD PUSH1 0x1 DUP3 ADD DUP1 SLOAD PUSH2 0xB8F SWAP1 PUSH2 0x3EC1 JUMP JUMPDEST DUP1 PUSH1 0x1F ADD PUSH1 0x20 DUP1 SWAP2 DIV MUL PUSH1 0x20 ADD PUSH1 0x40 MLOAD SWAP1 DUP2 ADD PUSH1 0x40 MSTORE DUP1 SWAP3 SWAP2 SWAP1 DUP2 DUP2 MSTORE PUSH1 0x20 ADD DUP3 DUP1 SLOAD PUSH2 0xBBB SWAP1 PUSH2 0x3EC1 JUMP JUMPDEST DUP1 ISZERO PUSH2 0xC06 JUMPI DUP1 PUSH1 0x1F LT PUSH2 0xBDD JUMPI PUSH2 0x100 DUP1 DUP4 SLOAD DIV MUL DUP4 MSTORE SWAP2 PUSH1 0x20 ADD SWAP2 PUSH2 0xC06 JUMP JUMPDEST DUP3 ADD SWAP2 SWAP1 PUSH0 MSTORE PUSH1 0x20 PUSH0 KECCAK256 SWAP1 JUMPDEST DUP2 SLOAD DUP2 MSTORE SWAP1 PUSH1 0x1 ADD SWAP1 PUSH1 0x20 ADD DUP1 DUP4 GT PUSH2 0xBE9 JUMPI DUP3 SWAP1 SUB PUSH1 0x1F AND DUP3 ADD SWAP2 JUMPDEST POP POP POP POP POP DUP2 MSTORE PUSH1 0x20 ADD PUSH1 0x2 DUP3 ADD DUP1 SLOAD PUSH2 0xC1F SWAP1 PUSH2 0x3EC1 JUMP JUMPDEST DUP1 PUSH1 0x1F ADD PUSH1 0x20 DUP1 SWAP2 DIV MUL PUSH1 0x20 ADD PUSH1 0x40 MLOAD SWAP1 DUP2 ADD PUSH1 0x40 MSTORE DUP1 SWAP3 SWAP2 SWAP1 DUP2 DUP2 MSTORE PUSH1 0x20 ADD DUP3 DUP1 SLOAD PUSH2 0xC4B SWAP1 PUSH2 0x3EC1 JUMP JUMPDEST DUP1 ISZERO PUSH2 0xC96 JUMPI DUP1 PUSH1 0x1F LT PUSH2 0xC6D JUMPI PUSH2 0x100 DUP1 DUP4 SLOAD DIV MUL DUP4 MSTORE SWAP2 PUSH1 0x20 ADD SWAP2 PUSH2 0xC96 JUMP JUMPDEST DUP3 ADD SWAP2 SWAP1 PUSH0 MSTORE PUSH1 0x20 PUSH0 KECCAK256 SWAP1 JUMPDEST DUP2 SLOAD DUP2 MSTORE SWAP1 PUSH1 0x1 ADD SWAP1 PUSH1 0x20 ADD DUP1 DUP4 GT PUSH2 0xC79 JUMPI DUP3 SWAP1 SUB PUSH1 0x1F AND DUP3 ADD SWAP2 JUMPDEST POP POP POP POP POP DUP2 MSTORE PUSH1 0x20 ADD PUSH1 0x3 DUP3 ADD SLOAD DUP2 MSTORE PUSH1 0x20 ADD PUSH1 0x4 DUP3 ADD DUP1 SLOAD PUSH2 0xCB9 SWAP1 PUSH2 0x3EC1 JUMP JUMPDEST DUP1 PUSH1 0x1F ADD PUSH1 0x20 DUP1 SWAP2 DIV MUL PUSH1 0x20 ADD PUSH1 0x40 MLOAD SWAP1 DUP2 ADD PUSH1 0x40 MSTORE DUP1 SWAP3 SWAP2 SWAP1 DUP2 DUP2 MSTORE PUSH1 0x20 ADD DUP3 DUP1 SLOAD PUSH2 0xCE5 SWAP1 PUSH2 0x3EC1 JUMP JUMPDEST DUP1 ISZERO PUSH2 0xD30 JUMPI DUP1 PUSH1 0x1F LT PUSH2 0xD07 JUMPI PUSH2 0x100 DUP1 DUP4 SLOAD DIV MUL DUP4 MSTORE SWAP2 PUSH1 0x20 ADD SWAP2 PUSH2 0xD30 JUMP JUMPDEST DUP3 ADD SWAP2 SWAP1 PUSH0 MSTORE PUSH1 0x20 PUSH0 KECCAK256 SWAP1 JUMPDEST DUP2 SLOAD DUP2 MSTORE SWAP1 PUSH1 0x1 ADD SWAP1 PUSH1 0x20 ADD DUP1 DUP4 GT PUSH2 0xD13 JUMPI DUP3 SWAP1 SUB PUSH1 0x1F AND DUP3 ADD SWAP2 JUMPDEST POP POP POP POP POP DUP2 MSTORE PUSH1 0x20 ADD PUSH1 0x5 DUP3 ADD DUP1 SLOAD PUSH2 0xD49 SWAP1 PUSH2 0x3EC1 JUMP JUMPDEST DUP1 PUSH1 0x1F ADD PUSH1 0x20 DUP1 SWAP2 DIV MUL PUSH1 0x20 ADD PUSH1 0x40 MLOAD SWAP1 DUP2 ADD PUSH1 0x40 MSTORE DUP1 SWAP3 SWAP2 SWAP1 DUP2 DUP2 MSTORE PUSH1 0x20 ADD DUP3 DUP1 SLOAD PUSH2 0xD75 SWAP1 PUSH2 0x3EC1 JUMP JUMPDEST DUP1 ISZERO PUSH2 0xDC0 JUMPI DUP1 PUSH1 0x1F LT PUSH2 0xD97 JUMPI PUSH2 0x100 DUP1 DUP4 SLOAD DIV MUL DUP4 MSTORE SWAP2 PUSH1 0x20 ADD SWAP2 PUSH2 0xDC0 JUMP JUMPDEST DUP3 ADD SWAP2 SWAP1 PUSH0 MSTORE PUSH1 0x20 PUSH0 KECCAK256 SWAP1 JUMPDEST DUP2 SLOAD DUP2 MSTORE SWAP1 PUSH1 0x1 ADD SWAP1 PUSH1 0x20 ADD DUP1 DUP4 GT PUSH2 0xDA3 JUMPI DUP3 SWAP1 SUB PUSH1 0x1F AND DUP3 ADD SWAP2 JUMPDEST POP POP POP POP POP DUP2 MSTORE PUSH1 0x20 ADD PUSH1 0x6 DUP3 ADD DUP1 SLOAD DUP1 PUSH1 0x20 MUL PUSH1 0x20 ADD PUSH1 0x40 MLOAD SWAP1 DUP2 ADD PUSH1 0x40 MSTORE DUP1 SWAP3 SWAP2 SWAP1 DUP2 DUP2 MSTORE PUSH1 0x20 ADD DUP3 DUP1 SLOAD DUP1 ISZERO PUSH2 0xE16 JUMPI PUSH1 0x20 MUL DUP3 ADD SWAP2 SWAP1 PUSH0 MSTORE PUSH1 0x20 PUSH0 KECCAK256 SWAP1 JUMPDEST DUP2 SLOAD DUP2 MSTORE PUSH1 0x20 ADD SWAP1 PUSH1 0x1 ADD SWAP1 DUP1 DUP4 GT PUSH2 0xE02 JUMPI JUMPDEST POP POP POP POP POP DUP2 MSTORE PUSH1 0x20 ADD PUSH1 0x7 DUP3 ADD SLOAD DUP2 MSTORE PUSH1 0x20 ADD PUSH1 0x8 DUP3 ADD DUP1 SLOAD DUP1 PUSH1 0x20 MUL PUSH1 0x20 ADD PUSH1 0x40 MLOAD SWAP1 DUP2 ADD PUSH1 0x40 MSTORE DUP1 SWAP3 SWAP2 SWAP1 DUP2 DUP2 MSTORE PUSH1 0x20 ADD DUP3 DUP1 SLOAD DUP1 ISZERO PUSH2 0xE76 JUMPI PUSH1 0x20 MUL DUP3 ADD SWAP2 SWAP1 PUSH0 MSTORE PUSH1 0x20 PUSH0 KECCAK256 SWAP1 JUMPDEST DUP2 SLOAD DUP2 MSTORE PUSH1 0x20 ADD SWAP1 PUSH1 0x1 ADD SWAP1 DUP1 DUP4 GT PUSH2 0xE62 JUMPI JUMPDEST POP POP POP POP POP DUP2 MSTORE PUSH1 0x20 ADD PUSH1 0x9 DUP3 ADD DUP1 SLOAD PUSH2 0xE8F SWAP1 PUSH2 0x3EC1 JUMP JUMPDEST DUP1 PUSH1 0x1F ADD PUSH1 0x20 DUP1 SWAP2 DIV MUL PUSH1 0x20 ADD PUSH1 0x40 MLOAD SWAP1 DUP2 ADD PUSH1 0x40 MSTORE DUP1 SWAP3 SWAP2 SWAP1 DUP2 DUP2 MSTORE PUSH1 0x20 ADD DUP3 DUP1 SLOAD PUSH2 0xEBB SWAP1 PUSH2 0x3EC1 JUMP JUMPDEST DUP1 ISZERO PUSH2 0xF06 JUMPI DUP1 PUSH1 0x1F LT PUSH2 0xEDD JUMPI PUSH2 0x100 DUP1 DUP4 SLOAD DIV MUL DUP4 MSTORE SWAP2 PUSH1 0x20 ADD SWAP2 PUSH2 0xF06 JUMP JUMPDEST DUP3 ADD SWAP2 SWAP1 PUSH0 MSTORE PUSH1 0x20 PUSH0 KECCAK256 SWAP1 JUMPDEST DUP2 SLOAD DUP2 MSTORE SWAP1 PUSH1 0x1 ADD SWAP1 PUSH1 0x20 ADD DUP1 DUP4 GT PUSH2 0xEE9 JUMPI DUP3 SWAP1 SUB PUSH1 0x1F AND DUP3 ADD SWAP2 JUMPDEST POP POP POP SWAP2 DUP4 MSTORE POP POP PUSH1 0xA DUP3 ADD SLOAD PUSH1 0x1 PUSH1 0x1 PUSH1 0xA0 SHL SUB SWAP1 DUP2 AND PUSH1 0x20 DUP4 ADD MSTORE PUSH1 0xB SWAP1 SWAP3 ADD SLOAD SWAP1 SWAP2 AND PUSH1 0x40 SWAP1 SWAP2 ADD MSTORE DUP2 PUSH2 0xF3E PUSH1 0x1 DUP9 PUSH2 0x4023 JUMP JUMPDEST DUP2 MLOAD DUP2 LT PUSH2 0xF4E JUMPI PUSH2 0xF4E PUSH2 0x4036 JUMP JUMPDEST PUSH1 0x20 SWAP1 DUP2 MUL SWAP2 SWAP1 SWAP2 ADD ADD MSTORE SWAP5 POP JUMPDEST POP PUSH1 0x1 ADD PUSH2 0x9EC JUMP JUMPDEST POP SWAP2 SWAP5 SWAP4 POP POP POP POP JUMP JUMPDEST PUSH0 PUSH2 0xF79 DUP2 PUSH2 0x235A JUMP JUMPDEST PUSH2 0x9A1 PUSH0 DUP1 MLOAD PUSH1 0x20 PUSH2 0x437E DUP4 CODECOPY DUP2 MLOAD SWAP2 MSTORE DUP4 PUSH2 0x2422 JUMP JUMPDEST PUSH0 DUP1 MLOAD PUSH1 0x20 PUSH2 0x435E DUP4 CODECOPY DUP2 MLOAD SWAP2 MSTORE PUSH2 0xFA7 DUP2 PUSH2 0x235A JUMP JUMPDEST PUSH2 0xFAF PUSH2 0x2538 JUMP JUMPDEST POP JUMP JUMPDEST PUSH2 0x9A1 DUP4 DUP4 DUP4 PUSH1 0x40 MLOAD DUP1 PUSH1 0x20 ADD PUSH1 0x40 MSTORE DUP1 PUSH0 DUP2 MSTORE POP PUSH2 0x1EBA JUMP JUMPDEST PUSH2 0x84F PUSH0 DUP3 CALLER PUSH2 0x240E JUMP JUMPDEST PUSH1 0xF PUSH1 0x20 MSTORE PUSH0 SWAP1 DUP2 MSTORE PUSH1 0x40 SWAP1 KECCAK256 DUP1 SLOAD DUP2 SWAP1 PUSH2 0xFF1 SWAP1 PUSH2 0x3EC1 JUMP JUMPDEST DUP1 PUSH1 0x1F ADD PUSH1 0x20 DUP1 SWAP2 DIV MUL PUSH1 0x20 ADD PUSH1 0x40 MLOAD SWAP1 DUP2 ADD PUSH1 0x40 MSTORE DUP1 SWAP3 SWAP2 SWAP1 DUP2 DUP2 MSTORE PUSH1 0x20 ADD DUP3 DUP1 SLOAD PUSH2 0x101D SWAP1 PUSH2 0x3EC1 JUMP JUMPDEST DUP1 ISZERO PUSH2 0x1068 JUMPI DUP1 PUSH1 0x1F LT PUSH2 0x103F JUMPI PUSH2 0x100 DUP1 DUP4 SLOAD DIV MUL DUP4 MSTORE SWAP2 PUSH1 0x20 ADD SWAP2 PUSH2 0x1068 JUMP JUMPDEST DUP3 ADD SWAP2 SWAP1 PUSH0 MSTORE PUSH1 0x20 PUSH0 KECCAK256 SWAP1 JUMPDEST DUP2 SLOAD DUP2 MSTORE SWAP1 PUSH1 0x1 ADD SWAP1 PUSH1 0x20 ADD DUP1 DUP4 GT PUSH2 0x104B JUMPI DUP3 SWAP1 SUB PUSH1 0x1F AND DUP3 ADD SWAP2 JUMPDEST POP POP POP POP POP SWAP1 DUP1 PUSH1 0x1 ADD DUP1 SLOAD PUSH2 0x107D SWAP1 PUSH2 0x3EC1 JUMP JUMPDEST DUP1 PUSH1 0x1F ADD PUSH1 0x20 DUP1 SWAP2 DIV MUL PUSH1 0x20 ADD PUSH1 0x40 MLOAD SWAP1 DUP2 ADD PUSH1 0x40 MSTORE DUP1 SWAP3 SWAP2 SWAP1 DUP2 DUP2 MSTORE PUSH1 0x20 ADD DUP3 DUP1 SLOAD PUSH2 0x10A9 SWAP1 PUSH2 0x3EC1 JUMP JUMPDEST DUP1 ISZERO PUSH2 0x10F4 JUMPI DUP1 PUSH1 0x1F LT PUSH2 0x10CB JUMPI PUSH2 0x100 DUP1 DUP4 SLOAD DIV MUL DUP4 MSTORE SWAP2 PUSH1 0x20 ADD SWAP2 PUSH2 0x10F4 JUMP JUMPDEST DUP3 ADD SWAP2 SWAP1 PUSH0 MSTORE PUSH1 0x20 PUSH0 KECCAK256 SWAP1 JUMPDEST DUP2 SLOAD DUP2 MSTORE SWAP1 PUSH1 0x1 ADD SWAP1 PUSH1 0x20 ADD DUP1 DUP4 GT PUSH2 0x10D7 JUMPI DUP3 SWAP1 SUB PUSH1 0x1F AND DUP3 ADD SWAP2 JUMPDEST POP POP POP POP POP SWAP1 DUP1 PUSH1 0x2 ADD DUP1 SLOAD PUSH2 0x1109 SWAP1 PUSH2 0x3EC1 JUMP JUMPDEST DUP1 PUSH1 0x1F ADD PUSH1 0x20 DUP1 SWAP2 DIV MUL PUSH1 0x20 ADD PUSH1 0x40 MLOAD SWAP1 DUP2 ADD PUSH1 0x40 MSTORE DUP1 SWAP3 SWAP2 SWAP1 DUP2 DUP2 MSTORE PUSH1 0x20 ADD DUP3 DUP1 SLOAD PUSH2 0x1135 SWAP1 PUSH2 0x3EC1 JUMP JUMPDEST DUP1 ISZERO PUSH2 0x1180 JUMPI DUP1 PUSH1 0x1F LT PUSH2 0x1157 JUMPI PUSH2 0x100 DUP1 DUP4 SLOAD DIV MUL DUP4 MSTORE SWAP2 PUSH1 0x20 ADD SWAP2 PUSH2 0x1180 JUMP JUMPDEST DUP3 ADD SWAP2 SWAP1 PUSH0 MSTORE PUSH1 0x20 PUSH0 KECCAK256 SWAP1 JUMPDEST DUP2 SLOAD DUP2 MSTORE SWAP1 PUSH1 0x1 ADD SWAP1 PUSH1 0x20 ADD DUP1 DUP4 GT PUSH2 0x1163 JUMPI DUP3 SWAP1 SUB PUSH1 0x1F AND DUP3 ADD SWAP2 JUMPDEST POP POP POP POP POP SWAP1 DUP1 PUSH1 0x3 ADD SLOAD SWAP1 DUP1 PUSH1 0x4 ADD DUP1 SLOAD PUSH2 0x119B SWAP1 PUSH2 0x3EC1 JUMP JUMPDEST DUP1 PUSH1 0x1F ADD PUSH1 0x20 DUP1 SWAP2 DIV MUL PUSH1 0x20 ADD PUSH1 0x40 MLOAD SWAP1 DUP2 ADD PUSH1 0x40 MSTORE DUP1 SWAP3 SWAP2 SWAP1 DUP2 DUP2 MSTORE PUSH1 0x20 ADD DUP3 DUP1 SLOAD PUSH2 0x11C7 SWAP1 PUSH2 0x3EC1 JUMP JUMPDEST DUP1 ISZERO PUSH2 0x1212 JUMPI DUP1 PUSH1 0x1F LT PUSH2 0x11E9 JUMPI PUSH2 0x100 DUP1 DUP4 SLOAD DIV MUL DUP4 MSTORE SWAP2 PUSH1 0x20 ADD SWAP2 PUSH2 0x1212 JUMP JUMPDEST DUP3 ADD SWAP2 SWAP1 PUSH0 MSTORE PUSH1 0x20 PUSH0 KECCAK256 SWAP1 JUMPDEST DUP2 SLOAD DUP2 MSTORE SWAP1 PUSH1 0x1 ADD SWAP1 PUSH1 0x20 ADD DUP1 DUP4 GT PUSH2 0x11F5 JUMPI DUP3 SWAP1 SUB PUSH1 0x1F AND DUP3 ADD SWAP2 JUMPDEST POP POP POP POP POP SWAP1 DUP1 PUSH1 0x5 ADD DUP1 SLOAD PUSH2 0x1227 SWAP1 PUSH2 0x3EC1 JUMP JUMPDEST DUP1 PUSH1 0x1F ADD PUSH1 0x20 DUP1 SWAP2 DIV MUL PUSH1 0x20 ADD PUSH1 0x40 MLOAD SWAP1 DUP2 ADD PUSH1 0x40 MSTORE DUP1 SWAP3 SWAP2 SWAP1 DUP2 DUP2 MSTORE PUSH1 0x20 ADD DUP3 DUP1 SLOAD PUSH2 0x1253 SWAP1 PUSH2 0x3EC1 JUMP JUMPDEST DUP1 ISZERO PUSH2 0x129E JUMPI DUP1 PUSH1 0x1F LT PUSH2 0x1275 JUMPI PUSH2 0x100 DUP1 DUP4 SLOAD DIV MUL DUP4 MSTORE SWAP2 PUSH1 0x20 ADD SWAP2 PUSH2 0x129E JUMP JUMPDEST DUP3 ADD SWAP2 SWAP1 PUSH0 MSTORE PUSH1 0x20 PUSH0 KECCAK256 SWAP1 JUMPDEST DUP2 SLOAD DUP2 MSTORE SWAP1 PUSH1 0x1 ADD SWAP1 PUSH1 0x20 ADD DUP1 DUP4 GT PUSH2 0x1281 JUMPI DUP3 SWAP1 SUB PUSH1 0x1F AND DUP3 ADD SWAP2 JUMPDEST POP POP POP POP POP SWAP1 DUP1 PUSH1 0x7 ADD SLOAD SWAP1 DUP1 PUSH1 0x9 ADD DUP1 SLOAD PUSH2 0x12B9 SWAP1 PUSH2 0x3EC1 JUMP JUMPDEST DUP1 PUSH1 0x1F ADD PUSH1 0x20 DUP1 SWAP2 DIV MUL PUSH1 0x20 ADD PUSH1 0x40 MLOAD SWAP1 DUP2 ADD PUSH1 0x40 MSTORE DUP1 SWAP3 SWAP2 SWAP1 DUP2 DUP2 MSTORE PUSH1 0x20 ADD DUP3 DUP1 SLOAD PUSH2 0x12E5 SWAP1 PUSH2 0x3EC1 JUMP JUMPDEST DUP1 ISZERO PUSH2 0x1330 JUMPI DUP1 PUSH1 0x1F LT PUSH2 0x1307 JUMPI PUSH2 0x100 DUP1 DUP4 SLOAD DIV MUL DUP4 MSTORE SWAP2 PUSH1 0x20 ADD SWAP2 PUSH2 0x1330 JUMP JUMPDEST DUP3 ADD SWAP2 SWAP1 PUSH0 MSTORE PUSH1 0x20 PUSH0 KECCAK256 SWAP1 JUMPDEST DUP2 SLOAD DUP2 MSTORE SWAP1 PUSH1 0x1 ADD SWAP1 PUSH1 0x20 ADD DUP1 DUP4 GT PUSH2 0x1313 JUMPI DUP3 SWAP1 SUB PUSH1 0x1F AND DUP3 ADD SWAP2 JUMPDEST POP POP POP POP PUSH1 0xA DUP4 ADD SLOAD PUSH1 0xB SWAP1 SWAP4 ADD SLOAD SWAP2 SWAP3 PUSH1 0x1 PUSH1 0x1 PUSH1 0xA0 SHL SUB SWAP1 DUP2 AND SWAP3 AND SWAP1 POP DUP11 JUMP JUMPDEST PUSH0 PUSH2 0x135D PUSH1 0x8 SLOAD SWAP1 JUMP JUMPDEST DUP3 LT PUSH2 0x1385 JUMPI PUSH1 0x40 MLOAD PUSH4 0x295F44F7 PUSH1 0xE2 SHL DUP2 MSTORE PUSH0 PUSH1 0x4 DUP3 ADD MSTORE PUSH1 0x24 DUP2 ADD DUP4 SWAP1 MSTORE PUSH1 0x44 ADD PUSH2 0x7AD JUMP JUMPDEST PUSH1 0x8 DUP3 DUP2 SLOAD DUP2 LT PUSH2 0x1398 JUMPI PUSH2 0x1398 PUSH2 0x4036 JUMP JUMPDEST SWAP1 PUSH0 MSTORE PUSH1 0x20 PUSH0 KECCAK256 ADD SLOAD SWAP1 POP SWAP2 SWAP1 POP JUMP JUMPDEST PUSH0 PUSH2 0x679 DUP3 PUSH2 0x2323 JUMP JUMPDEST PUSH2 0x13BA PUSH2 0x342D JUMP JUMPDEST PUSH0 DUP3 DUP2 MSTORE PUSH1 0x10 PUSH1 0x20 MSTORE PUSH1 0x40 SWAP1 KECCAK256 SLOAD PUSH1 0x1 PUSH1 0x1 PUSH1 0xA0 SHL SUB AND CALLER EQ PUSH2 0x13EF JUMPI PUSH1 0x40 MLOAD PUSH3 0x461BCD PUSH1 0xE5 SHL DUP2 MSTORE PUSH1 0x4 ADD PUSH2 0x7AD SWAP1 PUSH2 0x404A JUMP JUMPDEST PUSH0 DUP3 DUP2 MSTORE PUSH1 0xF PUSH1 0x20 MSTORE PUSH1 0x40 SWAP1 DUP2 SWAP1 KECCAK256 DUP2 MLOAD PUSH2 0x180 DUP2 ADD SWAP1 SWAP3 MSTORE DUP1 SLOAD DUP3 SWAP1 DUP3 SWAP1 PUSH2 0x1417 SWAP1 PUSH2 0x3EC1 JUMP JUMPDEST DUP1 PUSH1 0x1F ADD PUSH1 0x20 DUP1 SWAP2 DIV MUL PUSH1 0x20 ADD PUSH1 0x40 MLOAD SWAP1 DUP2 ADD PUSH1 0x40 MSTORE DUP1 SWAP3 SWAP2 SWAP1 DUP2 DUP2 MSTORE PUSH1 0x20 ADD DUP3 DUP1 SLOAD PUSH2 0x1443 SWAP1 PUSH2 0x3EC1 JUMP JUMPDEST DUP1 ISZERO PUSH2 0x148E JUMPI DUP1 PUSH1 0x1F LT PUSH2 0x1465 JUMPI PUSH2 0x100 DUP1 DUP4 SLOAD DIV MUL DUP4 MSTORE SWAP2 PUSH1 0x20 ADD SWAP2 PUSH2 0x148E JUMP JUMPDEST DUP3 ADD SWAP2 SWAP1 PUSH0 MSTORE PUSH1 0x20 PUSH0 KECCAK256 SWAP1 JUMPDEST DUP2 SLOAD DUP2 MSTORE SWAP1 PUSH1 0x1 ADD SWAP1 PUSH1 0x20 ADD DUP1 DUP4 GT PUSH2 0x1471 JUMPI DUP3 SWAP1 SUB PUSH1 0x1F AND DUP3 ADD SWAP2 JUMPDEST POP POP POP POP POP DUP2 MSTORE PUSH1 0x20 ADD PUSH1 0x1 DUP3 ADD DUP1 SLOAD PUSH2 0x14A7 SWAP1 PUSH2 0x3EC1 JUMP JUMPDEST DUP1 PUSH1 0x1F ADD PUSH1 0x20 DUP1 SWAP2 DIV MUL PUSH1 0x20 ADD PUSH1 0x40 MLOAD SWAP1 DUP2 ADD PUSH1 0x40 MSTORE DUP1 SWAP3 SWAP2 SWAP1 DUP2 DUP2 MSTORE PUSH1 0x20 ADD DUP3 DUP1 SLOAD PUSH2 0x14D3 SWAP1 PUSH2 0x3EC1 JUMP JUMPDEST DUP1 ISZERO PUSH2 0x151E JUMPI DUP1 PUSH1 0x1F LT PUSH2 0x14F5 JUMPI PUSH2 0x100 DUP1 DUP4 SLOAD DIV MUL DUP4 MSTORE SWAP2 PUSH1 0x20 ADD SWAP2 PUSH2 0x151E JUMP JUMPDEST DUP3 ADD SWAP2 SWAP1 PUSH0 MSTORE PUSH1 0x20 PUSH0 KECCAK256 SWAP1 JUMPDEST DUP2 SLOAD DUP2 MSTORE SWAP1 PUSH1 0x1 ADD SWAP1 PUSH1 0x20 ADD DUP1 DUP4 GT PUSH2 0x1501 JUMPI DUP3 SWAP1 SUB PUSH1 0x1F AND DUP3 ADD SWAP2 JUMPDEST POP POP POP POP POP DUP2 MSTORE PUSH1 0x20 ADD PUSH1 0x2 DUP3 ADD DUP1 SLOAD PUSH2 0x1537 SWAP1 PUSH2 0x3EC1 JUMP JUMPDEST DUP1 PUSH1 0x1F ADD PUSH1 0x20 DUP1 SWAP2 DIV MUL PUSH1 0x20 ADD PUSH1 0x40 MLOAD SWAP1 DUP2 ADD PUSH1 0x40 MSTORE DUP1 SWAP3 SWAP2 SWAP1 DUP2 DUP2 MSTORE PUSH1 0x20 ADD DUP3 DUP1 SLOAD PUSH2 0x1563 SWAP1 PUSH2 0x3EC1 JUMP JUMPDEST DUP1 ISZERO PUSH2 0x15AE JUMPI DUP1 PUSH1 0x1F LT PUSH2 0x1585 JUMPI PUSH2 0x100 DUP1 DUP4 SLOAD DIV MUL DUP4 MSTORE SWAP2 PUSH1 0x20 ADD SWAP2 PUSH2 0x15AE JUMP JUMPDEST DUP3 ADD SWAP2 SWAP1 PUSH0 MSTORE PUSH1 0x20 PUSH0 KECCAK256 SWAP1 JUMPDEST DUP2 SLOAD DUP2 MSTORE SWAP1 PUSH1 0x1 ADD SWAP1 PUSH1 0x20 ADD DUP1 DUP4 GT PUSH2 0x1591 JUMPI DUP3 SWAP1 SUB PUSH1 0x1F AND DUP3 ADD SWAP2 JUMPDEST POP POP POP POP POP DUP2 MSTORE PUSH1 0x20 ADD PUSH1 0x3 DUP3 ADD SLOAD DUP2 MSTORE PUSH1 0x20 ADD PUSH1 0x4 DUP3 ADD DUP1 SLOAD PUSH2 0x15D1 SWAP1 PUSH2 0x3EC1 JUMP JUMPDEST DUP1 PUSH1 0x1F ADD PUSH1 0x20 DUP1 SWAP2 DIV MUL PUSH1 0x20 ADD PUSH1 0x40 MLOAD SWAP1 DUP2 ADD PUSH1 0x40 MSTORE DUP1 SWAP3 SWAP2 SWAP1 DUP2 DUP2 MSTORE PUSH1 0x20 ADD DUP3 DUP1 SLOAD PUSH2 0x15FD SWAP1 PUSH2 0x3EC1 JUMP JUMPDEST DUP1 ISZERO PUSH2 0x1648 JUMPI DUP1 PUSH1 0x1F LT PUSH2 0x161F JUMPI PUSH2 0x100 DUP1 DUP4 SLOAD DIV MUL DUP4 MSTORE SWAP2 PUSH1 0x20 ADD SWAP2 PUSH2 0x1648 JUMP JUMPDEST DUP3 ADD SWAP2 SWAP1 PUSH0 MSTORE PUSH1 0x20 PUSH0 KECCAK256 SWAP1 JUMPDEST DUP2 SLOAD DUP2 MSTORE SWAP1 PUSH1 0x1 ADD SWAP1 PUSH1 0x20 ADD DUP1 DUP4 GT PUSH2 0x162B JUMPI DUP3 SWAP1 SUB PUSH1 0x1F AND DUP3 ADD SWAP2 JUMPDEST POP POP POP POP POP DUP2 MSTORE PUSH1 0x20 ADD PUSH1 0x5 DUP3 ADD DUP1 SLOAD PUSH2 0x1661 SWAP1 PUSH2 0x3EC1 JUMP JUMPDEST DUP1 PUSH1 0x1F ADD PUSH1 0x20 DUP1 SWAP2 DIV MUL PUSH1 0x20 ADD PUSH1 0x40 MLOAD SWAP1 DUP2 ADD PUSH1 0x40 MSTORE DUP1 SWAP3 SWAP2 SWAP1 DUP2 DUP2 MSTORE PUSH1 0x20 ADD DUP3 DUP1 SLOAD PUSH2 0x168D SWAP1 PUSH2 0x3EC1 JUMP JUMPDEST DUP1 ISZERO PUSH2 0x16D8 JUMPI DUP1 PUSH1 0x1F LT PUSH2 0x16AF JUMPI PUSH2 0x100 DUP1 DUP4 SLOAD DIV MUL DUP4 MSTORE SWAP2 PUSH1 0x20 ADD SWAP2 PUSH2 0x16D8 JUMP JUMPDEST DUP3 ADD SWAP2 SWAP1 PUSH0 MSTORE PUSH1 0x20 PUSH0 KECCAK256 SWAP1 JUMPDEST DUP2 SLOAD DUP2 MSTORE SWAP1 PUSH1 0x1 ADD SWAP1 PUSH1 0x20 ADD DUP1 DUP4 GT PUSH2 0x16BB JUMPI DUP3 SWAP1 SUB PUSH1 0x1F AND DUP3 ADD SWAP2 JUMPDEST POP POP POP POP POP DUP2 MSTORE PUSH1 0x20 ADD PUSH1 0x6 DUP3 ADD DUP1 SLOAD DUP1 PUSH1 0x20 MUL PUSH1 0x20 ADD PUSH1 0x40 MLOAD SWAP1 DUP2 ADD PUSH1 0x40 MSTORE DUP1 SWAP3 SWAP2 SWAP1 DUP2 DUP2 MSTORE PUSH1 0x20 ADD DUP3 DUP1 SLOAD DUP1 ISZERO PUSH2 0x172E JUMPI PUSH1 0x20 MUL DUP3 ADD SWAP2 SWAP1 PUSH0 MSTORE PUSH1 0x20 PUSH0 KECCAK256 SWAP1 JUMPDEST DUP2 SLOAD DUP2 MSTORE PUSH1 0x20 ADD SWAP1 PUSH1 0x1 ADD SWAP1 DUP1 DUP4 GT PUSH2 0x171A JUMPI JUMPDEST POP POP POP POP POP DUP2 MSTORE PUSH1 0x20 ADD PUSH1 0x7 DUP3 ADD SLOAD DUP2 MSTORE PUSH1 0x20 ADD PUSH1 0x8 DUP3 ADD DUP1 SLOAD DUP1 PUSH1 0x20 MUL PUSH1 0x20 ADD PUSH1 0x40 MLOAD SWAP1 DUP2 ADD PUSH1 0x40 MSTORE DUP1 SWAP3 SWAP2 SWAP1 DUP2 DUP2 MSTORE PUSH1 0x20 ADD DUP3 DUP1 SLOAD DUP1 ISZERO PUSH2 0x178E JUMPI PUSH1 0x20 MUL DUP3 ADD SWAP2 SWAP1 PUSH0 MSTORE PUSH1 0x20 PUSH0 KECCAK256 SWAP1 JUMPDEST DUP2 SLOAD DUP2 MSTORE PUSH1 0x20 ADD SWAP1 PUSH1 0x1 ADD SWAP1 DUP1 DUP4 GT PUSH2 0x177A JUMPI JUMPDEST POP POP POP POP POP DUP2 MSTORE PUSH1 0x20 ADD PUSH1 0x9 DUP3 ADD DUP1 SLOAD PUSH2 0x17A7 SWAP1 PUSH2 0x3EC1 JUMP JUMPDEST DUP1 PUSH1 0x1F ADD PUSH1 0x20 DUP1 SWAP2 DIV MUL PUSH1 0x20 ADD PUSH1 0x40 MLOAD SWAP1 DUP2 ADD PUSH1 0x40 MSTORE DUP1 SWAP3 SWAP2 SWAP1 DUP2 DUP2 MSTORE PUSH1 0x20 ADD DUP3 DUP1 SLOAD PUSH2 0x17D3 SWAP1 PUSH2 0x3EC1 JUMP JUMPDEST DUP1 ISZERO PUSH2 0x181E JUMPI DUP1 PUSH1 0x1F LT PUSH2 0x17F5 JUMPI PUSH2 0x100 DUP1 DUP4 SLOAD DIV MUL DUP4 MSTORE SWAP2 PUSH1 0x20 ADD SWAP2 PUSH2 0x181E JUMP JUMPDEST DUP3 ADD SWAP2 SWAP1 PUSH0 MSTORE PUSH1 0x20 PUSH0 KECCAK256 SWAP1 JUMPDEST DUP2 SLOAD DUP2 MSTORE SWAP1 PUSH1 0x1 ADD SWAP1 PUSH1 0x20 ADD DUP1 DUP4 GT PUSH2 0x1801 JUMPI DUP3 SWAP1 SUB PUSH1 0x1F AND DUP3 ADD SWAP2 JUMPDEST POP POP POP SWAP2 DUP4 MSTORE POP POP PUSH1 0xA DUP3 ADD SLOAD PUSH1 0x1 PUSH1 0x1 PUSH1 0xA0 SHL SUB SWAP1 DUP2 AND PUSH1 0x20 DUP4 ADD MSTORE PUSH1 0xB SWAP1 SWAP3 ADD SLOAD SWAP1 SWAP2 AND PUSH1 0x40 SWAP1 SWAP2 ADD MSTORE SWAP3 SWAP2 POP POP JUMP JUMPDEST PUSH0 PUSH2 0x185A DUP2 PUSH2 0x235A JUMP JUMPDEST PUSH2 0x9A1 PUSH0 DUP1 MLOAD PUSH1 0x20 PUSH2 0x437E DUP4 CODECOPY DUP2 MLOAD SWAP2 MSTORE DUP4 PUSH2 0x24B3 JUMP JUMPDEST PUSH0 PUSH2 0x187B DUP2 PUSH2 0x235A JUMP JUMPDEST PUSH2 0x9A1 PUSH0 DUP1 MLOAD PUSH1 0x20 PUSH2 0x435E DUP4 CODECOPY DUP2 MLOAD SWAP2 MSTORE DUP4 PUSH2 0x2422 JUMP JUMPDEST PUSH0 PUSH1 0x1 PUSH1 0x1 PUSH1 0xA0 SHL SUB DUP3 AND PUSH2 0x18BC JUMPI PUSH1 0x40 MLOAD PUSH4 0x22718AD9 PUSH1 0xE2 SHL DUP2 MSTORE PUSH0 PUSH1 0x4 DUP3 ADD MSTORE PUSH1 0x24 ADD PUSH2 0x7AD JUMP JUMPDEST POP PUSH1 0x1 PUSH1 0x1 PUSH1 0xA0 SHL SUB AND PUSH0 SWAP1 DUP2 MSTORE PUSH1 0x3 PUSH1 0x20 MSTORE PUSH1 0x40 SWAP1 KECCAK256 SLOAD SWAP1 JUMP JUMPDEST PUSH1 0xE PUSH1 0x20 MSTORE DUP2 PUSH0 MSTORE PUSH1 0x40 PUSH0 KECCAK256 DUP2 DUP2 SLOAD DUP2 LT PUSH2 0x18F0 JUMPI PUSH0 DUP1 REVERT JUMPDEST SWAP1 PUSH0 MSTORE PUSH1 0x20 PUSH0 KECCAK256 ADD PUSH0 SWAP2 POP SWAP2 POP POP DUP1 SLOAD PUSH2 0x1909 SWAP1 PUSH2 0x3EC1 JUMP JUMPDEST DUP1 PUSH1 0x1F ADD PUSH1 0x20 DUP1 SWAP2 DIV MUL PUSH1 0x20 ADD PUSH1 0x40 MLOAD SWAP1 DUP2 ADD PUSH1 0x40 MSTORE DUP1 SWAP3 SWAP2 SWAP1 DUP2 DUP2 MSTORE PUSH1 0x20 ADD DUP3 DUP1 SLOAD PUSH2 0x1935 SWAP1 PUSH2 0x3EC1 JUMP JUMPDEST DUP1 ISZERO PUSH2 0x1980 JUMPI DUP1 PUSH1 0x1F LT PUSH2 0x1957 JUMPI PUSH2 0x100 DUP1 DUP4 SLOAD DIV MUL DUP4 MSTORE SWAP2 PUSH1 0x20 ADD SWAP2 PUSH2 0x1980 JUMP JUMPDEST DUP3 ADD SWAP2 SWAP1 PUSH0 MSTORE PUSH1 0x20 PUSH0 KECCAK256 SWAP1 JUMPDEST DUP2 SLOAD DUP2 MSTORE SWAP1 PUSH1 0x1 ADD SWAP1 PUSH1 0x20 ADD DUP1 DUP4 GT PUSH2 0x1963 JUMPI DUP3 SWAP1 SUB PUSH1 0x1F AND DUP3 ADD SWAP2 JUMPDEST POP POP POP POP POP DUP2 JUMP JUMPDEST PUSH0 DUP1 MLOAD PUSH1 0x20 PUSH2 0x437E DUP4 CODECOPY DUP2 MLOAD SWAP2 MSTORE PUSH2 0x199F DUP2 PUSH2 0x235A JUMP JUMPDEST PUSH1 0xD DUP1 SLOAD PUSH0 SWAP2 DUP3 PUSH2 0x19AF DUP4 PUSH2 0x400B JUMP JUMPDEST SWAP2 SWAP1 POP SSTORE SWAP1 POP PUSH2 0x19BF DUP14 DUP3 PUSH2 0x258A JUMP JUMPDEST PUSH2 0x19C9 DUP2 DUP14 PUSH2 0x25A3 JUMP JUMPDEST PUSH1 0x40 MLOAD DUP1 PUSH2 0x180 ADD PUSH1 0x40 MSTORE DUP1 DUP13 DUP2 MSTORE PUSH1 0x20 ADD DUP12 DUP2 MSTORE PUSH1 0x20 ADD DUP11 DUP2 MSTORE PUSH1 0x20 ADD DUP10 DUP2 MSTORE PUSH1 0x20 ADD DUP8 DUP2 MSTORE PUSH1 0x20 ADD DUP7 DUP2 MSTORE PUSH1 0x20 ADD DUP6 DUP2 MSTORE PUSH1 0x20 ADD DUP9 DUP2 MSTORE PUSH1 0x20 ADD DUP5 DUP2 MSTORE PUSH1 0x20 ADD PUSH1 0x40 MLOAD DUP1 PUSH1 0x40 ADD PUSH1 0x40 MSTORE DUP1 PUSH1 0x6 DUP2 MSTORE PUSH1 0x20 ADD PUSH6 0x4C4956494E47 PUSH1 0xD0 SHL DUP2 MSTORE POP DUP2 MSTORE PUSH1 0x20 ADD DUP15 PUSH1 0x1 PUSH1 0x1 PUSH1 0xA0 SHL SUB AND DUP2 MSTORE PUSH1 0x20 ADD PUSH0 PUSH1 0x1 PUSH1 0x1 PUSH1 0xA0 SHL SUB AND DUP2 MSTORE POP PUSH1 0xF PUSH0 DUP4 DUP2 MSTORE PUSH1 0x20 ADD SWAP1 DUP2 MSTORE PUSH1 0x20 ADD PUSH0 KECCAK256 PUSH0 DUP3 ADD MLOAD DUP2 PUSH0 ADD SWAP1 DUP2 PUSH2 0x1A6F SWAP2 SWAP1 PUSH2 0x3F3D JUMP JUMPDEST POP PUSH1 0x20 DUP3 ADD MLOAD PUSH1 0x1 DUP3 ADD SWAP1 PUSH2 0x1A84 SWAP1 DUP3 PUSH2 0x3F3D JUMP JUMPDEST POP PUSH1 0x40 DUP3 ADD MLOAD PUSH1 0x2 DUP3 ADD SWAP1 PUSH2 0x1A99 SWAP1 DUP3 PUSH2 0x3F3D JUMP JUMPDEST POP PUSH1 0x60 DUP3 ADD MLOAD PUSH1 0x3 DUP3 ADD SSTORE PUSH1 0x80 DUP3 ADD MLOAD PUSH1 0x4 DUP3 ADD SWAP1 PUSH2 0x1AB8 SWAP1 DUP3 PUSH2 0x3F3D JUMP JUMPDEST POP PUSH1 0xA0 DUP3 ADD MLOAD PUSH1 0x5 DUP3 ADD SWAP1 PUSH2 0x1ACD SWAP1 DUP3 PUSH2 0x3F3D JUMP JUMPDEST POP PUSH1 0xC0 DUP3 ADD MLOAD DUP1 MLOAD PUSH2 0x1AE9 SWAP2 PUSH1 0x6 DUP5 ADD SWAP2 PUSH1 0x20 SWAP1 SWAP2 ADD SWAP1 PUSH2 0x349C JUMP JUMPDEST POP PUSH1 0xE0 DUP3 ADD MLOAD PUSH1 0x7 DUP3 ADD SSTORE PUSH2 0x100 DUP3 ADD MLOAD DUP1 MLOAD PUSH2 0x1B10 SWAP2 PUSH1 0x8 DUP5 ADD SWAP2 PUSH1 0x20 SWAP1 SWAP2 ADD SWAP1 PUSH2 0x349C JUMP JUMPDEST POP PUSH2 0x120 DUP3 ADD MLOAD PUSH1 0x9 DUP3 ADD SWAP1 PUSH2 0x1B26 SWAP1 DUP3 PUSH2 0x3F3D JUMP JUMPDEST POP PUSH2 0x140 DUP3 ADD MLOAD DUP2 PUSH1 0xA ADD PUSH0 PUSH2 0x100 EXP DUP2 SLOAD DUP2 PUSH1 0x1 PUSH1 0x1 PUSH1 0xA0 SHL SUB MUL NOT AND SWAP1 DUP4 PUSH1 0x1 PUSH1 0x1 PUSH1 0xA0 SHL SUB AND MUL OR SWAP1 SSTORE POP PUSH2 0x160 DUP3 ADD MLOAD DUP2 PUSH1 0xB ADD PUSH0 PUSH2 0x100 EXP DUP2 SLOAD DUP2 PUSH1 0x1 PUSH1 0x1 PUSH1 0xA0 SHL SUB MUL NOT AND SWAP1 DUP4 PUSH1 0x1 PUSH1 0x1 PUSH1 0xA0 SHL SUB AND MUL OR SWAP1 SSTORE POP SWAP1 POP POP DUP13 PUSH1 0x10 PUSH0 DUP4 DUP2 MSTORE PUSH1 0x20 ADD SWAP1 DUP2 MSTORE PUSH1 0x20 ADD PUSH0 KECCAK256 PUSH0 PUSH2 0x100 EXP DUP2 SLOAD DUP2 PUSH1 0x1 PUSH1 0x1 PUSH1 0xA0 SHL SUB MUL NOT AND SWAP1 DUP4 PUSH1 0x1 PUSH1 0x1 PUSH1 0xA0 SHL SUB AND MUL OR SWAP1 SSTORE POP PUSH2 0x1C03 DUP2 PUSH1 0x40 MLOAD DUP1 PUSH1 0x40 ADD PUSH1 0x40 MSTORE DUP1 PUSH1 0x4 DUP2 MSTORE PUSH1 0x20 ADD PUSH4 0x13525395 PUSH1 0xE2 SHL DUP2 MSTORE POP PUSH1 0x40 MLOAD DUP1 PUSH1 0x40 ADD PUSH1 0x40 MSTORE DUP1 PUSH1 0xA DUP2 MSTORE PUSH1 0x20 ADD PUSH10 0x14195D081B5A5B9D1959 PUSH1 0xB2 SHL DUP2 MSTORE POP TIMESTAMP PUSH2 0x2364 JUMP JUMPDEST PUSH32 0xBAB4E411C1DC0DEBD826AC8280B272DE04D65152AD2D55B4C8397FEBBD0D1488 DUP2 DUP13 DUP16 PUSH1 0x40 MLOAD PUSH2 0x1C36 SWAP4 SWAP3 SWAP2 SWAP1 PUSH2 0x408B JUMP JUMPDEST PUSH1 0x40 MLOAD DUP1 SWAP2 SUB SWAP1 LOG1 POP POP POP POP POP POP POP POP POP POP POP POP POP JUMP JUMPDEST PUSH0 DUP1 MLOAD PUSH1 0x20 PUSH2 0x435E DUP4 CODECOPY DUP2 MLOAD SWAP2 MSTORE PUSH2 0x1C64 DUP2 PUSH2 0x235A JUMP JUMPDEST PUSH2 0xFAF PUSH2 0x25F2 JUMP JUMPDEST PUSH0 PUSH2 0x1C76 DUP2 PUSH2 0x235A JUMP JUMPDEST PUSH0 PUSH2 0x1C80 DUP4 PUSH2 0x251E JUMP JUMPDEST PUSH1 0x1 PUSH1 0x1 PUSH1 0xA0 SHL SUB AND SUB PUSH2 0x1CA6 JUMPI PUSH1 0x40 MLOAD PUSH3 0x461BCD PUSH1 0xE5 SHL DUP2 MSTORE PUSH1 0x4 ADD PUSH2 0x7AD SWAP1 PUSH2 0x40BB JUMP JUMPDEST PUSH0 DUP3 DUP2 MSTORE PUSH1 0x10 PUSH1 0x20 SWAP1 DUP2 MSTORE PUSH1 0x40 DUP1 DUP4 KECCAK256 DUP1 SLOAD PUSH1 0x1 PUSH1 0x1 PUSH1 0xA0 SHL SUB NOT DUP2 AND SWAP1 SWAP2 SSTORE PUSH1 0xE SWAP1 SWAP3 MSTORE DUP3 KECCAK256 PUSH1 0x1 PUSH1 0x1 PUSH1 0xA0 SHL SUB SWAP1 SWAP2 AND SWAP2 PUSH2 0x1CE3 SWAP2 SWAP1 PUSH2 0x34E5 JUMP JUMPDEST PUSH2 0x1CEC DUP4 PUSH2 0x262F JUMP JUMPDEST PUSH1 0x40 DUP1 MLOAD DUP5 DUP2 MSTORE PUSH1 0x1 PUSH1 0x1 PUSH1 0xA0 SHL SUB DUP4 AND PUSH1 0x20 DUP3 ADD MSTORE PUSH32 0x25F50C25148E481CB3A859A9BDFBD7129AE346628A997DBD848447D5AF07EF18 SWAP2 ADD PUSH1 0x40 MLOAD DUP1 SWAP2 SUB SWAP1 LOG1 POP POP POP JUMP JUMPDEST PUSH0 SWAP2 DUP3 MSTORE PUSH1 0xC PUSH1 0x20 SWAP1 DUP2 MSTORE PUSH1 0x40 DUP1 DUP5 KECCAK256 PUSH1 0x1 PUSH1 0x1 PUSH1 0xA0 SHL SUB SWAP4 SWAP1 SWAP4 AND DUP5 MSTORE SWAP2 SWAP1 MSTORE SWAP1 KECCAK256 SLOAD PUSH1 0xFF AND SWAP1 JUMP JUMPDEST PUSH1 0x60 PUSH1 0x1 DUP1 SLOAD PUSH2 0x68D SWAP1 PUSH2 0x3EC1 JUMP JUMPDEST PUSH2 0x84F CALLER DUP4 DUP4 PUSH2 0x2667 JUMP JUMPDEST PUSH0 DUP2 DUP2 MSTORE PUSH1 0xF PUSH1 0x20 MSTORE PUSH1 0x40 SWAP1 KECCAK256 PUSH1 0xA ADD SLOAD PUSH1 0x60 SWAP1 PUSH1 0x1 PUSH1 0x1 PUSH1 0xA0 SHL SUB AND PUSH2 0x1DDF JUMPI PUSH1 0x40 MLOAD PUSH3 0x461BCD PUSH1 0xE5 SHL DUP2 MSTORE PUSH1 0x20 PUSH1 0x4 DUP3 ADD MSTORE PUSH1 0x1B PUSH1 0x24 DUP3 ADD MSTORE PUSH32 0x70657420686173206E6F74206265656E206D696E746564207965740000000000 PUSH1 0x44 DUP3 ADD MSTORE PUSH1 0x64 ADD PUSH2 0x7AD JUMP JUMPDEST PUSH0 DUP3 DUP2 MSTORE PUSH1 0xE PUSH1 0x20 SWAP1 DUP2 MSTORE PUSH1 0x40 DUP1 DUP4 KECCAK256 DUP1 SLOAD DUP3 MLOAD DUP2 DUP6 MUL DUP2 ADD DUP6 ADD SWAP1 SWAP4 MSTORE DUP1 DUP4 MSTORE SWAP2 SWAP4 SWAP1 SWAP3 DUP5 ADD JUMPDEST DUP3 DUP3 LT ISZERO PUSH2 0x1EAF JUMPI DUP4 DUP3 SWAP1 PUSH0 MSTORE PUSH1 0x20 PUSH0 KECCAK256 ADD DUP1 SLOAD PUSH2 0x1E24 SWAP1 PUSH2 0x3EC1 JUMP JUMPDEST DUP1 PUSH1 0x1F ADD PUSH1 0x20 DUP1 SWAP2 DIV MUL PUSH1 0x20 ADD PUSH1 0x40 MLOAD SWAP1 DUP2 ADD PUSH1 0x40 MSTORE DUP1 SWAP3 SWAP2 SWAP1 DUP2 DUP2 MSTORE PUSH1 0x20 ADD DUP3 DUP1 SLOAD PUSH2 0x1E50 SWAP1 PUSH2 0x3EC1 JUMP JUMPDEST DUP1 ISZERO PUSH2 0x1E9B JUMPI DUP1 PUSH1 0x1F LT PUSH2 0x1E72 JUMPI PUSH2 0x100 DUP1 DUP4 SLOAD DIV MUL DUP4 MSTORE SWAP2 PUSH1 0x20 ADD SWAP2 PUSH2 0x1E9B JUMP JUMPDEST DUP3 ADD SWAP2 SWAP1 PUSH0 MSTORE PUSH1 0x20 PUSH0 KECCAK256 SWAP1 JUMPDEST DUP2 SLOAD DUP2 MSTORE SWAP1 PUSH1 0x1 ADD SWAP1 PUSH1 0x20 ADD DUP1 DUP4 GT PUSH2 0x1E7E JUMPI DUP3 SWAP1 SUB PUSH1 0x1F AND DUP3 ADD SWAP2 JUMPDEST POP POP POP POP POP DUP2 MSTORE PUSH1 0x20 ADD SWAP1 PUSH1 0x1 ADD SWAP1 PUSH2 0x1E07 JUMP JUMPDEST POP POP POP POP SWAP1 POP SWAP2 SWAP1 POP JUMP JUMPDEST PUSH2 0x1EC5 DUP5 DUP5 DUP5 PUSH2 0x85E JUMP JUMPDEST PUSH2 0x8E1 CALLER DUP6 DUP6 DUP6 DUP6 PUSH2 0x2705 JUMP JUMPDEST PUSH1 0x60 PUSH2 0x679 DUP3 PUSH2 0x282D JUMP JUMPDEST PUSH0 DUP3 DUP2 MSTORE PUSH1 0xC PUSH1 0x20 MSTORE PUSH1 0x40 SWAP1 KECCAK256 PUSH1 0x1 ADD SLOAD PUSH2 0x1EF7 DUP2 PUSH2 0x235A JUMP JUMPDEST PUSH2 0x8E1 DUP4 DUP4 PUSH2 0x24B3 JUMP JUMPDEST PUSH0 PUSH2 0x1F0B DUP2 PUSH2 0x235A JUMP JUMPDEST PUSH0 DUP3 DUP2 MSTORE PUSH1 0xF PUSH1 0x20 SWAP1 DUP2 MSTORE PUSH1 0x40 SWAP2 DUP3 SWAP1 KECCAK256 PUSH1 0xB ADD DUP1 SLOAD PUSH1 0x1 PUSH1 0x1 PUSH1 0xA0 SHL SUB NOT AND SWAP1 SSTORE DUP2 MLOAD DUP1 DUP4 ADD DUP4 MSTORE PUSH1 0xE DUP2 MSTORE PUSH14 0x15915517D5539054D4D251D39151 PUSH1 0x92 SHL DUP2 DUP4 ADD MSTORE DUP3 MLOAD DUP1 DUP5 ADD SWAP1 SWAP4 MSTORE PUSH1 0x15 DUP4 MSTORE PUSH21 0x15995D195C9A5B985C9E481D5B985CDCDA59DB9959 PUSH1 0x5A SHL SWAP2 DUP4 ADD SWAP2 SWAP1 SWAP2 MSTORE PUSH2 0x84F SWAP2 DUP5 SWAP2 SWAP1 TIMESTAMP PUSH2 0x2364 JUMP JUMPDEST PUSH1 0x1 PUSH1 0x1 PUSH1 0xA0 SHL SUB SWAP2 DUP3 AND PUSH0 SWAP1 DUP2 MSTORE PUSH1 0x5 PUSH1 0x20 SWAP1 DUP2 MSTORE PUSH1 0x40 DUP1 DUP4 KECCAK256 SWAP4 SWAP1 SWAP5 AND DUP3 MSTORE SWAP2 SWAP1 SWAP2 MSTORE KECCAK256 SLOAD PUSH1 0xFF AND SWAP1 JUMP JUMPDEST CALLER PUSH2 0x1FBE DUP4 PUSH2 0x251E JUMP JUMPDEST PUSH1 0x1 PUSH1 0x1 PUSH1 0xA0 SHL SUB AND EQ PUSH2 0x1FE4 JUMPI PUSH1 0x40 MLOAD PUSH3 0x461BCD PUSH1 0xE5 SHL DUP2 MSTORE PUSH1 0x4 ADD PUSH2 0x7AD SWAP1 PUSH2 0x404A JUMP JUMPDEST PUSH0 PUSH2 0x1FEE DUP4 PUSH2 0x251E JUMP JUMPDEST SWAP1 POP PUSH2 0x1FFB CALLER DUP4 DUP6 PUSH2 0x85E JUMP JUMPDEST PUSH2 0x204E DUP4 PUSH1 0x40 MLOAD DUP1 PUSH1 0x40 ADD PUSH1 0x40 MSTORE DUP1 PUSH1 0x8 DUP2 MSTORE PUSH1 0x20 ADD PUSH8 0x2A2920A729A322A9 PUSH1 0xC1 SHL DUP2 MSTORE POP PUSH2 0x2029 DUP6 PUSH2 0x2930 JUMP JUMPDEST PUSH1 0x40 MLOAD PUSH1 0x20 ADD PUSH2 0x2039 SWAP2 SWAP1 PUSH2 0x40FE JUMP JUMPDEST PUSH1 0x40 MLOAD PUSH1 0x20 DUP2 DUP4 SUB SUB DUP2 MSTORE SWAP1 PUSH1 0x40 MSTORE TIMESTAMP PUSH2 0x2364 JUMP JUMPDEST DUP2 PUSH1 0x1 PUSH1 0x1 PUSH1 0xA0 SHL SUB AND DUP2 PUSH1 0x1 PUSH1 0x1 PUSH1 0xA0 SHL SUB AND DUP5 PUSH32 0xEC966F1F123F894C9A734212C909CE0B3CE805CC4098502797B949C65CA65E78 PUSH1 0x40 MLOAD PUSH1 0x40 MLOAD DUP1 SWAP2 SUB SWAP1 LOG4 POP POP POP JUMP JUMPDEST PUSH0 PUSH2 0x209E DUP2 PUSH2 0x235A JUMP JUMPDEST PUSH2 0x9A1 PUSH0 DUP1 MLOAD PUSH1 0x20 PUSH2 0x435E DUP4 CODECOPY DUP2 MLOAD SWAP2 MSTORE DUP4 PUSH2 0x24B3 JUMP JUMPDEST PUSH1 0x60 PUSH0 PUSH2 0x20C1 DUP4 PUSH2 0x251E JUMP JUMPDEST PUSH1 0x1 PUSH1 0x1 PUSH1 0xA0 SHL SUB AND SUB PUSH2 0x20E7 JUMPI PUSH1 0x40 MLOAD PUSH3 0x461BCD PUSH1 0xE5 SHL DUP2 MSTORE PUSH1 0x4 ADD PUSH2 0x7AD SWAP1 PUSH2 0x40BB JUMP JUMPDEST PUSH0 DUP3 DUP2 MSTORE PUSH1 0x10 PUSH1 0x20 MSTORE PUSH1 0x40 SWAP1 KECCAK256 SLOAD PUSH1 0x1 PUSH1 0x1 PUSH1 0xA0 SHL SUB AND CALLER EQ PUSH2 0x211C JUMPI PUSH1 0x40 MLOAD PUSH3 0x461BCD PUSH1 0xE5 SHL DUP2 MSTORE PUSH1 0x4 ADD PUSH2 0x7AD SWAP1 PUSH2 0x404A JUMP JUMPDEST PUSH0 DUP3 DUP2 MSTORE PUSH1 0xF PUSH1 0x20 SWAP1 DUP2 MSTORE PUSH1 0x40 SWAP2 DUP3 SWAP1 KECCAK256 PUSH1 0x6 ADD DUP1 SLOAD DUP4 MLOAD DUP2 DUP5 MUL DUP2 ADD DUP5 ADD SWAP1 SWAP5 MSTORE DUP1 DUP5 MSTORE SWAP1 SWAP2 DUP4 ADD DUP3 DUP3 DUP1 ISZERO PUSH2 0x2170 JUMPI PUSH1 0x20 MUL DUP3 ADD SWAP2 SWAP1 PUSH0 MSTORE PUSH1 0x20 PUSH0 KECCAK256 SWAP1 JUMPDEST DUP2 SLOAD DUP2 MSTORE PUSH1 0x20 ADD SWAP1 PUSH1 0x1 ADD SWAP1 DUP1 DUP4 GT PUSH2 0x215C JUMPI JUMPDEST POP POP POP POP POP SWAP1 POP SWAP2 SWAP1 POP JUMP JUMPDEST PUSH0 PUSH2 0x2186 DUP2 PUSH2 0x235A JUMP JUMPDEST PUSH0 PUSH2 0x2190 DUP13 PUSH2 0x251E JUMP JUMPDEST PUSH1 0x1 PUSH1 0x1 PUSH1 0xA0 SHL SUB AND SUB PUSH2 0x21B6 JUMPI PUSH1 0x40 MLOAD PUSH3 0x461BCD PUSH1 0xE5 SHL DUP2 MSTORE PUSH1 0x4 ADD PUSH2 0x7AD SWAP1 PUSH2 0x40BB JUMP JUMPDEST PUSH0 DUP12 DUP2 MSTORE PUSH1 0xF PUSH1 0x20 MSTORE PUSH1 0x40 SWAP1 KECCAK256 PUSH2 0x21CD DUP12 DUP3 PUSH2 0x3F3D JUMP JUMPDEST POP PUSH0 DUP12 DUP2 MSTORE PUSH1 0xF PUSH1 0x20 MSTORE PUSH1 0x40 SWAP1 KECCAK256 PUSH1 0x1 ADD PUSH2 0x21E8 DUP11 DUP3 PUSH2 0x3F3D JUMP JUMPDEST POP PUSH0 DUP12 DUP2 MSTORE PUSH1 0xF PUSH1 0x20 MSTORE PUSH1 0x40 SWAP1 KECCAK256 PUSH1 0x2 ADD PUSH2 0x2203 DUP10 DUP3 PUSH2 0x3F3D JUMP JUMPDEST POP PUSH0 DUP12 DUP2 MSTORE PUSH1 0xF PUSH1 0x20 MSTORE PUSH1 0x40 SWAP1 KECCAK256 PUSH1 0x3 DUP2 ADD DUP7 SWAP1 SSTORE PUSH1 0x4 ADD PUSH2 0x2225 DUP9 DUP3 PUSH2 0x3F3D JUMP JUMPDEST POP PUSH0 DUP12 DUP2 MSTORE PUSH1 0xF PUSH1 0x20 MSTORE PUSH1 0x40 SWAP1 KECCAK256 PUSH1 0x5 ADD PUSH2 0x2240 DUP8 DUP3 PUSH2 0x3F3D JUMP JUMPDEST POP PUSH2 0x224C PUSH1 0x64 DUP6 PUSH2 0x4139 JUMP JUMPDEST PUSH0 DUP13 DUP2 MSTORE PUSH1 0xF PUSH1 0x20 SWAP1 DUP2 MSTORE PUSH1 0x40 SWAP1 SWAP2 KECCAK256 PUSH1 0x7 DUP2 ADD SWAP3 SWAP1 SWAP3 SSTORE DUP5 MLOAD PUSH2 0x2276 SWAP3 PUSH1 0x6 ADD SWAP2 DUP7 ADD SWAP1 PUSH2 0x349C JUMP JUMPDEST POP PUSH0 DUP12 DUP2 MSTORE PUSH1 0xF PUSH1 0x20 SWAP1 DUP2 MSTORE PUSH1 0x40 SWAP1 SWAP2 KECCAK256 DUP4 MLOAD PUSH2 0x229B SWAP3 PUSH1 0x8 SWAP1 SWAP3 ADD SWAP2 DUP6 ADD SWAP1 PUSH2 0x349C JUMP JUMPDEST POP PUSH2 0x22F2 DUP12 PUSH1 0x40 MLOAD DUP1 PUSH1 0x40 ADD PUSH1 0x40 MSTORE DUP1 PUSH1 0xA DUP2 MSTORE PUSH1 0x20 ADD PUSH10 0x15541110551157D41155 PUSH1 0xB2 SHL DUP2 MSTORE POP PUSH1 0x40 MLOAD DUP1 PUSH1 0x40 ADD PUSH1 0x40 MSTORE DUP1 PUSH1 0x10 DUP2 MSTORE PUSH1 0x20 ADD PUSH16 0x14195D081A5B999BC81D5C19185D1959 PUSH1 0x82 SHL DUP2 MSTORE POP TIMESTAMP PUSH2 0x2364 JUMP JUMPDEST POP POP POP POP POP POP POP POP POP POP POP JUMP JUMPDEST PUSH0 PUSH1 0x1 PUSH1 0x1 PUSH1 0xE0 SHL SUB NOT DUP3 AND PUSH4 0x7965DB0B PUSH1 0xE0 SHL EQ DUP1 PUSH2 0x679 JUMPI POP PUSH2 0x679 DUP3 PUSH2 0x2AC1 JUMP JUMPDEST PUSH0 DUP1 PUSH2 0x232E DUP4 PUSH2 0x251E JUMP JUMPDEST SWAP1 POP PUSH1 0x1 PUSH1 0x1 PUSH1 0xA0 SHL SUB DUP2 AND PUSH2 0x679 JUMPI PUSH1 0x40 MLOAD PUSH4 0x7E273289 PUSH1 0xE0 SHL DUP2 MSTORE PUSH1 0x4 DUP2 ADD DUP5 SWAP1 MSTORE PUSH1 0x24 ADD PUSH2 0x7AD JUMP JUMPDEST PUSH2 0xFAF DUP2 CALLER PUSH2 0x2AE5 JUMP JUMPDEST PUSH0 DUP5 DUP2 MSTORE PUSH1 0xE PUSH1 0x20 MSTORE PUSH1 0x40 SWAP1 KECCAK256 DUP4 DUP4 PUSH2 0x237C DUP5 PUSH2 0x2B1E JUMP JUMPDEST PUSH1 0x40 MLOAD PUSH1 0x20 ADD PUSH2 0x238E SWAP4 SWAP3 SWAP2 SWAP1 PUSH2 0x414C JUMP JUMPDEST PUSH1 0x40 DUP1 MLOAD PUSH1 0x1F NOT DUP2 DUP5 SUB ADD DUP2 MSTORE SWAP2 SWAP1 MSTORE DUP2 SLOAD PUSH1 0x1 DUP2 ADD DUP4 SSTORE PUSH0 SWAP3 DUP4 MSTORE PUSH1 0x20 SWAP1 SWAP3 KECCAK256 SWAP1 SWAP2 ADD SWAP1 PUSH2 0x23BD SWAP1 DUP3 PUSH2 0x3F3D JUMP JUMPDEST POP PUSH32 0x6AF170517272E60D652F4EBEB8064E501A5FA522A2B3346D6363F270AACD955 DUP5 DUP5 DUP5 DUP5 PUSH1 0x40 MLOAD PUSH2 0x23F3 SWAP5 SWAP4 SWAP3 SWAP2 SWAP1 PUSH2 0x4181 JUMP JUMPDEST PUSH1 0x40 MLOAD DUP1 SWAP2 SUB SWAP1 LOG1 POP POP POP POP JUMP JUMPDEST PUSH2 0x9A1 DUP4 DUP4 DUP4 PUSH1 0x1 PUSH2 0x2C1A JUMP JUMPDEST PUSH0 PUSH2 0x241A DUP5 DUP5 DUP5 PUSH2 0x2D1E JUMP JUMPDEST SWAP5 SWAP4 POP POP POP POP JUMP JUMPDEST PUSH0 PUSH2 0x242D DUP4 DUP4 PUSH2 0x1D32 JUMP JUMPDEST PUSH2 0x24AC JUMPI PUSH0 DUP4 DUP2 MSTORE PUSH1 0xC PUSH1 0x20 SWAP1 DUP2 MSTORE PUSH1 0x40 DUP1 DUP4 KECCAK256 PUSH1 0x1 PUSH1 0x1 PUSH1 0xA0 SHL SUB DUP7 AND DUP5 MSTORE SWAP1 SWAP2 MSTORE SWAP1 KECCAK256 DUP1 SLOAD PUSH1 0xFF NOT AND PUSH1 0x1 OR SWAP1 SSTORE PUSH2 0x2464 CALLER SWAP1 JUMP JUMPDEST PUSH1 0x1 PUSH1 0x1 PUSH1 0xA0 SHL SUB AND DUP3 PUSH1 0x1 PUSH1 0x1 PUSH1 0xA0 SHL SUB AND DUP5 PUSH32 0x2F8788117E7EFF1D82E926EC794901D17C78024A50270940304540A733656F0D PUSH1 0x40 MLOAD PUSH1 0x40 MLOAD DUP1 SWAP2 SUB SWAP1 LOG4 POP PUSH1 0x1 PUSH2 0x679 JUMP JUMPDEST POP PUSH0 PUSH2 0x679 JUMP JUMPDEST PUSH0 PUSH2 0x24BE DUP4 DUP4 PUSH2 0x1D32 JUMP JUMPDEST ISZERO PUSH2 0x24AC JUMPI PUSH0 DUP4 DUP2 MSTORE PUSH1 0xC PUSH1 0x20 SWAP1 DUP2 MSTORE PUSH1 0x40 DUP1 DUP4 KECCAK256 PUSH1 0x1 PUSH1 0x1 PUSH1 0xA0 SHL SUB DUP7 AND DUP1 DUP6 MSTORE SWAP3 MSTORE DUP1 DUP4 KECCAK256 DUP1 SLOAD PUSH1 0xFF NOT AND SWAP1 SSTORE MLOAD CALLER SWAP3 DUP7 SWAP2 PUSH32 0xF6391F5C32D9C69D2A47EA670B442974B53935D1EDC7FD64EB21E047A839171B SWAP2 SWAP1 LOG4 POP PUSH1 0x1 PUSH2 0x679 JUMP JUMPDEST PUSH0 SWAP1 DUP2 MSTORE PUSH1 0x2 PUSH1 0x20 MSTORE PUSH1 0x40 SWAP1 KECCAK256 SLOAD PUSH1 0x1 PUSH1 0x1 PUSH1 0xA0 SHL SUB AND SWAP1 JUMP JUMPDEST PUSH2 0x2540 PUSH2 0x2D32 JUMP JUMPDEST PUSH1 0xB DUP1 SLOAD PUSH1 0xFF NOT AND SWAP1 SSTORE PUSH32 0x5DB9EE0A495BF2E6FF9C91A7834C1BA4FDD244A5E8AA4E537BD38AEAE4B073AA CALLER JUMPDEST PUSH1 0x40 MLOAD PUSH1 0x1 PUSH1 0x1 PUSH1 0xA0 SHL SUB SWAP1 SWAP2 AND DUP2 MSTORE PUSH1 0x20 ADD PUSH1 0x40 MLOAD DUP1 SWAP2 SUB SWAP1 LOG1 JUMP JUMPDEST PUSH2 0x84F DUP3 DUP3 PUSH1 0x40 MLOAD DUP1 PUSH1 0x20 ADD PUSH1 0x40 MSTORE DUP1 PUSH0 DUP2 MSTORE POP PUSH2 0x2D57 JUMP JUMPDEST PUSH0 DUP3 DUP2 MSTORE PUSH1 0xA PUSH1 0x20 MSTORE PUSH1 0x40 SWAP1 KECCAK256 PUSH2 0x25BA DUP3 DUP3 PUSH2 0x3F3D JUMP JUMPDEST POP PUSH1 0x40 MLOAD DUP3 DUP2 MSTORE PUSH32 0xF8E1A15ABA9398E019F0B49DF1A4FDE98EE17AE345CB5F6B5E2C27F5033E8CE7 SWAP1 PUSH1 0x20 ADD PUSH1 0x40 MLOAD DUP1 SWAP2 SUB SWAP1 LOG1 POP POP JUMP JUMPDEST PUSH2 0x25FA PUSH2 0x2D6E JUMP JUMPDEST PUSH1 0xB DUP1 SLOAD PUSH1 0xFF NOT AND PUSH1 0x1 OR SWAP1 SSTORE PUSH32 0x62E78CEA01BEE320CD4E420270B5EA74000D11B0C9F74754EBDBFC544B05A258 PUSH2 0x256D CALLER SWAP1 JUMP JUMPDEST PUSH0 PUSH2 0x263B PUSH0 DUP4 PUSH0 PUSH2 0x240E JUMP JUMPDEST SWAP1 POP PUSH1 0x1 PUSH1 0x1 PUSH1 0xA0 SHL SUB DUP2 AND PUSH2 0x84F JUMPI PUSH1 0x40 MLOAD PUSH4 0x7E273289 PUSH1 0xE0 SHL DUP2 MSTORE PUSH1 0x4 DUP2 ADD DUP4 SWAP1 MSTORE PUSH1 0x24 ADD PUSH2 0x7AD JUMP JUMPDEST PUSH1 0x1 PUSH1 0x1 PUSH1 0xA0 SHL SUB DUP3 AND PUSH2 0x2699 JUMPI PUSH1 0x40 MLOAD PUSH4 0xB611743 PUSH1 0xE3 SHL DUP2 MSTORE PUSH1 0x1 PUSH1 0x1 PUSH1 0xA0 SHL SUB DUP4 AND PUSH1 0x4 DUP3 ADD MSTORE PUSH1 0x24 ADD PUSH2 0x7AD JUMP JUMPDEST PUSH1 0x1 PUSH1 0x1 PUSH1 0xA0 SHL SUB DUP4 DUP2 AND PUSH0 DUP2 DUP2 MSTORE PUSH1 0x5 PUSH1 0x20 SWAP1 DUP2 MSTORE PUSH1 0x40 DUP1 DUP4 KECCAK256 SWAP5 DUP8 AND DUP1 DUP5 MSTORE SWAP5 DUP3 MSTORE SWAP2 DUP3 SWAP1 KECCAK256 DUP1 SLOAD PUSH1 0xFF NOT AND DUP7 ISZERO ISZERO SWAP1 DUP2 OR SWAP1 SWAP2 SSTORE SWAP2 MLOAD SWAP2 DUP3 MSTORE PUSH32 0x17307EAB39AB6107E8899845AD3D59BD9653F200F220920489CA2B5937696C31 SWAP2 ADD PUSH1 0x40 MLOAD DUP1 SWAP2 SUB SWAP1 LOG3 POP POP POP JUMP JUMPDEST PUSH1 0x1 PUSH1 0x1 PUSH1 0xA0 SHL SUB DUP4 AND EXTCODESIZE ISZERO PUSH2 0x2826 JUMPI PUSH1 0x40 MLOAD PUSH4 0xA85BD01 PUSH1 0xE1 SHL DUP2 MSTORE PUSH1 0x1 PUSH1 0x1 PUSH1 0xA0 SHL SUB DUP5 AND SWAP1 PUSH4 0x150B7A02 SWAP1 PUSH2 0x2747 SWAP1 DUP9 SWAP1 DUP9 SWAP1 DUP8 SWAP1 DUP8 SWAP1 PUSH1 0x4 ADD PUSH2 0x41BD JUMP JUMPDEST PUSH1 0x20 PUSH1 0x40 MLOAD DUP1 DUP4 SUB DUP2 PUSH0 DUP8 GAS CALL SWAP3 POP POP POP DUP1 ISZERO PUSH2 0x2781 JUMPI POP PUSH1 0x40 DUP1 MLOAD PUSH1 0x1F RETURNDATASIZE SWAP1 DUP2 ADD PUSH1 0x1F NOT AND DUP3 ADD SWAP1 SWAP3 MSTORE PUSH2 0x277E SWAP2 DUP2 ADD SWAP1 PUSH2 0x41EF JUMP JUMPDEST PUSH1 0x1 JUMPDEST PUSH2 0x27E8 JUMPI RETURNDATASIZE DUP1 DUP1 ISZERO PUSH2 0x27AE JUMPI PUSH1 0x40 MLOAD SWAP2 POP PUSH1 0x1F NOT PUSH1 0x3F RETURNDATASIZE ADD AND DUP3 ADD PUSH1 0x40 MSTORE RETURNDATASIZE DUP3 MSTORE RETURNDATASIZE PUSH0 PUSH1 0x20 DUP5 ADD RETURNDATACOPY PUSH2 0x27B3 JUMP JUMPDEST PUSH1 0x60 SWAP2 POP JUMPDEST POP DUP1 MLOAD PUSH0 SUB PUSH2 0x27E0 JUMPI PUSH1 0x40 MLOAD PUSH4 0x32505749 PUSH1 0xE1 SHL DUP2 MSTORE PUSH1 0x1 PUSH1 0x1 PUSH1 0xA0 SHL SUB DUP6 AND PUSH1 0x4 DUP3 ADD MSTORE PUSH1 0x24 ADD PUSH2 0x7AD JUMP JUMPDEST DUP1 MLOAD DUP2 PUSH1 0x20 ADD REVERT JUMPDEST PUSH1 0x1 PUSH1 0x1 PUSH1 0xE0 SHL SUB NOT DUP2 AND PUSH4 0xA85BD01 PUSH1 0xE1 SHL EQ PUSH2 0x2824 JUMPI PUSH1 0x40 MLOAD PUSH4 0x32505749 PUSH1 0xE1 SHL DUP2 MSTORE PUSH1 0x1 PUSH1 0x1 PUSH1 0xA0 SHL SUB DUP6 AND PUSH1 0x4 DUP3 ADD MSTORE PUSH1 0x24 ADD PUSH2 0x7AD JUMP JUMPDEST POP JUMPDEST POP POP POP POP POP JUMP JUMPDEST PUSH1 0x60 PUSH2 0x2838 DUP3 PUSH2 0x2323 JUMP JUMPDEST POP PUSH0 DUP3 DUP2 MSTORE PUSH1 0xA PUSH1 0x20 MSTORE PUSH1 0x40 DUP2 KECCAK256 DUP1 SLOAD PUSH2 0x2851 SWAP1 PUSH2 0x3EC1 JUMP JUMPDEST DUP1 PUSH1 0x1F ADD PUSH1 0x20 DUP1 SWAP2 DIV MUL PUSH1 0x20 ADD PUSH1 0x40 MLOAD SWAP1 DUP2 ADD PUSH1 0x40 MSTORE DUP1 SWAP3 SWAP2 SWAP1 DUP2 DUP2 MSTORE PUSH1 0x20 ADD DUP3 DUP1 SLOAD PUSH2 0x287D SWAP1 PUSH2 0x3EC1 JUMP JUMPDEST DUP1 ISZERO PUSH2 0x28C8 JUMPI DUP1 PUSH1 0x1F LT PUSH2 0x289F JUMPI PUSH2 0x100 DUP1 DUP4 SLOAD DIV MUL DUP4 MSTORE SWAP2 PUSH1 0x20 ADD SWAP2 PUSH2 0x28C8 JUMP JUMPDEST DUP3 ADD SWAP2 SWAP1 PUSH0 MSTORE PUSH1 0x20 PUSH0 KECCAK256 SWAP1 JUMPDEST DUP2 SLOAD DUP2 MSTORE SWAP1 PUSH1 0x1 ADD SWAP1 PUSH1 0x20 ADD DUP1 DUP4 GT PUSH2 0x28AB JUMPI DUP3 SWAP1 SUB PUSH1 0x1F AND DUP3 ADD SWAP2 JUMPDEST POP POP POP POP POP SWAP1 POP PUSH0 PUSH2 0x28E4 PUSH1 0x40 DUP1 MLOAD PUSH1 0x20 DUP2 ADD SWAP1 SWAP2 MSTORE PUSH0 DUP2 MSTORE SWAP1 JUMP JUMPDEST SWAP1 POP DUP1 MLOAD PUSH0 SUB PUSH2 0x28F5 JUMPI POP SWAP3 SWAP2 POP POP JUMP JUMPDEST DUP2 MLOAD ISZERO PUSH2 0x2927 JUMPI DUP1 DUP3 PUSH1 0x40 MLOAD PUSH1 0x20 ADD PUSH2 0x290F SWAP3 SWAP2 SWAP1 PUSH2 0x420A JUMP JUMPDEST PUSH1 0x40 MLOAD PUSH1 0x20 DUP2 DUP4 SUB SUB DUP2 MSTORE SWAP1 PUSH1 0x40 MSTORE SWAP3 POP POP POP SWAP2 SWAP1 POP JUMP JUMPDEST PUSH2 0x241A DUP5 PUSH2 0x2D92 JUMP JUMPDEST PUSH1 0x40 DUP1 MLOAD PUSH1 0x2A DUP1 DUP3 MSTORE PUSH1 0x60 DUP3 DUP2 ADD SWAP1 SWAP4 MSTORE PUSH0 SWAP2 SWAP1 PUSH1 0x20 DUP3 ADD DUP2 DUP1 CALLDATASIZE DUP4 CALLDATACOPY ADD SWAP1 POP POP SWAP1 POP PUSH1 0x3 PUSH1 0xFC SHL DUP2 PUSH0 DUP2 MLOAD DUP2 LT PUSH2 0x296A JUMPI PUSH2 0x296A PUSH2 0x4036 JUMP JUMPDEST PUSH1 0x20 ADD ADD SWAP1 PUSH1 0x1 PUSH1 0x1 PUSH1 0xF8 SHL SUB NOT AND SWAP1 DUP2 PUSH0 BYTE SWAP1 MSTORE8 POP PUSH1 0xF PUSH1 0xFB SHL DUP2 PUSH1 0x1 DUP2 MLOAD DUP2 LT PUSH2 0x2998 JUMPI PUSH2 0x2998 PUSH2 0x4036 JUMP JUMPDEST PUSH1 0x20 ADD ADD SWAP1 PUSH1 0x1 PUSH1 0x1 PUSH1 0xF8 SHL SUB NOT AND SWAP1 DUP2 PUSH0 BYTE SWAP1 MSTORE8 POP PUSH0 JUMPDEST PUSH1 0x14 DUP2 LT ISZERO PUSH2 0x2ABA JUMPI PUSH0 PUSH2 0x29C5 DUP3 PUSH1 0x13 PUSH2 0x4023 JUMP JUMPDEST PUSH2 0x29D0 SWAP1 PUSH1 0x4 PUSH2 0x421E JUMP JUMPDEST PUSH2 0x29DB SWAP1 PUSH1 0x2 PUSH2 0x4318 JUMP JUMPDEST PUSH2 0x29EE SWAP1 PUSH1 0x1 PUSH1 0x1 PUSH1 0xA0 SHL SUB DUP8 AND PUSH2 0x4139 JUMP JUMPDEST PUSH1 0xF DUP2 AND SWAP2 POP PUSH0 SWAP1 PUSH1 0xF8 SHL PUSH1 0xF PUSH1 0xF8 SHL AND PUSH1 0x3 PUSH1 0xFC SHL DUP6 PUSH2 0x2A10 DUP7 PUSH1 0x2 PUSH2 0x421E JUMP JUMPDEST PUSH2 0x2A1B SWAP1 PUSH1 0x2 PUSH2 0x4323 JUMP JUMPDEST DUP2 MLOAD DUP2 LT PUSH2 0x2A2B JUMPI PUSH2 0x2A2B PUSH2 0x4036 JUMP JUMPDEST PUSH1 0x20 ADD ADD SWAP1 PUSH1 0x1 PUSH1 0x1 PUSH1 0xF8 SHL SUB NOT AND SWAP1 DUP2 PUSH0 BYTE SWAP1 MSTORE8 POP PUSH16 0x181899199A1A9B1B9C1CB0B131B232B3 PUSH1 0x81 SHL PUSH1 0xF8 DUP3 SWAP1 SHR PUSH1 0x10 DUP2 LT PUSH2 0x2A6A JUMPI PUSH2 0x2A6A PUSH2 0x4036 JUMP JUMPDEST BYTE PUSH1 0xF8 SHL DUP6 PUSH2 0x2A7A DUP7 PUSH1 0x2 PUSH2 0x421E JUMP JUMPDEST PUSH2 0x2A85 SWAP1 PUSH1 0x3 PUSH2 0x4323 JUMP JUMPDEST DUP2 MLOAD DUP2 LT PUSH2 0x2A95 JUMPI PUSH2 0x2A95 PUSH2 0x4036 JUMP JUMPDEST PUSH1 0x20 ADD ADD SWAP1 PUSH1 0x1 PUSH1 0x1 PUSH1 0xF8 SHL SUB NOT AND SWAP1 DUP2 PUSH0 BYTE SWAP1 MSTORE8 POP POP PUSH1 0x1 SWAP1 SWAP3 ADD SWAP2 POP PUSH2 0x29B0 SWAP1 POP JUMP JUMPDEST POP SWAP3 SWAP2 POP POP JUMP JUMPDEST PUSH0 PUSH1 0x1 PUSH1 0x1 PUSH1 0xE0 SHL SUB NOT DUP3 AND PUSH4 0x24832483 PUSH1 0xE1 SHL EQ DUP1 PUSH2 0x679 JUMPI POP PUSH2 0x679 DUP3 PUSH2 0x2E03 JUMP JUMPDEST PUSH2 0x2AEF DUP3 DUP3 PUSH2 0x1D32 JUMP JUMPDEST PUSH2 0x84F JUMPI PUSH1 0x40 MLOAD PUSH4 0xE2517D3F PUSH1 0xE0 SHL DUP2 MSTORE PUSH1 0x1 PUSH1 0x1 PUSH1 0xA0 SHL SUB DUP3 AND PUSH1 0x4 DUP3 ADD MSTORE PUSH1 0x24 DUP2 ADD DUP4 SWAP1 MSTORE PUSH1 0x44 ADD PUSH2 0x7AD JUMP JUMPDEST PUSH1 0x60 DUP2 PUSH0 SUB PUSH2 0x2B44 JUMPI POP POP PUSH1 0x40 DUP1 MLOAD DUP1 DUP3 ADD SWAP1 SWAP2 MSTORE PUSH1 0x1 DUP2 MSTORE PUSH1 0x3 PUSH1 0xFC SHL PUSH1 0x20 DUP3 ADD MSTORE SWAP1 JUMP JUMPDEST DUP2 PUSH0 JUMPDEST DUP2 ISZERO PUSH2 0x2B6D JUMPI DUP1 PUSH2 0x2B57 DUP2 PUSH2 0x400B JUMP JUMPDEST SWAP2 POP PUSH2 0x2B66 SWAP1 POP PUSH1 0xA DUP4 PUSH2 0x4139 JUMP JUMPDEST SWAP2 POP PUSH2 0x2B47 JUMP JUMPDEST PUSH0 DUP2 PUSH1 0x1 PUSH1 0x1 PUSH1 0x40 SHL SUB DUP2 GT ISZERO PUSH2 0x2B86 JUMPI PUSH2 0x2B86 PUSH2 0x394B JUMP JUMPDEST PUSH1 0x40 MLOAD SWAP1 DUP1 DUP3 MSTORE DUP1 PUSH1 0x1F ADD PUSH1 0x1F NOT AND PUSH1 0x20 ADD DUP3 ADD PUSH1 0x40 MSTORE DUP1 ISZERO PUSH2 0x2BB0 JUMPI PUSH1 0x20 DUP3 ADD DUP2 DUP1 CALLDATASIZE DUP4 CALLDATACOPY ADD SWAP1 POP JUMPDEST POP SWAP1 POP JUMPDEST DUP5 ISZERO PUSH2 0x241A JUMPI PUSH2 0x2BC5 PUSH1 0x1 DUP4 PUSH2 0x4023 JUMP JUMPDEST SWAP2 POP PUSH2 0x2BD2 PUSH1 0xA DUP7 PUSH2 0x4336 JUMP JUMPDEST PUSH2 0x2BDD SWAP1 PUSH1 0x30 PUSH2 0x4323 JUMP JUMPDEST PUSH1 0xF8 SHL DUP2 DUP4 DUP2 MLOAD DUP2 LT PUSH2 0x2BF2 JUMPI PUSH2 0x2BF2 PUSH2 0x4036 JUMP JUMPDEST PUSH1 0x20 ADD ADD SWAP1 PUSH1 0x1 PUSH1 0x1 PUSH1 0xF8 SHL SUB NOT AND SWAP1 DUP2 PUSH0 BYTE SWAP1 MSTORE8 POP PUSH2 0x2C13 PUSH1 0xA DUP7 PUSH2 0x4139 JUMP JUMPDEST SWAP5 POP PUSH2 0x2BB4 JUMP JUMPDEST DUP1 DUP1 PUSH2 0x2C2E JUMPI POP PUSH1 0x1 PUSH1 0x1 PUSH1 0xA0 SHL SUB DUP3 AND ISZERO ISZERO JUMPDEST ISZERO PUSH2 0x2CEF JUMPI PUSH0 PUSH2 0x2C3D DUP5 PUSH2 0x2323 JUMP JUMPDEST SWAP1 POP PUSH1 0x1 PUSH1 0x1 PUSH1 0xA0 SHL SUB DUP4 AND ISZERO DUP1 ISZERO SWAP1 PUSH2 0x2C69 JUMPI POP DUP3 PUSH1 0x1 PUSH1 0x1 PUSH1 0xA0 SHL SUB AND DUP2 PUSH1 0x1 PUSH1 0x1 PUSH1 0xA0 SHL SUB AND EQ ISZERO JUMPDEST DUP1 ISZERO PUSH2 0x2C7C JUMPI POP PUSH2 0x2C7A DUP2 DUP5 PUSH2 0x1F87 JUMP JUMPDEST ISZERO JUMPDEST ISZERO PUSH2 0x2CA5 JUMPI PUSH1 0x40 MLOAD PUSH4 0xA9FBF51F PUSH1 0xE0 SHL DUP2 MSTORE PUSH1 0x1 PUSH1 0x1 PUSH1 0xA0 SHL SUB DUP5 AND PUSH1 0x4 DUP3 ADD MSTORE PUSH1 0x24 ADD PUSH2 0x7AD JUMP JUMPDEST DUP2 ISZERO PUSH2 0x2CED JUMPI DUP4 DUP6 PUSH1 0x1 PUSH1 0x1 PUSH1 0xA0 SHL SUB AND DUP3 PUSH1 0x1 PUSH1 0x1 PUSH1 0xA0 SHL SUB AND PUSH32 0x8C5BE1E5EBEC7D5BD14F71427D1E84F3DD0314C0F7B2291E5B200AC8C7C3B925 PUSH1 0x40 MLOAD PUSH1 0x40 MLOAD DUP1 SWAP2 SUB SWAP1 LOG4 JUMPDEST POP JUMPDEST POP POP PUSH0 SWAP1 DUP2 MSTORE PUSH1 0x4 PUSH1 0x20 MSTORE PUSH1 0x40 SWAP1 KECCAK256 DUP1 SLOAD PUSH1 0x1 PUSH1 0x1 PUSH1 0xA0 SHL SUB NOT AND PUSH1 0x1 PUSH1 0x1 PUSH1 0xA0 SHL SUB SWAP3 SWAP1 SWAP3 AND SWAP2 SWAP1 SWAP2 OR SWAP1 SSTORE JUMP JUMPDEST PUSH0 PUSH2 0x2D27 PUSH2 0x2D6E JUMP JUMPDEST PUSH2 0x241A DUP5 DUP5 DUP5 PUSH2 0x2E27 JUMP JUMPDEST PUSH1 0xB SLOAD PUSH1 0xFF AND PUSH2 0x2D55 JUMPI PUSH1 0x40 MLOAD PUSH4 0x8DFC202B PUSH1 0xE0 SHL DUP2 MSTORE PUSH1 0x4 ADD PUSH1 0x40 MLOAD DUP1 SWAP2 SUB SWAP1 REVERT JUMPDEST JUMP JUMPDEST PUSH2 0x2D61 DUP4 DUP4 PUSH2 0x2EF2 JUMP JUMPDEST PUSH2 0x9A1 CALLER PUSH0 DUP6 DUP6 DUP6 PUSH2 0x2705 JUMP JUMPDEST PUSH1 0xB SLOAD PUSH1 0xFF AND ISZERO PUSH2 0x2D55 JUMPI PUSH1 0x40 MLOAD PUSH4 0xD93C0665 PUSH1 0xE0 SHL DUP2 MSTORE PUSH1 0x4 ADD PUSH1 0x40 MLOAD DUP1 SWAP2 SUB SWAP1 REVERT JUMPDEST PUSH1 0x60 PUSH2 0x2D9D DUP3 PUSH2 0x2323 JUMP JUMPDEST POP PUSH0 PUSH2 0x2DB3 PUSH1 0x40 DUP1 MLOAD PUSH1 0x20 DUP2 ADD SWAP1 SWAP2 MSTORE PUSH0 DUP2 MSTORE SWAP1 JUMP JUMPDEST SWAP1 POP PUSH0 DUP2 MLOAD GT PUSH2 0x2DD1 JUMPI PUSH1 0x40 MLOAD DUP1 PUSH1 0x20 ADD PUSH1 0x40 MSTORE DUP1 PUSH0 DUP2 MSTORE POP PUSH2 0x2DFC JUMP JUMPDEST DUP1 PUSH2 0x2DDB DUP5 PUSH2 0x2F53 JUMP JUMPDEST PUSH1 0x40 MLOAD PUSH1 0x20 ADD PUSH2 0x2DEC SWAP3 SWAP2 SWAP1 PUSH2 0x420A JUMP JUMPDEST PUSH1 0x40 MLOAD PUSH1 0x20 DUP2 DUP4 SUB SUB DUP2 MSTORE SWAP1 PUSH1 0x40 MSTORE JUMPDEST SWAP4 SWAP3 POP POP POP JUMP JUMPDEST PUSH0 PUSH1 0x1 PUSH1 0x1 PUSH1 0xE0 SHL SUB NOT DUP3 AND PUSH4 0x780E9D63 PUSH1 0xE0 SHL EQ DUP1 PUSH2 0x679 JUMPI POP PUSH2 0x679 DUP3 PUSH2 0x2FE3 JUMP JUMPDEST PUSH0 DUP1 PUSH2 0x2E34 DUP6 DUP6 DUP6 PUSH2 0x3032 JUMP JUMPDEST SWAP1 POP PUSH1 0x1 PUSH1 0x1 PUSH1 0xA0 SHL SUB DUP2 AND PUSH2 0x2E90 JUMPI PUSH2 0x2E8B DUP5 PUSH1 0x8 DUP1 SLOAD PUSH0 DUP4 DUP2 MSTORE PUSH1 0x9 PUSH1 0x20 MSTORE PUSH1 0x40 DUP2 KECCAK256 DUP3 SWAP1 SSTORE PUSH1 0x1 DUP3 ADD DUP4 SSTORE SWAP2 SWAP1 SWAP2 MSTORE PUSH32 0xF3F7A9FE364FAAB93B216DA50A3214154F22A0A2B415B23A84C8169E8B636EE3 ADD SSTORE JUMP JUMPDEST PUSH2 0x2EB3 JUMP JUMPDEST DUP5 PUSH1 0x1 PUSH1 0x1 PUSH1 0xA0 SHL SUB AND DUP2 PUSH1 0x1 PUSH1 0x1 PUSH1 0xA0 SHL SUB AND EQ PUSH2 0x2EB3 JUMPI PUSH2 0x2EB3 DUP2 DUP6 PUSH2 0x311F JUMP JUMPDEST PUSH1 0x1 PUSH1 0x1 PUSH1 0xA0 SHL SUB DUP6 AND PUSH2 0x2ECF JUMPI PUSH2 0x2ECA DUP5 PUSH2 0x319C JUMP JUMPDEST PUSH2 0x241A JUMP JUMPDEST DUP5 PUSH1 0x1 PUSH1 0x1 PUSH1 0xA0 SHL SUB AND DUP2 PUSH1 0x1 PUSH1 0x1 PUSH1 0xA0 SHL SUB AND EQ PUSH2 0x241A JUMPI PUSH2 0x241A DUP6 DUP6 PUSH2 0x3243 JUMP JUMPDEST PUSH1 0x1 PUSH1 0x1 PUSH1 0xA0 SHL SUB DUP3 AND PUSH2 0x2F1B JUMPI PUSH1 0x40 MLOAD PUSH4 0x32505749 PUSH1 0xE1 SHL DUP2 MSTORE PUSH0 PUSH1 0x4 DUP3 ADD MSTORE PUSH1 0x24 ADD PUSH2 0x7AD JUMP JUMPDEST PUSH0 PUSH2 0x2F27 DUP4 DUP4 PUSH0 PUSH2 0x240E JUMP JUMPDEST SWAP1 POP PUSH1 0x1 PUSH1 0x1 PUSH1 0xA0 SHL SUB DUP2 AND ISZERO PUSH2 0x9A1 JUMPI PUSH1 0x40 MLOAD PUSH4 0x39E35637 PUSH1 0xE1 SHL DUP2 MSTORE PUSH0 PUSH1 0x4 DUP3 ADD MSTORE PUSH1 0x24 ADD PUSH2 0x7AD JUMP JUMPDEST PUSH1 0x60 PUSH0 PUSH2 0x2F5F DUP4 PUSH2 0x3291 JUMP JUMPDEST PUSH1 0x1 ADD SWAP1 POP PUSH0 DUP2 PUSH1 0x1 PUSH1 0x1 PUSH1 0x40 SHL SUB DUP2 GT ISZERO PUSH2 0x2F7D JUMPI PUSH2 0x2F7D PUSH2 0x394B JUMP JUMPDEST PUSH1 0x40 MLOAD SWAP1 DUP1 DUP3 MSTORE DUP1 PUSH1 0x1F ADD PUSH1 0x1F NOT AND PUSH1 0x20 ADD DUP3 ADD PUSH1 0x40 MSTORE DUP1 ISZERO PUSH2 0x2FA7 JUMPI PUSH1 0x20 DUP3 ADD DUP2 DUP1 CALLDATASIZE DUP4 CALLDATACOPY ADD SWAP1 POP JUMPDEST POP SWAP1 POP DUP2 DUP2 ADD PUSH1 0x20 ADD JUMPDEST PUSH0 NOT ADD PUSH16 0x181899199A1A9B1B9C1CB0B131B232B3 PUSH1 0x81 SHL PUSH1 0xA DUP7 MOD BYTE DUP2 MSTORE8 PUSH1 0xA DUP6 DIV SWAP5 POP DUP5 PUSH2 0x2FB1 JUMPI JUMPDEST POP SWAP4 SWAP3 POP POP POP JUMP JUMPDEST PUSH0 PUSH1 0x1 PUSH1 0x1 PUSH1 0xE0 SHL SUB NOT DUP3 AND PUSH4 0x80AC58CD PUSH1 0xE0 SHL EQ DUP1 PUSH2 0x3013 JUMPI POP PUSH1 0x1 PUSH1 0x1 PUSH1 0xE0 SHL SUB NOT DUP3 AND PUSH4 0x5B5E139F PUSH1 0xE0 SHL EQ JUMPDEST DUP1 PUSH2 0x679 JUMPI POP PUSH4 0x1FFC9A7 PUSH1 0xE0 SHL PUSH1 0x1 PUSH1 0x1 PUSH1 0xE0 SHL SUB NOT DUP4 AND EQ PUSH2 0x679 JUMP JUMPDEST PUSH0 DUP1 PUSH2 0x303D DUP5 PUSH2 0x251E JUMP JUMPDEST SWAP1 POP PUSH1 0x1 PUSH1 0x1 PUSH1 0xA0 SHL SUB DUP4 AND ISZERO PUSH2 0x3059 JUMPI PUSH2 0x3059 DUP2 DUP5 DUP7 PUSH2 0x3368 JUMP JUMPDEST PUSH1 0x1 PUSH1 0x1 PUSH1 0xA0 SHL SUB DUP2 AND ISZERO PUSH2 0x3093 JUMPI PUSH2 0x3074 PUSH0 DUP6 PUSH0 DUP1 PUSH2 0x2C1A JUMP JUMPDEST PUSH1 0x1 PUSH1 0x1 PUSH1 0xA0 SHL SUB DUP2 AND PUSH0 SWAP1 DUP2 MSTORE PUSH1 0x3 PUSH1 0x20 MSTORE PUSH1 0x40 SWAP1 KECCAK256 DUP1 SLOAD PUSH0 NOT ADD SWAP1 SSTORE JUMPDEST PUSH1 0x1 PUSH1 0x1 PUSH1 0xA0 SHL SUB DUP6 AND ISZERO PUSH2 0x30C1 JUMPI PUSH1 0x1 PUSH1 0x1 PUSH1 0xA0 SHL SUB DUP6 AND PUSH0 SWAP1 DUP2 MSTORE PUSH1 0x3 PUSH1 0x20 MSTORE PUSH1 0x40 SWAP1 KECCAK256 DUP1 SLOAD PUSH1 0x1 ADD SWAP1 SSTORE JUMPDEST PUSH0 DUP5 DUP2 MSTORE PUSH1 0x2 PUSH1 0x20 MSTORE PUSH1 0x40 DUP1 DUP3 KECCAK256 DUP1 SLOAD PUSH1 0x1 PUSH1 0x1 PUSH1 0xA0 SHL SUB NOT AND PUSH1 0x1 PUSH1 0x1 PUSH1 0xA0 SHL SUB DUP10 DUP2 AND SWAP2 DUP3 OR SWAP1 SWAP3 SSTORE SWAP2 MLOAD DUP8 SWAP4 SWAP2 DUP6 AND SWAP2 PUSH32 0xDDF252AD1BE2C89B69C2B068FC378DAA952BA7F163C4A11628F55A4DF523B3EF SWAP2 LOG4 SWAP5 SWAP4 POP POP POP POP JUMP JUMPDEST PUSH0 PUSH2 0x3129 DUP4 PUSH2 0x1892 JUMP JUMPDEST PUSH0 DUP4 DUP2 MSTORE PUSH1 0x7 PUSH1 0x20 SWAP1 DUP2 MSTORE PUSH1 0x40 DUP1 DUP4 KECCAK256 SLOAD PUSH1 0x1 PUSH1 0x1 PUSH1 0xA0 SHL SUB DUP9 AND DUP5 MSTORE PUSH1 0x6 SWAP1 SWAP3 MSTORE SWAP1 SWAP2 KECCAK256 SWAP2 SWAP3 POP SWAP1 DUP2 DUP4 EQ PUSH2 0x317E JUMPI PUSH0 DUP4 DUP2 MSTORE PUSH1 0x20 DUP3 DUP2 MSTORE PUSH1 0x40 DUP1 DUP4 KECCAK256 SLOAD DUP6 DUP5 MSTORE DUP2 DUP5 KECCAK256 DUP2 SWAP1 SSTORE DUP4 MSTORE PUSH1 0x7 SWAP1 SWAP2 MSTORE SWAP1 KECCAK256 DUP3 SWAP1 SSTORE JUMPDEST PUSH0 SWAP4 DUP5 MSTORE PUSH1 0x7 PUSH1 0x20 SWAP1 DUP2 MSTORE PUSH1 0x40 DUP1 DUP7 KECCAK256 DUP7 SWAP1 SSTORE SWAP4 DUP6 MSTORE MSTORE POP DUP2 KECCAK256 SSTORE POP JUMP JUMPDEST PUSH1 0x8 SLOAD PUSH0 SWAP1 PUSH2 0x31AD SWAP1 PUSH1 0x1 SWAP1 PUSH2 0x4023 JUMP JUMPDEST PUSH0 DUP4 DUP2 MSTORE PUSH1 0x9 PUSH1 0x20 MSTORE PUSH1 0x40 DUP2 KECCAK256 SLOAD PUSH1 0x8 DUP1 SLOAD SWAP4 SWAP5 POP SWAP1 SWAP3 DUP5 SWAP1 DUP2 LT PUSH2 0x31D4 JUMPI PUSH2 0x31D4 PUSH2 0x4036 JUMP JUMPDEST SWAP1 PUSH0 MSTORE PUSH1 0x20 PUSH0 KECCAK256 ADD SLOAD SWAP1 POP DUP1 PUSH1 0x8 DUP4 DUP2 SLOAD DUP2 LT PUSH2 0x31F3 JUMPI PUSH2 0x31F3 PUSH2 0x4036 JUMP JUMPDEST PUSH0 SWAP2 DUP3 MSTORE PUSH1 0x20 DUP1 DUP4 KECCAK256 SWAP1 SWAP2 ADD SWAP3 SWAP1 SWAP3 SSTORE DUP3 DUP2 MSTORE PUSH1 0x9 SWAP1 SWAP2 MSTORE PUSH1 0x40 DUP1 DUP3 KECCAK256 DUP5 SWAP1 SSTORE DUP6 DUP3 MSTORE DUP2 KECCAK256 SSTORE PUSH1 0x8 DUP1 SLOAD DUP1 PUSH2 0x322A JUMPI PUSH2 0x322A PUSH2 0x4349 JUMP JUMPDEST PUSH1 0x1 SWAP1 SUB DUP2 DUP2 SWAP1 PUSH0 MSTORE PUSH1 0x20 PUSH0 KECCAK256 ADD PUSH0 SWAP1 SSTORE SWAP1 SSTORE POP POP POP POP JUMP JUMPDEST PUSH0 PUSH1 0x1 PUSH2 0x324F DUP5 PUSH2 0x1892 JUMP JUMPDEST PUSH2 0x3259 SWAP2 SWAP1 PUSH2 0x4023 JUMP JUMPDEST PUSH1 0x1 PUSH1 0x1 PUSH1 0xA0 SHL SUB SWAP1 SWAP4 AND PUSH0 SWAP1 DUP2 MSTORE PUSH1 0x6 PUSH1 0x20 SWAP1 DUP2 MSTORE PUSH1 0x40 DUP1 DUP4 KECCAK256 DUP7 DUP5 MSTORE DUP3 MSTORE DUP1 DUP4 KECCAK256 DUP6 SWAP1 SSTORE SWAP4 DUP3 MSTORE PUSH1 0x7 SWAP1 MSTORE SWAP2 SWAP1 SWAP2 KECCAK256 SWAP2 SWAP1 SWAP2 SSTORE POP JUMP JUMPDEST PUSH0 DUP1 PUSH19 0x184F03E93FF9F4DAA797ED6E38ED64BF6A1F01 PUSH1 0x40 SHL DUP4 LT PUSH2 0x32CF JUMPI PUSH19 0x184F03E93FF9F4DAA797ED6E38ED64BF6A1F01 PUSH1 0x40 SHL DUP4 DIV SWAP3 POP PUSH1 0x40 ADD JUMPDEST PUSH14 0x4EE2D6D415B85ACEF8100000000 DUP4 LT PUSH2 0x32FB JUMPI PUSH14 0x4EE2D6D415B85ACEF8100000000 DUP4 DIV SWAP3 POP PUSH1 0x20 ADD JUMPDEST PUSH7 0x2386F26FC10000 DUP4 LT PUSH2 0x3319 JUMPI PUSH7 0x2386F26FC10000 DUP4 DIV SWAP3 POP PUSH1 0x10 ADD JUMPDEST PUSH4 0x5F5E100 DUP4 LT PUSH2 0x3331 JUMPI PUSH4 0x5F5E100 DUP4 DIV SWAP3 POP PUSH1 0x8 ADD JUMPDEST PUSH2 0x2710 DUP4 LT PUSH2 0x3345 JUMPI PUSH2 0x2710 DUP4 DIV SWAP3 POP PUSH1 0x4 ADD JUMPDEST PUSH1 0x64 DUP4 LT PUSH2 0x3357 JUMPI PUSH1 0x64 DUP4 DIV SWAP3 POP PUSH1 0x2 ADD JUMPDEST PUSH1 0xA DUP4 LT PUSH2 0x679 JUMPI PUSH1 0x1 ADD SWAP3 SWAP2 POP POP JUMP JUMPDEST PUSH2 0x3373 DUP4 DUP4 DUP4 PUSH2 0x33CC JUMP JUMPDEST PUSH2 0x9A1 JUMPI PUSH1 0x1 PUSH1 0x1 PUSH1 0xA0 SHL SUB DUP4 AND PUSH2 0x33A1 JUMPI PUSH1 0x40 MLOAD PUSH4 0x7E273289 PUSH1 0xE0 SHL DUP2 MSTORE PUSH1 0x4 DUP2 ADD DUP3 SWAP1 MSTORE PUSH1 0x24 ADD PUSH2 0x7AD JUMP JUMPDEST PUSH1 0x40 MLOAD PUSH4 0x177E802F PUSH1 0xE0 SHL DUP2 MSTORE PUSH1 0x1 PUSH1 0x1 PUSH1 0xA0 SHL SUB DUP4 AND PUSH1 0x4 DUP3 ADD MSTORE PUSH1 0x24 DUP2 ADD DUP3 SWAP1 MSTORE PUSH1 0x44 ADD PUSH2 0x7AD JUMP JUMPDEST PUSH0 PUSH1 0x1 PUSH1 0x1 PUSH1 0xA0 SHL SUB DUP4 AND ISZERO DUP1 ISZERO SWAP1 PUSH2 0x241A JUMPI POP DUP3 PUSH1 0x1 PUSH1 0x1 PUSH1 0xA0 SHL SUB AND DUP5 PUSH1 0x1 PUSH1 0x1 PUSH1 0xA0 SHL SUB AND EQ DUP1 PUSH2 0x3405 JUMPI POP PUSH2 0x3405 DUP5 DUP5 PUSH2 0x1F87 JUMP JUMPDEST DUP1 PUSH2 0x241A JUMPI POP POP PUSH0 SWAP1 DUP2 MSTORE PUSH1 0x4 PUSH1 0x20 MSTORE PUSH1 0x40 SWAP1 KECCAK256 SLOAD PUSH1 0x1 PUSH1 0x1 PUSH1 0xA0 SHL SUB SWAP1 DUP2 AND SWAP2 AND EQ SWAP2 SWAP1 POP JUMP JUMPDEST PUSH1 0x40 MLOAD DUP1 PUSH2 0x180 ADD PUSH1 0x40 MSTORE DUP1 PUSH1 0x60 DUP2 MSTORE PUSH1 0x20 ADD PUSH1 0x60 DUP2 MSTORE PUSH1 0x20 ADD PUSH1 0x60 DUP2 MSTORE PUSH1 0x20 ADD PUSH0 DUP2 MSTORE PUSH1 0x20 ADD PUSH1 0x60 DUP2 MSTORE PUSH1 0x20 ADD PUSH1 0x60 DUP2 MSTORE PUSH1 0x20 ADD PUSH1 0x60 DUP2 MSTORE PUSH1 0x20 ADD PUSH0 DUP2 MSTORE PUSH1 0x20 ADD PUSH1 0x60 DUP2 MSTORE PUSH1 0x20 ADD PUSH1 0x60 DUP2 MSTORE PUSH1 0x20 ADD PUSH0 PUSH1 0x1 PUSH1 0x1 PUSH1 0xA0 SHL SUB AND DUP2 MSTORE PUSH1 0x20 ADD PUSH0 PUSH1 0x1 PUSH1 0x1 PUSH1 0xA0 SHL SUB AND DUP2 MSTORE POP SWAP1 JUMP JUMPDEST DUP3 DUP1 SLOAD DUP3 DUP3 SSTORE SWAP1 PUSH0 MSTORE PUSH1 0x20 PUSH0 KECCAK256 SWAP1 DUP2 ADD SWAP3 DUP3 ISZERO PUSH2 0x34D5 JUMPI SWAP2 PUSH1 0x20 MUL DUP3 ADD JUMPDEST DUP3 DUP2 GT ISZERO PUSH2 0x34D5 JUMPI DUP3 MLOAD DUP3 SSTORE SWAP2 PUSH1 0x20 ADD SWAP2 SWAP1 PUSH1 0x1 ADD SWAP1 PUSH2 0x34BA JUMP JUMPDEST POP PUSH2 0x34E1 SWAP3 SWAP2 POP PUSH2 0x3500 JUMP JUMPDEST POP SWAP1 JUMP JUMPDEST POP DUP1 SLOAD PUSH0 DUP3 SSTORE SWAP1 PUSH0 MSTORE PUSH1 0x20 PUSH0 KECCAK256 SWAP1 DUP2 ADD SWAP1 PUSH2 0xFAF SWAP2 SWAP1 PUSH2 0x3514 JUMP JUMPDEST JUMPDEST DUP1 DUP3 GT ISZERO PUSH2 0x34E1 JUMPI PUSH0 DUP2 SSTORE PUSH1 0x1 ADD PUSH2 0x3501 JUMP JUMPDEST DUP1 DUP3 GT ISZERO PUSH2 0x34E1 JUMPI PUSH0 PUSH2 0x3527 DUP3 DUP3 PUSH2 0x3530 JUMP JUMPDEST POP PUSH1 0x1 ADD PUSH2 0x3514 JUMP JUMPDEST POP DUP1 SLOAD PUSH2 0x353C SWAP1 PUSH2 0x3EC1 JUMP JUMPDEST PUSH0 DUP3 SSTORE DUP1 PUSH1 0x1F LT PUSH2 0x354B JUMPI POP POP JUMP JUMPDEST PUSH1 0x1F ADD PUSH1 0x20 SWAP1 DIV SWAP1 PUSH0 MSTORE PUSH1 0x20 PUSH0 KECCAK256 SWAP1 DUP2 ADD SWAP1 PUSH2 0xFAF SWAP2 SWAP1 PUSH2 0x3500 JUMP JUMPDEST PUSH1 0x1 PUSH1 0x1 PUSH1 0xE0 SHL SUB NOT DUP2 AND DUP2 EQ PUSH2 0xFAF JUMPI PUSH0 DUP1 REVERT JUMPDEST PUSH0 PUSH1 0x20 DUP3 DUP5 SUB SLT ISZERO PUSH2 0x358C JUMPI PUSH0 DUP1 REVERT JUMPDEST DUP2 CALLDATALOAD PUSH2 0x2DFC DUP2 PUSH2 0x3567 JUMP JUMPDEST PUSH0 DUP2 MLOAD DUP1 DUP5 MSTORE DUP1 PUSH1 0x20 DUP5 ADD PUSH1 0x20 DUP7 ADD MCOPY PUSH0 PUSH1 0x20 DUP3 DUP7 ADD ADD MSTORE PUSH1 0x20 PUSH1 0x1F NOT PUSH1 0x1F DUP4 ADD AND DUP6 ADD ADD SWAP2 POP POP SWAP3 SWAP2 POP POP JUMP JUMPDEST PUSH1 0x20 DUP2 MSTORE PUSH0 PUSH2 0x2DFC PUSH1 0x20 DUP4 ADD DUP5 PUSH2 0x3597 JUMP JUMPDEST PUSH0 PUSH1 0x20 DUP3 DUP5 SUB SLT ISZERO PUSH2 0x35E7 JUMPI PUSH0 DUP1 REVERT JUMPDEST POP CALLDATALOAD SWAP2 SWAP1 POP JUMP JUMPDEST DUP1 CALLDATALOAD PUSH1 0x1 PUSH1 0x1 PUSH1 0xA0 SHL SUB DUP2 AND DUP2 EQ PUSH2 0x3604 JUMPI PUSH0 DUP1 REVERT JUMPDEST SWAP2 SWAP1 POP JUMP JUMPDEST PUSH0 DUP1 PUSH1 0x40 DUP4 DUP6 SUB SLT ISZERO PUSH2 0x361A JUMPI PUSH0 DUP1 REVERT JUMPDEST PUSH2 0x3623 DUP4 PUSH2 0x35EE JUMP JUMPDEST SWAP5 PUSH1 0x20 SWAP4 SWAP1 SWAP4 ADD CALLDATALOAD SWAP4 POP POP POP JUMP JUMPDEST PUSH0 DUP1 PUSH0 PUSH1 0x60 DUP5 DUP7 SUB SLT ISZERO PUSH2 0x3643 JUMPI PUSH0 DUP1 REVERT JUMPDEST PUSH2 0x364C DUP5 PUSH2 0x35EE JUMP JUMPDEST SWAP3 POP PUSH2 0x365A PUSH1 0x20 DUP6 ADD PUSH2 0x35EE JUMP JUMPDEST SWAP3 SWAP6 SWAP3 SWAP5 POP POP POP PUSH1 0x40 SWAP2 SWAP1 SWAP2 ADD CALLDATALOAD SWAP1 JUMP JUMPDEST PUSH0 DUP1 PUSH1 0x40 DUP4 DUP6 SUB SLT ISZERO PUSH2 0x367C JUMPI PUSH0 DUP1 REVERT JUMPDEST DUP3 CALLDATALOAD SWAP2 POP PUSH2 0x368C PUSH1 0x20 DUP5 ADD PUSH2 0x35EE JUMP JUMPDEST SWAP1 POP SWAP3 POP SWAP3 SWAP1 POP JUMP JUMPDEST PUSH0 PUSH1 0x20 DUP3 DUP5 SUB SLT ISZERO PUSH2 0x36A5 JUMPI PUSH0 DUP1 REVERT JUMPDEST PUSH2 0x2DFC DUP3 PUSH2 0x35EE JUMP JUMPDEST PUSH0 DUP2 MLOAD DUP1 DUP5 MSTORE PUSH1 0x20 DUP5 ADD SWAP4 POP PUSH1 0x20 DUP4 ADD PUSH0 JUMPDEST DUP3 DUP2 LT ISZERO PUSH2 0x36DE JUMPI DUP2 MLOAD DUP7 MSTORE PUSH1 0x20 SWAP6 DUP7 ADD SWAP6 SWAP1 SWAP2 ADD SWAP1 PUSH1 0x1 ADD PUSH2 0x36C0 JUMP JUMPDEST POP SWAP4 SWAP5 SWAP4 POP POP POP POP JUMP JUMPDEST PUSH0 DUP2 MLOAD PUSH2 0x180 DUP5 MSTORE PUSH2 0x36FE PUSH2 0x180 DUP6 ADD DUP3 PUSH2 0x3597 JUMP JUMPDEST SWAP1 POP PUSH1 0x20 DUP4 ADD MLOAD DUP5 DUP3 SUB PUSH1 0x20 DUP7 ADD MSTORE PUSH2 0x3717 DUP3 DUP3 PUSH2 0x3597 JUMP JUMPDEST SWAP2 POP POP PUSH1 0x40 DUP4 ADD MLOAD DUP5 DUP3 SUB PUSH1 0x40 DUP7 ADD MSTORE PUSH2 0x3731 DUP3 DUP3 PUSH2 0x3597 JUMP JUMPDEST SWAP2 POP POP PUSH1 0x60 DUP4 ADD MLOAD PUSH1 0x60 DUP6 ADD MSTORE PUSH1 0x80 DUP4 ADD MLOAD DUP5 DUP3 SUB PUSH1 0x80 DUP7 ADD MSTORE PUSH2 0x3755 DUP3 DUP3 PUSH2 0x3597 JUMP JUMPDEST SWAP2 POP POP PUSH1 0xA0 DUP4 ADD MLOAD DUP5 DUP3 SUB PUSH1 0xA0 DUP7 ADD MSTORE PUSH2 0x376F DUP3 DUP3 PUSH2 0x3597 JUMP JUMPDEST SWAP2 POP POP PUSH1 0xC0 DUP4 ADD MLOAD DUP5 DUP3 SUB PUSH1 0xC0 DUP7 ADD MSTORE PUSH2 0x3789 DUP3 DUP3 PUSH2 0x36AE JUMP JUMPDEST SWAP2 POP POP PUSH1 0xE0 DUP4 ADD MLOAD PUSH1 0xE0 DUP6 ADD MSTORE PUSH2 0x100 DUP4 ADD MLOAD DUP5 DUP3 SUB PUSH2 0x100 DUP7 ADD MSTORE PUSH2 0x37AF DUP3 DUP3 PUSH2 0x36AE JUMP JUMPDEST SWAP2 POP POP PUSH2 0x120 DUP4 ADD MLOAD DUP5 DUP3 SUB PUSH2 0x120 DUP7 ADD MSTORE PUSH2 0x37CB DUP3 DUP3 PUSH2 0x3597 JUMP JUMPDEST SWAP2 POP POP PUSH2 0x140 DUP4 ADD MLOAD PUSH2 0x37EA PUSH2 0x140 DUP7 ADD DUP3 PUSH1 0x1 PUSH1 0x1 PUSH1 0xA0 SHL SUB AND SWAP1 MSTORE JUMP JUMPDEST POP PUSH2 0x160 DUP4 ADD MLOAD PUSH2 0x2FDB PUSH2 0x160 DUP7 ADD DUP3 PUSH1 0x1 PUSH1 0x1 PUSH1 0xA0 SHL SUB AND SWAP1 MSTORE JUMP JUMPDEST PUSH0 PUSH1 0x20 DUP3 ADD PUSH1 0x20 DUP4 MSTORE DUP1 DUP5 MLOAD DUP1 DUP4 MSTORE PUSH1 0x40 DUP6 ADD SWAP2 POP PUSH1 0x40 DUP2 PUSH1 0x5 SHL DUP7 ADD ADD SWAP3 POP PUSH1 0x20 DUP7 ADD PUSH0 JUMPDEST DUP3 DUP2 LT ISZERO PUSH2 0x385E JUMPI PUSH1 0x3F NOT DUP8 DUP7 SUB ADD DUP5 MSTORE PUSH2 0x3849 DUP6 DUP4 MLOAD PUSH2 0x36E8 JUMP JUMPDEST SWAP5 POP PUSH1 0x20 SWAP4 DUP5 ADD SWAP4 SWAP2 SWAP1 SWAP2 ADD SWAP1 PUSH1 0x1 ADD PUSH2 0x382D JUMP JUMPDEST POP SWAP3 SWAP7 SWAP6 POP POP POP POP POP POP JUMP JUMPDEST PUSH2 0x140 DUP2 MSTORE PUSH0 PUSH2 0x387E PUSH2 0x140 DUP4 ADD DUP14 PUSH2 0x3597 JUMP JUMPDEST DUP3 DUP2 SUB PUSH1 0x20 DUP5 ADD MSTORE PUSH2 0x3890 DUP2 DUP14 PUSH2 0x3597 JUMP JUMPDEST SWAP1 POP DUP3 DUP2 SUB PUSH1 0x40 DUP5 ADD MSTORE PUSH2 0x38A4 DUP2 DUP13 PUSH2 0x3597 JUMP JUMPDEST SWAP1 POP DUP10 PUSH1 0x60 DUP5 ADD MSTORE DUP3 DUP2 SUB PUSH1 0x80 DUP5 ADD MSTORE PUSH2 0x38BE DUP2 DUP11 PUSH2 0x3597 JUMP JUMPDEST SWAP1 POP DUP3 DUP2 SUB PUSH1 0xA0 DUP5 ADD MSTORE PUSH2 0x38D2 DUP2 DUP10 PUSH2 0x3597 JUMP JUMPDEST SWAP1 POP DUP7 PUSH1 0xC0 DUP5 ADD MSTORE DUP3 DUP2 SUB PUSH1 0xE0 DUP5 ADD MSTORE PUSH2 0x38EC DUP2 DUP8 PUSH2 0x3597 JUMP JUMPDEST PUSH1 0x1 PUSH1 0x1 PUSH1 0xA0 SHL SUB SWAP6 DUP7 AND PUSH2 0x100 DUP6 ADD MSTORE SWAP4 SWAP1 SWAP5 AND PUSH2 0x120 SWAP1 SWAP3 ADD SWAP2 SWAP1 SWAP2 MSTORE POP SWAP10 SWAP9 POP POP POP POP POP POP POP POP POP JUMP JUMPDEST PUSH1 0x20 DUP2 MSTORE PUSH0 PUSH2 0x2DFC PUSH1 0x20 DUP4 ADD DUP5 PUSH2 0x36E8 JUMP JUMPDEST PUSH0 DUP1 PUSH1 0x40 DUP4 DUP6 SUB SLT ISZERO PUSH2 0x393C JUMPI PUSH0 DUP1 REVERT JUMPDEST POP POP DUP1 CALLDATALOAD SWAP3 PUSH1 0x20 SWAP1 SWAP2 ADD CALLDATALOAD SWAP2 POP JUMP JUMPDEST PUSH4 0x4E487B71 PUSH1 0xE0 SHL PUSH0 MSTORE PUSH1 0x41 PUSH1 0x4 MSTORE PUSH1 0x24 PUSH0 REVERT JUMPDEST PUSH1 0x40 MLOAD PUSH1 0x1F DUP3 ADD PUSH1 0x1F NOT AND DUP2 ADD PUSH1 0x1 PUSH1 0x1 PUSH1 0x40 SHL SUB DUP2 GT DUP3 DUP3 LT OR ISZERO PUSH2 0x3987 JUMPI PUSH2 0x3987 PUSH2 0x394B JUMP JUMPDEST PUSH1 0x40 MSTORE SWAP2 SWAP1 POP JUMP JUMPDEST PUSH0 DUP1 PUSH1 0x1 PUSH1 0x1 PUSH1 0x40 SHL SUB DUP5 GT ISZERO PUSH2 0x39A8 JUMPI PUSH2 0x39A8 PUSH2 0x394B JUMP JUMPDEST POP PUSH1 0x1F DUP4 ADD PUSH1 0x1F NOT AND PUSH1 0x20 ADD PUSH2 0x39BD DUP2 PUSH2 0x395F JUMP JUMPDEST SWAP2 POP POP DUP3 DUP2 MSTORE DUP4 DUP4 DUP4 ADD GT ISZERO PUSH2 0x39D1 JUMPI PUSH0 DUP1 REVERT JUMPDEST DUP3 DUP3 PUSH1 0x20 DUP4 ADD CALLDATACOPY PUSH0 PUSH1 0x20 DUP5 DUP4 ADD ADD MSTORE SWAP4 SWAP3 POP POP POP JUMP JUMPDEST PUSH0 DUP3 PUSH1 0x1F DUP4 ADD SLT PUSH2 0x39F6 JUMPI PUSH0 DUP1 REVERT JUMPDEST PUSH2 0x2DFC DUP4 DUP4 CALLDATALOAD PUSH1 0x20 DUP6 ADD PUSH2 0x398F JUMP JUMPDEST PUSH0 DUP3 PUSH1 0x1F DUP4 ADD SLT PUSH2 0x3A14 JUMPI PUSH0 DUP1 REVERT JUMPDEST DUP2 CALLDATALOAD PUSH1 0x1 PUSH1 0x1 PUSH1 0x40 SHL SUB DUP2 GT ISZERO PUSH2 0x3A2D JUMPI PUSH2 0x3A2D PUSH2 0x394B JUMP JUMPDEST DUP1 PUSH1 0x5 SHL PUSH2 0x3A3D PUSH1 0x20 DUP3 ADD PUSH2 0x395F JUMP JUMPDEST SWAP2 DUP3 MSTORE PUSH1 0x20 DUP2 DUP6 ADD DUP2 ADD SWAP3 SWAP1 DUP2 ADD SWAP1 DUP7 DUP5 GT ISZERO PUSH2 0x3A58 JUMPI PUSH0 DUP1 REVERT JUMPDEST PUSH1 0x20 DUP7 ADD SWAP3 POP JUMPDEST DUP4 DUP4 LT ISZERO PUSH2 0x3A7A JUMPI DUP3 CALLDATALOAD DUP3 MSTORE PUSH1 0x20 SWAP3 DUP4 ADD SWAP3 SWAP1 SWAP2 ADD SWAP1 PUSH2 0x3A5F JUMP JUMPDEST SWAP7 SWAP6 POP POP POP POP POP POP JUMP JUMPDEST PUSH0 DUP1 PUSH0 DUP1 PUSH0 DUP1 PUSH0 DUP1 PUSH0 DUP1 PUSH0 PUSH2 0x160 DUP13 DUP15 SUB SLT ISZERO PUSH2 0x3A9F JUMPI PUSH0 DUP1 REVERT JUMPDEST PUSH2 0x3AA8 DUP13 PUSH2 0x35EE JUMP JUMPDEST SWAP11 POP PUSH1 0x20 DUP13 ADD CALLDATALOAD PUSH1 0x1 PUSH1 0x1 PUSH1 0x40 SHL SUB DUP2 GT ISZERO PUSH2 0x3AC2 JUMPI PUSH0 DUP1 REVERT JUMPDEST PUSH2 0x3ACE DUP15 DUP3 DUP16 ADD PUSH2 0x39E7 JUMP JUMPDEST SWAP11 POP POP PUSH1 0x40 DUP13 ADD CALLDATALOAD PUSH1 0x1 PUSH1 0x1 PUSH1 0x40 SHL SUB DUP2 GT ISZERO PUSH2 0x3AE9 JUMPI PUSH0 DUP1 REVERT JUMPDEST PUSH2 0x3AF5 DUP15 DUP3 DUP16 ADD PUSH2 0x39E7 JUMP JUMPDEST SWAP10 POP POP PUSH1 0x60 DUP13 ADD CALLDATALOAD PUSH1 0x1 PUSH1 0x1 PUSH1 0x40 SHL SUB DUP2 GT ISZERO PUSH2 0x3B10 JUMPI PUSH0 DUP1 REVERT JUMPDEST PUSH2 0x3B1C DUP15 DUP3 DUP16 ADD PUSH2 0x39E7 JUMP JUMPDEST SWAP9 POP POP PUSH1 0x80 DUP13 ADD CALLDATALOAD PUSH1 0x1 PUSH1 0x1 PUSH1 0x40 SHL SUB DUP2 GT ISZERO PUSH2 0x3B37 JUMPI PUSH0 DUP1 REVERT JUMPDEST PUSH2 0x3B43 DUP15 DUP3 DUP16 ADD PUSH2 0x39E7 JUMP JUMPDEST SWAP8 POP POP PUSH1 0xA0 DUP13 ADD CALLDATALOAD SWAP6 POP PUSH1 0xC0 DUP13 ADD CALLDATALOAD SWAP5 POP PUSH1 0xE0 DUP13 ADD CALLDATALOAD PUSH1 0x1 PUSH1 0x1 PUSH1 0x40 SHL SUB DUP2 GT ISZERO PUSH2 0x3B6C JUMPI PUSH0 DUP1 REVERT JUMPDEST PUSH2 0x3B78 DUP15 DUP3 DUP16 ADD PUSH2 0x39E7 JUMP JUMPDEST SWAP5 POP POP PUSH2 0x100 DUP13 ADD CALLDATALOAD PUSH1 0x1 PUSH1 0x1 PUSH1 0x40 SHL SUB DUP2 GT ISZERO PUSH2 0x3B94 JUMPI PUSH0 DUP1 REVERT JUMPDEST PUSH2 0x3BA0 DUP15 DUP3 DUP16 ADD PUSH2 0x39E7 JUMP JUMPDEST SWAP4 POP POP PUSH2 0x120 DUP13 ADD CALLDATALOAD PUSH1 0x1 PUSH1 0x1 PUSH1 0x40 SHL SUB DUP2 GT ISZERO PUSH2 0x3BBC JUMPI PUSH0 DUP1 REVERT JUMPDEST PUSH2 0x3BC8 DUP15 DUP3 DUP16 ADD PUSH2 0x3A05 JUMP JUMPDEST SWAP3 POP POP PUSH2 0x140 DUP13 ADD CALLDATALOAD PUSH1 0x1 PUSH1 0x1 PUSH1 0x40 SHL SUB DUP2 GT ISZERO PUSH2 0x3BE4 JUMPI PUSH0 DUP1 REVERT JUMPDEST PUSH2 0x3BF0 DUP15 DUP3 DUP16 ADD PUSH2 0x3A05 JUMP JUMPDEST SWAP2 POP POP SWAP3 SWAP6 SWAP9 SWAP12 POP SWAP3 SWAP6 SWAP9 SWAP12 SWAP1 SWAP4 SWAP7 SWAP10 POP JUMP JUMPDEST PUSH0 DUP1 PUSH1 0x40 DUP4 DUP6 SUB SLT ISZERO PUSH2 0x3C14 JUMPI PUSH0 DUP1 REVERT JUMPDEST PUSH2 0x3C1D DUP4 PUSH2 0x35EE JUMP JUMPDEST SWAP2 POP PUSH1 0x20 DUP4 ADD CALLDATALOAD DUP1 ISZERO ISZERO DUP2 EQ PUSH2 0x3C31 JUMPI PUSH0 DUP1 REVERT JUMPDEST DUP1 SWAP2 POP POP SWAP3 POP SWAP3 SWAP1 POP JUMP JUMPDEST PUSH0 PUSH1 0x20 DUP3 ADD PUSH1 0x20 DUP4 MSTORE DUP1 DUP5 MLOAD DUP1 DUP4 MSTORE PUSH1 0x40 DUP6 ADD SWAP2 POP PUSH1 0x40 DUP2 PUSH1 0x5 SHL DUP7 ADD ADD SWAP3 POP PUSH1 0x20 DUP7 ADD PUSH0 JUMPDEST DUP3 DUP2 LT ISZERO PUSH2 0x385E JUMPI PUSH1 0x3F NOT DUP8 DUP7 SUB ADD DUP5 MSTORE PUSH2 0x3C7E DUP6 DUP4 MLOAD PUSH2 0x3597 JUMP JUMPDEST SWAP5 POP PUSH1 0x20 SWAP4 DUP5 ADD SWAP4 SWAP2 SWAP1 SWAP2 ADD SWAP1 PUSH1 0x1 ADD PUSH2 0x3C62 JUMP JUMPDEST PUSH0 DUP1 PUSH0 DUP1 PUSH1 0x80 DUP6 DUP8 SUB SLT ISZERO PUSH2 0x3CA6 JUMPI PUSH0 DUP1 REVERT JUMPDEST PUSH2 0x3CAF DUP6 PUSH2 0x35EE JUMP JUMPDEST SWAP4 POP PUSH2 0x3CBD PUSH1 0x20 DUP7 ADD PUSH2 0x35EE JUMP JUMPDEST SWAP3 POP PUSH1 0x40 DUP6 ADD CALLDATALOAD SWAP2 POP PUSH1 0x60 DUP6 ADD CALLDATALOAD PUSH1 0x1 PUSH1 0x1 PUSH1 0x40 SHL SUB DUP2 GT ISZERO PUSH2 0x3CDE JUMPI PUSH0 DUP1 REVERT JUMPDEST DUP6 ADD PUSH1 0x1F DUP2 ADD DUP8 SGT PUSH2 0x3CEE JUMPI PUSH0 DUP1 REVERT JUMPDEST PUSH2 0x3CFD DUP8 DUP3 CALLDATALOAD PUSH1 0x20 DUP5 ADD PUSH2 0x398F JUMP JUMPDEST SWAP2 POP POP SWAP3 SWAP6 SWAP2 SWAP5 POP SWAP3 POP JUMP JUMPDEST PUSH0 DUP1 PUSH1 0x40 DUP4 DUP6 SUB SLT ISZERO PUSH2 0x3D1A JUMPI PUSH0 DUP1 REVERT JUMPDEST PUSH2 0x3D23 DUP4 PUSH2 0x35EE JUMP JUMPDEST SWAP2 POP PUSH2 0x368C PUSH1 0x20 DUP5 ADD PUSH2 0x35EE JUMP JUMPDEST PUSH1 0x20 DUP1 DUP3 MSTORE DUP3 MLOAD DUP3 DUP3 ADD DUP2 SWAP1 MSTORE PUSH0 SWAP2 DUP5 ADD SWAP1 PUSH1 0x40 DUP5 ADD SWAP1 DUP4 JUMPDEST DUP2 DUP2 LT ISZERO PUSH2 0x3D68 JUMPI DUP4 MLOAD DUP4 MSTORE PUSH1 0x20 SWAP4 DUP5 ADD SWAP4 SWAP1 SWAP3 ADD SWAP2 PUSH1 0x1 ADD PUSH2 0x3D4A JUMP JUMPDEST POP SWAP1 SWAP6 SWAP5 POP POP POP POP POP JUMP JUMPDEST PUSH0 DUP1 PUSH0 DUP1 PUSH0 DUP1 PUSH0 DUP1 PUSH0 DUP1 PUSH2 0x140 DUP12 DUP14 SUB SLT ISZERO PUSH2 0x3D8D JUMPI PUSH0 DUP1 REVERT JUMPDEST DUP11 CALLDATALOAD SWAP10 POP PUSH1 0x20 DUP12 ADD CALLDATALOAD PUSH1 0x1 PUSH1 0x1 PUSH1 0x40 SHL SUB DUP2 GT ISZERO PUSH2 0x3DA9 JUMPI PUSH0 DUP1 REVERT JUMPDEST PUSH2 0x3DB5 DUP14 DUP3 DUP15 ADD PUSH2 0x39E7 JUMP JUMPDEST SWAP10 POP POP PUSH1 0x40 DUP12 ADD CALLDATALOAD PUSH1 0x1 PUSH1 0x1 PUSH1 0x40 SHL SUB DUP2 GT ISZERO PUSH2 0x3DD0 JUMPI PUSH0 DUP1 REVERT JUMPDEST PUSH2 0x3DDC DUP14 DUP3 DUP15 ADD PUSH2 0x39E7 JUMP JUMPDEST SWAP9 POP POP PUSH1 0x60 DUP12 ADD CALLDATALOAD PUSH1 0x1 PUSH1 0x1 PUSH1 0x40 SHL SUB DUP2 GT ISZERO PUSH2 0x3DF7 JUMPI PUSH0 DUP1 REVERT JUMPDEST PUSH2 0x3E03 DUP14 DUP3 DUP15 ADD PUSH2 0x39E7 JUMP JUMPDEST SWAP8 POP POP PUSH1 0x80 DUP12 ADD CALLDATALOAD PUSH1 0x1 PUSH1 0x1 PUSH1 0x40 SHL SUB DUP2 GT ISZERO PUSH2 0x3E1E JUMPI PUSH0 DUP1 REVERT JUMPDEST PUSH2 0x3E2A DUP14 DUP3 DUP15 ADD PUSH2 0x39E7 JUMP JUMPDEST SWAP7 POP POP PUSH1 0xA0 DUP12 ADD CALLDATALOAD PUSH1 0x1 PUSH1 0x1 PUSH1 0x40 SHL SUB DUP2 GT ISZERO PUSH2 0x3E45 JUMPI PUSH0 DUP1 REVERT JUMPDEST PUSH2 0x3E51 DUP14 DUP3 DUP15 ADD PUSH2 0x39E7 JUMP JUMPDEST SWAP6 POP POP PUSH1 0xC0 DUP12 ADD CALLDATALOAD SWAP4 POP PUSH1 0xE0 DUP12 ADD CALLDATALOAD SWAP3 POP PUSH2 0x100 DUP12 ADD CALLDATALOAD PUSH1 0x1 PUSH1 0x1 PUSH1 0x40 SHL SUB DUP2 GT ISZERO PUSH2 0x3E7B JUMPI PUSH0 DUP1 REVERT JUMPDEST PUSH2 0x3E87 DUP14 DUP3 DUP15 ADD PUSH2 0x3A05 JUMP JUMPDEST SWAP3 POP POP PUSH2 0x120 DUP12 ADD CALLDATALOAD PUSH1 0x1 PUSH1 0x1 PUSH1 0x40 SHL SUB DUP2 GT ISZERO PUSH2 0x3EA3 JUMPI PUSH0 DUP1 REVERT JUMPDEST PUSH2 0x3EAF DUP14 DUP3 DUP15 ADD PUSH2 0x3A05 JUMP JUMPDEST SWAP2 POP POP SWAP3 SWAP6 SWAP9 SWAP12 SWAP2 SWAP5 SWAP8 SWAP11 POP SWAP3 SWAP6 SWAP9 POP JUMP JUMPDEST PUSH1 0x1 DUP2 DUP2 SHR SWAP1 DUP3 AND DUP1 PUSH2 0x3ED5 JUMPI PUSH1 0x7F DUP3 AND SWAP2 POP JUMPDEST PUSH1 0x20 DUP3 LT DUP2 SUB PUSH2 0x3EF3 JUMPI PUSH4 0x4E487B71 PUSH1 0xE0 SHL PUSH0 MSTORE PUSH1 0x22 PUSH1 0x4 MSTORE PUSH1 0x24 PUSH0 REVERT JUMPDEST POP SWAP2 SWAP1 POP JUMP JUMPDEST PUSH1 0x1F DUP3 GT ISZERO PUSH2 0x9A1 JUMPI DUP1 PUSH0 MSTORE PUSH1 0x20 PUSH0 KECCAK256 PUSH1 0x1F DUP5 ADD PUSH1 0x5 SHR DUP2 ADD PUSH1 0x20 DUP6 LT ISZERO PUSH2 0x3F1E JUMPI POP DUP1 JUMPDEST PUSH1 0x1F DUP5 ADD PUSH1 0x5 SHR DUP3 ADD SWAP2 POP JUMPDEST DUP2 DUP2 LT ISZERO PUSH2 0x2826 JUMPI PUSH0 DUP2 SSTORE PUSH1 0x1 ADD PUSH2 0x3F2A JUMP JUMPDEST DUP2 MLOAD PUSH1 0x1 PUSH1 0x1 PUSH1 0x40 SHL SUB DUP2 GT ISZERO PUSH2 0x3F56 JUMPI PUSH2 0x3F56 PUSH2 0x394B JUMP JUMPDEST PUSH2 0x3F6A DUP2 PUSH2 0x3F64 DUP5 SLOAD PUSH2 0x3EC1 JUMP JUMPDEST DUP5 PUSH2 0x3EF9 JUMP JUMPDEST PUSH1 0x20 PUSH1 0x1F DUP3 GT PUSH1 0x1 DUP2 EQ PUSH2 0x3F9C JUMPI PUSH0 DUP4 ISZERO PUSH2 0x3F85 JUMPI POP DUP5 DUP3 ADD MLOAD JUMPDEST PUSH0 NOT PUSH1 0x3 DUP6 SWAP1 SHL SHR NOT AND PUSH1 0x1 DUP5 SWAP1 SHL OR DUP5 SSTORE PUSH2 0x2826 JUMP JUMPDEST PUSH0 DUP5 DUP2 MSTORE PUSH1 0x20 DUP2 KECCAK256 PUSH1 0x1F NOT DUP6 AND SWAP2 JUMPDEST DUP3 DUP2 LT ISZERO PUSH2 0x3FCB JUMPI DUP8 DUP6 ADD MLOAD DUP3 SSTORE PUSH1 0x20 SWAP5 DUP6 ADD SWAP5 PUSH1 0x1 SWAP1 SWAP3 ADD SWAP2 ADD PUSH2 0x3FAB JUMP JUMPDEST POP DUP5 DUP3 LT ISZERO PUSH2 0x3FE8 JUMPI DUP7 DUP5 ADD MLOAD PUSH0 NOT PUSH1 0x3 DUP8 SWAP1 SHL PUSH1 0xF8 AND SHR NOT AND DUP2 SSTORE JUMPDEST POP POP POP POP PUSH1 0x1 SWAP1 DUP2 SHL ADD SWAP1 SSTORE POP JUMP JUMPDEST PUSH4 0x4E487B71 PUSH1 0xE0 SHL PUSH0 MSTORE PUSH1 0x11 PUSH1 0x4 MSTORE PUSH1 0x24 PUSH0 REVERT JUMPDEST PUSH0 PUSH1 0x1 DUP3 ADD PUSH2 0x401C JUMPI PUSH2 0x401C PUSH2 0x3FF7 JUMP JUMPDEST POP PUSH1 0x1 ADD SWAP1 JUMP JUMPDEST DUP2 DUP2 SUB DUP2 DUP2 GT ISZERO PUSH2 0x679 JUMPI PUSH2 0x679 PUSH2 0x3FF7 JUMP JUMPDEST PUSH4 0x4E487B71 PUSH1 0xE0 SHL PUSH0 MSTORE PUSH1 0x32 PUSH1 0x4 MSTORE PUSH1 0x24 PUSH0 REVERT JUMPDEST PUSH1 0x20 DUP1 DUP3 MSTORE PUSH1 0x21 SWAP1 DUP3 ADD MSTORE PUSH32 0x596F7520617265206E6F7420746865206F776E6572206F662074686973207065 PUSH1 0x40 DUP3 ADD MSTORE PUSH1 0x1D PUSH1 0xFA SHL PUSH1 0x60 DUP3 ADD MSTORE PUSH1 0x80 ADD SWAP1 JUMP JUMPDEST DUP4 DUP2 MSTORE PUSH1 0x60 PUSH1 0x20 DUP3 ADD MSTORE PUSH0 PUSH2 0x40A3 PUSH1 0x60 DUP4 ADD DUP6 PUSH2 0x3597 JUMP JUMPDEST SWAP1 POP PUSH1 0x1 DUP1 PUSH1 0xA0 SHL SUB DUP4 AND PUSH1 0x40 DUP4 ADD MSTORE SWAP5 SWAP4 POP POP POP POP JUMP JUMPDEST PUSH1 0x20 DUP1 DUP3 MSTORE PUSH1 0x12 SWAP1 DUP3 ADD MSTORE PUSH18 0x14195D08191BD95CC81B9BDD08195E1A5CDD PUSH1 0x72 SHL PUSH1 0x40 DUP3 ADD MSTORE PUSH1 0x60 ADD SWAP1 JUMP JUMPDEST PUSH0 DUP2 MLOAD DUP1 PUSH1 0x20 DUP5 ADD DUP6 MCOPY PUSH0 SWAP4 ADD SWAP3 DUP4 MSTORE POP SWAP1 SWAP2 SWAP1 POP JUMP JUMPDEST PUSH19 0x2832BA103A3930B739B332B93932B2103A379 PUSH1 0x6D SHL DUP2 MSTORE PUSH0 PUSH2 0x2DFC PUSH1 0x13 DUP4 ADD DUP5 PUSH2 0x40E7 JUMP JUMPDEST PUSH4 0x4E487B71 PUSH1 0xE0 SHL PUSH0 MSTORE PUSH1 0x12 PUSH1 0x4 MSTORE PUSH1 0x24 PUSH0 REVERT JUMPDEST PUSH0 DUP3 PUSH2 0x4147 JUMPI PUSH2 0x4147 PUSH2 0x4125 JUMP JUMPDEST POP DIV SWAP1 JUMP JUMPDEST PUSH0 PUSH2 0x4157 DUP3 DUP7 PUSH2 0x40E7 JUMP JUMPDEST PUSH1 0x1F PUSH1 0xFA SHL DUP2 MSTORE PUSH2 0x416B PUSH1 0x1 DUP3 ADD DUP7 PUSH2 0x40E7 JUMP JUMPDEST SWAP1 POP PUSH1 0x1F PUSH1 0xFA SHL DUP2 MSTORE PUSH2 0x3A7A PUSH1 0x1 DUP3 ADD DUP6 PUSH2 0x40E7 JUMP JUMPDEST DUP5 DUP2 MSTORE PUSH1 0x80 PUSH1 0x20 DUP3 ADD MSTORE PUSH0 PUSH2 0x4199 PUSH1 0x80 DUP4 ADD DUP7 PUSH2 0x3597 JUMP JUMPDEST DUP3 DUP2 SUB PUSH1 0x40 DUP5 ADD MSTORE PUSH2 0x41AB DUP2 DUP7 PUSH2 0x3597 JUMP JUMPDEST SWAP2 POP POP DUP3 PUSH1 0x60 DUP4 ADD MSTORE SWAP6 SWAP5 POP POP POP POP POP JUMP JUMPDEST PUSH1 0x1 PUSH1 0x1 PUSH1 0xA0 SHL SUB DUP6 DUP2 AND DUP3 MSTORE DUP5 AND PUSH1 0x20 DUP3 ADD MSTORE PUSH1 0x40 DUP2 ADD DUP4 SWAP1 MSTORE PUSH1 0x80 PUSH1 0x60 DUP3 ADD DUP2 SWAP1 MSTORE PUSH0 SWAP1 PUSH2 0x3A7A SWAP1 DUP4 ADD DUP5 PUSH2 0x3597 JUMP JUMPDEST PUSH0 PUSH1 0x20 DUP3 DUP5 SUB SLT ISZERO PUSH2 0x41FF JUMPI PUSH0 DUP1 REVERT JUMPDEST DUP2 MLOAD PUSH2 0x2DFC DUP2 PUSH2 0x3567 JUMP JUMPDEST PUSH0 PUSH2 0x241A PUSH2 0x4218 DUP4 DUP7 PUSH2 0x40E7 JUMP JUMPDEST DUP5 PUSH2 0x40E7 JUMP JUMPDEST DUP1 DUP3 MUL DUP2 ISZERO DUP3 DUP3 DIV DUP5 EQ OR PUSH2 0x679 JUMPI PUSH2 0x679 PUSH2 0x3FF7 JUMP JUMPDEST PUSH1 0x1 DUP2 JUMPDEST PUSH1 0x1 DUP5 GT ISZERO PUSH2 0x4270 JUMPI DUP1 DUP6 DIV DUP2 GT ISZERO PUSH2 0x4254 JUMPI PUSH2 0x4254 PUSH2 0x3FF7 JUMP JUMPDEST PUSH1 0x1 DUP5 AND ISZERO PUSH2 0x4262 JUMPI SWAP1 DUP2 MUL SWAP1 JUMPDEST PUSH1 0x1 SWAP4 SWAP1 SWAP4 SHR SWAP3 DUP1 MUL PUSH2 0x4239 JUMP JUMPDEST SWAP4 POP SWAP4 SWAP2 POP POP JUMP JUMPDEST PUSH0 DUP3 PUSH2 0x4286 JUMPI POP PUSH1 0x1 PUSH2 0x679 JUMP JUMPDEST DUP2 PUSH2 0x4292 JUMPI POP PUSH0 PUSH2 0x679 JUMP JUMPDEST DUP2 PUSH1 0x1 DUP2 EQ PUSH2 0x42A8 JUMPI PUSH1 0x2 DUP2 EQ PUSH2 0x42B2 JUMPI PUSH2 0x42CE JUMP JUMPDEST PUSH1 0x1 SWAP2 POP POP PUSH2 0x679 JUMP JUMPDEST PUSH1 0xFF DUP5 GT ISZERO PUSH2 0x42C3 JUMPI PUSH2 0x42C3 PUSH2 0x3FF7 JUMP JUMPDEST POP POP PUSH1 0x1 DUP3 SHL PUSH2 0x679 JUMP JUMPDEST POP PUSH1 0x20 DUP4 LT PUSH2 0x133 DUP4 LT AND PUSH1 0x4E DUP5 LT PUSH1 0xB DUP5 LT AND OR ISZERO PUSH2 0x42F1 JUMPI POP DUP2 DUP2 EXP PUSH2 0x679 JUMP JUMPDEST PUSH2 0x42FD PUSH0 NOT DUP5 DUP5 PUSH2 0x4235 JUMP JUMPDEST DUP1 PUSH0 NOT DIV DUP3 GT ISZERO PUSH2 0x4310 JUMPI PUSH2 0x4310 PUSH2 0x3FF7 JUMP JUMPDEST MUL SWAP4 SWAP3 POP POP POP JUMP JUMPDEST PUSH0 PUSH2 0x2DFC DUP4 DUP4 PUSH2 0x4278 JUMP JUMPDEST DUP1 DUP3 ADD DUP1 DUP3 GT ISZERO PUSH2 0x679 JUMPI PUSH2 0x679 PUSH2 0x3FF7 JUMP JUMPDEST PUSH0 DUP3 PUSH2 0x4344 JUMPI PUSH2 0x4344 PUSH2 0x4125 JUMP JUMPDEST POP MOD SWAP1 JUMP JUMPDEST PUSH4 0x4E487B71 PUSH1 0xE0 SHL PUSH0 MSTORE PUSH1 0x31 PUSH1 0x4 MSTORE PUSH1 0x24 PUSH0 REVERT INVALID PUSH6 0xD7A28E3265B3 PUSH27 0x6474929F336521B332C1681B933F6CB9F3376673440D862A9F2DF0 INVALID 0xD2 0xC7 PUSH23 0x48DE5860A4CC508CD0818C85B8B8A1AB4CEEEF8D981C89 JUMP 0xA6 LOG2 PUSH5 0x6970667358 0x22 SLT KECCAK256 0xC0 0x2A 0x4D DUP2 COINBASE PUSH16 0x1F4CAB5D18926366899968B91CA81458 0xBF SHL 0xE3 DUP13 STATICCALL BASEFEE 0x2C 0xBF 0x28 MULMOD PUSH5 0x736F6C6343 STOP ADDMOD BYTE STOP CALLER "
		},
		"gasEstimates": {
			"creation": {
				"codeDepositCost": "3472600",
				"executionCost": "infinite",
				"totalCost": "infinite"
			},
			"external": {
				"DEFAULT_ADMIN_ROLE()": "304",
				"MINTER_ROLE()": "infinite",
				"PAUSER_ROLE()": "infinite",
				"approve(address,uint256)": "31634",
				"balanceOf(address)": "2653",
				"burn(uint256)": "infinite",
				"getApproved(uint256)": "infinite",
				"getPetInfo(uint256)": "infinite",
				"getPetLogs(uint256)": "infinite",
				"getPetsByOwner(address)": "infinite",
				"getRoleAdmin(bytes32)": "2531",
				"getVaccinesList(uint256)": "infinite",
				"grantMinterRole(address)": "infinite",
				"grantPauserRole(address)": "infinite",
				"grantRole(bytes32,address)": "infinite",
				"hasRole(bytes32,address)": "2718",
				"isApprovedForAll(address,address)": "infinite",
				"name()": "infinite",
				"ownerOf(uint256)": "infinite",
				"pause()": "infinite",
				"paused()": "2381",
				"petList(uint256)": "infinite",
				"petLogs(uint256,uint256)": "infinite",
				"petOwnership(uint256)": "2628",
				"petToVeterinary(uint256)": "2630",
				"removePet(uint256)": "infinite",
				"renounceRole(bytes32,address)": "29180",
				"revokeMinterRole(address)": "infinite",
				"revokePauserRole(address)": "infinite",
				"revokeRole(bytes32,address)": "infinite",
				"safeMint(address,string,string,string,string,uint256,uint256,string,string,uint256[],uint256[])": "infinite",
				"safeTransferFrom(address,address,uint256)": "infinite",
				"safeTransferFrom(address,address,uint256,bytes)": "infinite",
				"setApprovalForAll(address,bool)": "26789",
				"setPetInSurgery(uint256)": "infinite",
				"supportsInterface(bytes4)": "infinite",
				"symbol()": "infinite",
				"tokenByIndex(uint256)": "6777",
				"tokenOfOwnerByIndex(address,uint256)": "5058",
				"tokenURI(uint256)": "infinite",
				"totalSupply()": "2326",
				"transferFrom(address,address,uint256)": "infinite",
				"transferPet(uint256,address)": "infinite",
				"unassignVeterinary(uint256)": "infinite",
				"unpause()": "infinite",
				"updatePetInfo(uint256,string,string,string,string,string,uint256,uint256,uint256[],uint256[])": "infinite"
			},
			"internal": {
				"_addLog(uint256,string memory,string memory,uint256)": "infinite",
				"_addressToString(address)": "infinite",
				"_increaseBalance(address,uint128)": "infinite",
				"_update(address,uint256,address)": "infinite"
			}
		},
		"methodIdentifiers": {
			"DEFAULT_ADMIN_ROLE()": "a217fddf",
			"MINTER_ROLE()": "d5391393",
			"PAUSER_ROLE()": "e63ab1e9",
			"approve(address,uint256)": "095ea7b3",
			"balanceOf(address)": "70a08231",
			"burn(uint256)": "42966c68",
			"getApproved(uint256)": "081812fc",
			"getPetInfo(uint256)": "69c3f316",
			"getPetLogs(uint256)": "b7c971ff",
			"getPetsByOwner(address)": "36dc7676",
			"getRoleAdmin(bytes32)": "248a9ca3",
			"getVaccinesList(uint256)": "fabce2d4",
			"grantMinterRole(address)": "3dd1eb61",
			"grantPauserRole(address)": "6c11c21c",
			"grantRole(bytes32,address)": "2f2ff15d",
			"hasRole(bytes32,address)": "91d14854",
			"isApprovedForAll(address,address)": "e985e9c5",
			"name()": "06fdde03",
			"ownerOf(uint256)": "6352211e",
			"pause()": "8456cb59",
			"paused()": "5c975abb",
			"petList(uint256)": "4a9699ef",
			"petLogs(uint256,uint256)": "7f352df6",
			"petOwnership(uint256)": "fe736b71",
			"petToVeterinary(uint256)": "447865eb",
			"removePet(uint256)": "8e5e7d67",
			"renounceRole(bytes32,address)": "36568abe",
			"revokeMinterRole(address)": "69e2f0fb",
			"revokePauserRole(address)": "f865af08",
			"revokeRole(bytes32,address)": "d547741f",
			"safeMint(address,string,string,string,string,uint256,uint256,string,string,uint256[],uint256[])": "825d91d4",
			"safeTransferFrom(address,address,uint256)": "42842e0e",
			"safeTransferFrom(address,address,uint256,bytes)": "b88d4fde",
			"setApprovalForAll(address,bool)": "a22cb465",
			"setPetInSurgery(uint256)": "08920ab8",
			"supportsInterface(bytes4)": "01ffc9a7",
			"symbol()": "95d89b41",
			"tokenByIndex(uint256)": "4f6ccce7",
			"tokenOfOwnerByIndex(address,uint256)": "2f745c59",
			"tokenURI(uint256)": "c87b56dd",
			"totalSupply()": "18160ddd",
			"transferFrom(address,address,uint256)": "23b872dd",
			"transferPet(uint256,address)": "f4c7d765",
			"unassignVeterinary(uint256)": "e89cc0f4",
			"unpause()": "3f4ba83a",
			"updatePetInfo(uint256,string,string,string,string,string,uint256,uint256,uint256[],uint256[])": "fcbe62f1"
		}
	},
	"abi": [
		{
			"inputs": [
				{
					"internalType": "address",
					"name": "_defaultAdmin",
					"type": "address"
				}
			],
			"stateMutability": "nonpayable",
			"type": "constructor"
		},
		{
			"inputs": [],
			"name": "AccessControlBadConfirmation",
			"type": "error"
		},
		{
			"inputs": [
				{
					"internalType": "address",
					"name": "account",
					"type": "address"
				},
				{
					"internalType": "bytes32",
					"name": "neededRole",
					"type": "bytes32"
				}
			],
			"name": "AccessControlUnauthorizedAccount",
			"type": "error"
		},
		{
			"inputs": [],
			"name": "ERC721EnumerableForbiddenBatchMint",
			"type": "error"
		},
		{
			"inputs": [
				{
					"internalType": "address",
					"name": "sender",
					"type": "address"
				},
				{
					"internalType": "uint256",
					"name": "tokenId",
					"type": "uint256"
				},
				{
					"internalType": "address",
					"name": "owner",
					"type": "address"
				}
			],
			"name": "ERC721IncorrectOwner",
			"type": "error"
		},
		{
			"inputs": [
				{
					"internalType": "address",
					"name": "operator",
					"type": "address"
				},
				{
					"internalType": "uint256",
					"name": "tokenId",
					"type": "uint256"
				}
			],
			"name": "ERC721InsufficientApproval",
			"type": "error"
		},
		{
			"inputs": [
				{
					"internalType": "address",
					"name": "approver",
					"type": "address"
				}
			],
			"name": "ERC721InvalidApprover",
			"type": "error"
		},
		{
			"inputs": [
				{
					"internalType": "address",
					"name": "operator",
					"type": "address"
				}
			],
			"name": "ERC721InvalidOperator",
			"type": "error"
		},
		{
			"inputs": [
				{
					"internalType": "address",
					"name": "owner",
					"type": "address"
				}
			],
			"name": "ERC721InvalidOwner",
			"type": "error"
		},
		{
			"inputs": [
				{
					"internalType": "address",
					"name": "receiver",
					"type": "address"
				}
			],
			"name": "ERC721InvalidReceiver",
			"type": "error"
		},
		{
			"inputs": [
				{
					"internalType": "address",
					"name": "sender",
					"type": "address"
				}
			],
			"name": "ERC721InvalidSender",
			"type": "error"
		},
		{
			"inputs": [
				{
					"internalType": "uint256",
					"name": "tokenId",
					"type": "uint256"
				}
			],
			"name": "ERC721NonexistentToken",
			"type": "error"
		},
		{
			"inputs": [
				{
					"internalType": "address",
					"name": "owner",
					"type": "address"
				},
				{
					"internalType": "uint256",
					"name": "index",
					"type": "uint256"
				}
			],
			"name": "ERC721OutOfBoundsIndex",
			"type": "error"
		},
		{
			"inputs": [],
			"name": "EnforcedPause",
			"type": "error"
		},
		{
			"inputs": [],
			"name": "ExpectedPause",
			"type": "error"
		},
		{
			"anonymous": false,
			"inputs": [
				{
					"indexed": true,
					"internalType": "address",
					"name": "owner",
					"type": "address"
				},
				{
					"indexed": true,
					"internalType": "address",
					"name": "approved",
					"type": "address"
				},
				{
					"indexed": true,
					"internalType": "uint256",
					"name": "tokenId",
					"type": "uint256"
				}
			],
			"name": "Approval",
			"type": "event"
		},
		{
			"anonymous": false,
			"inputs": [
				{
					"indexed": true,
					"internalType": "address",
					"name": "owner",
					"type": "address"
				},
				{
					"indexed": true,
					"internalType": "address",
					"name": "operator",
					"type": "address"
				},
				{
					"indexed": false,
					"internalType": "bool",
					"name": "approved",
					"type": "bool"
				}
			],
			"name": "ApprovalForAll",
			"type": "event"
		},
		{
			"anonymous": false,
			"inputs": [
				{
					"indexed": false,
					"internalType": "uint256",
					"name": "_fromTokenId",
					"type": "uint256"
				},
				{
					"indexed": false,
					"internalType": "uint256",
					"name": "_toTokenId",
					"type": "uint256"
				}
			],
			"name": "BatchMetadataUpdate",
			"type": "event"
		},
		{
			"anonymous": false,
			"inputs": [
				{
					"indexed": false,
					"internalType": "uint256",
					"name": "tokenId",
					"type": "uint256"
				},
				{
					"indexed": false,
					"internalType": "address",
					"name": "from",
					"type": "address"
				},
				{
					"indexed": false,
					"internalType": "address",
					"name": "to",
					"type": "address"
				}
			],
			"name": "DogTransferred",
			"type": "event"
		},
		{
			"anonymous": false,
			"inputs": [
				{
					"indexed": false,
					"internalType": "uint256",
					"name": "tokenId",
					"type": "uint256"
				},
				{
					"indexed": false,
					"internalType": "string",
					"name": "logType",
					"type": "string"
				},
				{
					"indexed": false,
					"internalType": "string",
					"name": "description",
					"type": "string"
				},
				{
					"indexed": false,
					"internalType": "uint256",
					"name": "timestamp",
					"type": "uint256"
				}
			],
			"name": "LogAdded",
			"type": "event"
		},
		{
			"anonymous": false,
			"inputs": [
				{
					"indexed": false,
					"internalType": "uint256",
					"name": "_tokenId",
					"type": "uint256"
				}
			],
			"name": "MetadataUpdate",
			"type": "event"
		},
		{
			"anonymous": false,
			"inputs": [
				{
					"indexed": false,
					"internalType": "address",
					"name": "ownerAddress",
					"type": "address"
				},
				{
					"indexed": false,
					"internalType": "string",
					"name": "name",
					"type": "string"
				},
				{
					"indexed": false,
					"internalType": "uint256",
					"name": "age",
					"type": "uint256"
				},
				{
					"indexed": false,
					"internalType": "string",
					"name": "sex",
					"type": "string"
				},
				{
					"indexed": false,
					"internalType": "string",
					"name": "locationAddress",
					"type": "string"
				},
				{
					"indexed": false,
					"internalType": "string",
					"name": "country",
					"type": "string"
				},
				{
					"indexed": false,
					"internalType": "string",
					"name": "telephone",
					"type": "string"
				},
				{
					"indexed": false,
					"internalType": "uint256",
					"name": "badge",
					"type": "uint256"
				}
			],
			"name": "OwnerInfoAdded",
			"type": "event"
		},
		{
			"anonymous": false,
			"inputs": [
				{
					"indexed": false,
					"internalType": "address",
					"name": "account",
					"type": "address"
				}
			],
			"name": "Paused",
			"type": "event"
		},
		{
			"anonymous": false,
			"inputs": [
				{
					"indexed": false,
					"internalType": "uint256",
					"name": "tokenId",
					"type": "uint256"
				},
				{
					"indexed": false,
					"internalType": "address",
					"name": "owner",
					"type": "address"
				}
			],
			"name": "PetRemoved",
			"type": "event"
		},
		{
			"anonymous": false,
			"inputs": [
				{
					"indexed": false,
					"internalType": "uint256",
					"name": "tokenId",
					"type": "uint256"
				},
				{
					"indexed": false,
					"internalType": "string",
					"name": "name",
					"type": "string"
				},
				{
					"indexed": false,
					"internalType": "address",
					"name": "owner",
					"type": "address"
				}
			],
			"name": "PetSafeMinted",
			"type": "event"
		},
		{
			"anonymous": false,
			"inputs": [
				{
					"indexed": true,
					"internalType": "uint256",
					"name": "tokenId",
					"type": "uint256"
				},
				{
					"indexed": true,
					"internalType": "address",
					"name": "from",
					"type": "address"
				},
				{
					"indexed": true,
					"internalType": "address",
					"name": "to",
					"type": "address"
				}
			],
			"name": "PetTransferred",
			"type": "event"
		},
		{
			"anonymous": false,
			"inputs": [
				{
					"indexed": true,
					"internalType": "bytes32",
					"name": "role",
					"type": "bytes32"
				},
				{
					"indexed": true,
					"internalType": "bytes32",
					"name": "previousAdminRole",
					"type": "bytes32"
				},
				{
					"indexed": true,
					"internalType": "bytes32",
					"name": "newAdminRole",
					"type": "bytes32"
				}
			],
			"name": "RoleAdminChanged",
			"type": "event"
		},
		{
			"anonymous": false,
			"inputs": [
				{
					"indexed": true,
					"internalType": "bytes32",
					"name": "role",
					"type": "bytes32"
				},
				{
					"indexed": true,
					"internalType": "address",
					"name": "account",
					"type": "address"
				},
				{
					"indexed": true,
					"internalType": "address",
					"name": "sender",
					"type": "address"
				}
			],
			"name": "RoleGranted",
			"type": "event"
		},
		{
			"anonymous": false,
			"inputs": [
				{
					"indexed": true,
					"internalType": "bytes32",
					"name": "role",
					"type": "bytes32"
				},
				{
					"indexed": true,
					"internalType": "address",
					"name": "account",
					"type": "address"
				},
				{
					"indexed": true,
					"internalType": "address",
					"name": "sender",
					"type": "address"
				}
			],
			"name": "RoleRevoked",
			"type": "event"
		},
		{
			"anonymous": false,
			"inputs": [
				{
					"indexed": true,
					"internalType": "address",
					"name": "from",
					"type": "address"
				},
				{
					"indexed": true,
					"internalType": "address",
					"name": "to",
					"type": "address"
				},
				{
					"indexed": true,
					"internalType": "uint256",
					"name": "tokenId",
					"type": "uint256"
				}
			],
			"name": "Transfer",
			"type": "event"
		},
		{
			"anonymous": false,
			"inputs": [
				{
					"indexed": false,
					"internalType": "address",
					"name": "account",
					"type": "address"
				}
			],
			"name": "Unpaused",
			"type": "event"
		},
		{
			"inputs": [],
			"name": "DEFAULT_ADMIN_ROLE",
			"outputs": [
				{
					"internalType": "bytes32",
					"name": "",
					"type": "bytes32"
				}
			],
			"stateMutability": "view",
			"type": "function"
		},
		{
			"inputs": [],
			"name": "MINTER_ROLE",
			"outputs": [
				{
					"internalType": "bytes32",
					"name": "",
					"type": "bytes32"
				}
			],
			"stateMutability": "view",
			"type": "function"
		},
		{
			"inputs": [],
			"name": "PAUSER_ROLE",
			"outputs": [
				{
					"internalType": "bytes32",
					"name": "",
					"type": "bytes32"
				}
			],
			"stateMutability": "view",
			"type": "function"
		},
		{
			"inputs": [
				{
					"internalType": "address",
					"name": "to",
					"type": "address"
				},
				{
					"internalType": "uint256",
					"name": "tokenId",
					"type": "uint256"
				}
			],
			"name": "approve",
			"outputs": [],
			"stateMutability": "nonpayable",
			"type": "function"
		},
		{
			"inputs": [
				{
					"internalType": "address",
					"name": "owner",
					"type": "address"
				}
			],
			"name": "balanceOf",
			"outputs": [
				{
					"internalType": "uint256",
					"name": "",
					"type": "uint256"
				}
			],
			"stateMutability": "view",
			"type": "function"
		},
		{
			"inputs": [
				{
					"internalType": "uint256",
					"name": "tokenId",
					"type": "uint256"
				}
			],
			"name": "burn",
			"outputs": [],
			"stateMutability": "nonpayable",
			"type": "function"
		},
		{
			"inputs": [
				{
					"internalType": "uint256",
					"name": "tokenId",
					"type": "uint256"
				}
			],
			"name": "getApproved",
			"outputs": [
				{
					"internalType": "address",
					"name": "",
					"type": "address"
				}
			],
			"stateMutability": "view",
			"type": "function"
		},
		{
			"inputs": [
				{
					"internalType": "uint256",
					"name": "tokenId",
					"type": "uint256"
				}
			],
			"name": "getPetInfo",
			"outputs": [
				{
					"components": [
						{
							"internalType": "string",
							"name": "name",
							"type": "string"
						},
						{
							"internalType": "string",
							"name": "breed",
							"type": "string"
						},
						{
							"internalType": "string",
							"name": "color",
							"type": "string"
						},
						{
							"internalType": "uint256",
							"name": "age",
							"type": "uint256"
						},
						{
							"internalType": "string",
							"name": "sex",
							"type": "string"
						},
						{
							"internalType": "string",
							"name": "birthdate",
							"type": "string"
						},
						{
							"internalType": "uint256[]",
							"name": "vaccinesList",
							"type": "uint256[]"
						},
						{
							"internalType": "uint256",
							"name": "weight",
							"type": "uint256"
						},
						{
							"internalType": "uint256[]",
							"name": "surgeries",
							"type": "uint256[]"
						},
						{
							"internalType": "string",
							"name": "status",
							"type": "string"
						},
						{
							"internalType": "address",
							"name": "owner",
							"type": "address"
						},
						{
							"internalType": "address",
							"name": "veterinaryAddressRef",
							"type": "address"
						}
					],
					"internalType": "struct DoggosToken.Pet",
					"name": "",
					"type": "tuple"
				}
			],
			"stateMutability": "view",
			"type": "function"
		},
		{
			"inputs": [
				{
					"internalType": "uint256",
					"name": "tokenId",
					"type": "uint256"
				}
			],
			"name": "getPetLogs",
			"outputs": [
				{
					"internalType": "string[]",
					"name": "logs",
					"type": "string[]"
				}
			],
			"stateMutability": "view",
			"type": "function"
		},
		{
			"inputs": [
				{
					"internalType": "address",
					"name": "owner",
					"type": "address"
				}
			],
			"name": "getPetsByOwner",
			"outputs": [
				{
					"components": [
						{
							"internalType": "string",
							"name": "name",
							"type": "string"
						},
						{
							"internalType": "string",
							"name": "breed",
							"type": "string"
						},
						{
							"internalType": "string",
							"name": "color",
							"type": "string"
						},
						{
							"internalType": "uint256",
							"name": "age",
							"type": "uint256"
						},
						{
							"internalType": "string",
							"name": "sex",
							"type": "string"
						},
						{
							"internalType": "string",
							"name": "birthdate",
							"type": "string"
						},
						{
							"internalType": "uint256[]",
							"name": "vaccinesList",
							"type": "uint256[]"
						},
						{
							"internalType": "uint256",
							"name": "weight",
							"type": "uint256"
						},
						{
							"internalType": "uint256[]",
							"name": "surgeries",
							"type": "uint256[]"
						},
						{
							"internalType": "string",
							"name": "status",
							"type": "string"
						},
						{
							"internalType": "address",
							"name": "owner",
							"type": "address"
						},
						{
							"internalType": "address",
							"name": "veterinaryAddressRef",
							"type": "address"
						}
					],
					"internalType": "struct DoggosToken.Pet[]",
					"name": "",
					"type": "tuple[]"
				}
			],
			"stateMutability": "view",
			"type": "function"
		},
		{
			"inputs": [
				{
					"internalType": "bytes32",
					"name": "role",
					"type": "bytes32"
				}
			],
			"name": "getRoleAdmin",
			"outputs": [
				{
					"internalType": "bytes32",
					"name": "",
					"type": "bytes32"
				}
			],
			"stateMutability": "view",
			"type": "function"
		},
		{
			"inputs": [
				{
					"internalType": "uint256",
					"name": "tokenId",
					"type": "uint256"
				}
			],
			"name": "getVaccinesList",
			"outputs": [
				{
					"internalType": "uint256[]",
					"name": "",
					"type": "uint256[]"
				}
			],
			"stateMutability": "view",
			"type": "function"
		},
		{
			"inputs": [
				{
					"internalType": "address",
					"name": "_minter",
					"type": "address"
				}
			],
			"name": "grantMinterRole",
			"outputs": [],
			"stateMutability": "nonpayable",
			"type": "function"
		},
		{
			"inputs": [
				{
					"internalType": "address",
					"name": "_pauser",
					"type": "address"
				}
			],
			"name": "grantPauserRole",
			"outputs": [],
			"stateMutability": "nonpayable",
			"type": "function"
		},
		{
			"inputs": [
				{
					"internalType": "bytes32",
					"name": "role",
					"type": "bytes32"
				},
				{
					"internalType": "address",
					"name": "account",
					"type": "address"
				}
			],
			"name": "grantRole",
			"outputs": [],
			"stateMutability": "nonpayable",
			"type": "function"
		},
		{
			"inputs": [
				{
					"internalType": "bytes32",
					"name": "role",
					"type": "bytes32"
				},
				{
					"internalType": "address",
					"name": "account",
					"type": "address"
				}
			],
			"name": "hasRole",
			"outputs": [
				{
					"internalType": "bool",
					"name": "",
					"type": "bool"
				}
			],
			"stateMutability": "view",
			"type": "function"
		},
		{
			"inputs": [
				{
					"internalType": "address",
					"name": "owner",
					"type": "address"
				},
				{
					"internalType": "address",
					"name": "operator",
					"type": "address"
				}
			],
			"name": "isApprovedForAll",
			"outputs": [
				{
					"internalType": "bool",
					"name": "",
					"type": "bool"
				}
			],
			"stateMutability": "view",
			"type": "function"
		},
		{
			"inputs": [],
			"name": "name",
			"outputs": [
				{
					"internalType": "string",
					"name": "",
					"type": "string"
				}
			],
			"stateMutability": "view",
			"type": "function"
		},
		{
			"inputs": [
				{
					"internalType": "uint256",
					"name": "tokenId",
					"type": "uint256"
				}
			],
			"name": "ownerOf",
			"outputs": [
				{
					"internalType": "address",
					"name": "",
					"type": "address"
				}
			],
			"stateMutability": "view",
			"type": "function"
		},
		{
			"inputs": [],
			"name": "pause",
			"outputs": [],
			"stateMutability": "nonpayable",
			"type": "function"
		},
		{
			"inputs": [],
			"name": "paused",
			"outputs": [
				{
					"internalType": "bool",
					"name": "",
					"type": "bool"
				}
			],
			"stateMutability": "view",
			"type": "function"
		},
		{
			"inputs": [
				{
					"internalType": "uint256",
					"name": "",
					"type": "uint256"
				}
			],
			"name": "petList",
			"outputs": [
				{
					"internalType": "string",
					"name": "name",
					"type": "string"
				},
				{
					"internalType": "string",
					"name": "breed",
					"type": "string"
				},
				{
					"internalType": "string",
					"name": "color",
					"type": "string"
				},
				{
					"internalType": "uint256",
					"name": "age",
					"type": "uint256"
				},
				{
					"internalType": "string",
					"name": "sex",
					"type": "string"
				},
				{
					"internalType": "string",
					"name": "birthdate",
					"type": "string"
				},
				{
					"internalType": "uint256",
					"name": "weight",
					"type": "uint256"
				},
				{
					"internalType": "string",
					"name": "status",
					"type": "string"
				},
				{
					"internalType": "address",
					"name": "owner",
					"type": "address"
				},
				{
					"internalType": "address",
					"name": "veterinaryAddressRef",
					"type": "address"
				}
			],
			"stateMutability": "view",
			"type": "function"
		},
		{
			"inputs": [
				{
					"internalType": "uint256",
					"name": "",
					"type": "uint256"
				},
				{
					"internalType": "uint256",
					"name": "",
					"type": "uint256"
				}
			],
			"name": "petLogs",
			"outputs": [
				{
					"internalType": "string",
					"name": "",
					"type": "string"
				}
			],
			"stateMutability": "view",
			"type": "function"
		},
		{
			"inputs": [
				{
					"internalType": "uint256",
					"name": "",
					"type": "uint256"
				}
			],
			"name": "petOwnership",
			"outputs": [
				{
					"internalType": "address",
					"name": "",
					"type": "address"
				}
			],
			"stateMutability": "view",
			"type": "function"
		},
		{
			"inputs": [
				{
					"internalType": "uint256",
					"name": "",
					"type": "uint256"
				}
			],
			"name": "petToVeterinary",
			"outputs": [
				{
					"internalType": "address",
					"name": "",
					"type": "address"
				}
			],
			"stateMutability": "view",
			"type": "function"
		},
		{
			"inputs": [
				{
					"internalType": "uint256",
					"name": "tokenId",
					"type": "uint256"
				}
			],
			"name": "removePet",
			"outputs": [],
			"stateMutability": "nonpayable",
			"type": "function"
		},
		{
			"inputs": [
				{
					"internalType": "bytes32",
					"name": "role",
					"type": "bytes32"
				},
				{
					"internalType": "address",
					"name": "callerConfirmation",
					"type": "address"
				}
			],
			"name": "renounceRole",
			"outputs": [],
			"stateMutability": "nonpayable",
			"type": "function"
		},
		{
			"inputs": [
				{
					"internalType": "address",
					"name": "_minter",
					"type": "address"
				}
			],
			"name": "revokeMinterRole",
			"outputs": [],
			"stateMutability": "nonpayable",
			"type": "function"
		},
		{
			"inputs": [
				{
					"internalType": "address",
					"name": "_pauser",
					"type": "address"
				}
			],
			"name": "revokePauserRole",
			"outputs": [],
			"stateMutability": "nonpayable",
			"type": "function"
		},
		{
			"inputs": [
				{
					"internalType": "bytes32",
					"name": "role",
					"type": "bytes32"
				},
				{
					"internalType": "address",
					"name": "account",
					"type": "address"
				}
			],
			"name": "revokeRole",
			"outputs": [],
			"stateMutability": "nonpayable",
			"type": "function"
		},
		{
			"inputs": [
				{
					"internalType": "address",
					"name": "owner",
					"type": "address"
				},
				{
					"internalType": "string",
					"name": "uri",
					"type": "string"
				},
				{
					"internalType": "string",
					"name": "name",
					"type": "string"
				},
				{
					"internalType": "string",
					"name": "breed",
					"type": "string"
				},
				{
					"internalType": "string",
					"name": "color",
					"type": "string"
				},
				{
					"internalType": "uint256",
					"name": "age",
					"type": "uint256"
				},
				{
					"internalType": "uint256",
					"name": "weight",
					"type": "uint256"
				},
				{
					"internalType": "string",
					"name": "sex",
					"type": "string"
				},
				{
					"internalType": "string",
					"name": "birthdate",
					"type": "string"
				},
				{
					"internalType": "uint256[]",
					"name": "vaccinesList",
					"type": "uint256[]"
				},
				{
					"internalType": "uint256[]",
					"name": "surgeries",
					"type": "uint256[]"
				}
			],
			"name": "safeMint",
			"outputs": [],
			"stateMutability": "nonpayable",
			"type": "function"
		},
		{
			"inputs": [
				{
					"internalType": "address",
					"name": "from",
					"type": "address"
				},
				{
					"internalType": "address",
					"name": "to",
					"type": "address"
				},
				{
					"internalType": "uint256",
					"name": "tokenId",
					"type": "uint256"
				}
			],
			"name": "safeTransferFrom",
			"outputs": [],
			"stateMutability": "nonpayable",
			"type": "function"
		},
		{
			"inputs": [
				{
					"internalType": "address",
					"name": "from",
					"type": "address"
				},
				{
					"internalType": "address",
					"name": "to",
					"type": "address"
				},
				{
					"internalType": "uint256",
					"name": "tokenId",
					"type": "uint256"
				},
				{
					"internalType": "bytes",
					"name": "data",
					"type": "bytes"
				}
			],
			"name": "safeTransferFrom",
			"outputs": [],
			"stateMutability": "nonpayable",
			"type": "function"
		},
		{
			"inputs": [
				{
					"internalType": "address",
					"name": "operator",
					"type": "address"
				},
				{
					"internalType": "bool",
					"name": "approved",
					"type": "bool"
				}
			],
			"name": "setApprovalForAll",
			"outputs": [],
			"stateMutability": "nonpayable",
			"type": "function"
		},
		{
			"inputs": [
				{
					"internalType": "uint256",
					"name": "tokenId",
					"type": "uint256"
				}
			],
			"name": "setPetInSurgery",
			"outputs": [],
			"stateMutability": "nonpayable",
			"type": "function"
		},
		{
			"inputs": [
				{
					"internalType": "bytes4",
					"name": "interfaceId",
					"type": "bytes4"
				}
			],
			"name": "supportsInterface",
			"outputs": [
				{
					"internalType": "bool",
					"name": "",
					"type": "bool"
				}
			],
			"stateMutability": "view",
			"type": "function"
		},
		{
			"inputs": [],
			"name": "symbol",
			"outputs": [
				{
					"internalType": "string",
					"name": "",
					"type": "string"
				}
			],
			"stateMutability": "view",
			"type": "function"
		},
		{
			"inputs": [
				{
					"internalType": "uint256",
					"name": "index",
					"type": "uint256"
				}
			],
			"name": "tokenByIndex",
			"outputs": [
				{
					"internalType": "uint256",
					"name": "",
					"type": "uint256"
				}
			],
			"stateMutability": "view",
			"type": "function"
		},
		{
			"inputs": [
				{
					"internalType": "address",
					"name": "owner",
					"type": "address"
				},
				{
					"internalType": "uint256",
					"name": "index",
					"type": "uint256"
				}
			],
			"name": "tokenOfOwnerByIndex",
			"outputs": [
				{
					"internalType": "uint256",
					"name": "",
					"type": "uint256"
				}
			],
			"stateMutability": "view",
			"type": "function"
		},
		{
			"inputs": [
				{
					"internalType": "uint256",
					"name": "tokenId",
					"type": "uint256"
				}
			],
			"name": "tokenURI",
			"outputs": [
				{
					"internalType": "string",
					"name": "",
					"type": "string"
				}
			],
			"stateMutability": "view",
			"type": "function"
		},
		{
			"inputs": [],
			"name": "totalSupply",
			"outputs": [
				{
					"internalType": "uint256",
					"name": "",
					"type": "uint256"
				}
			],
			"stateMutability": "view",
			"type": "function"
		},
		{
			"inputs": [
				{
					"internalType": "address",
					"name": "from",
					"type": "address"
				},
				{
					"internalType": "address",
					"name": "to",
					"type": "address"
				},
				{
					"internalType": "uint256",
					"name": "tokenId",
					"type": "uint256"
				}
			],
			"name": "transferFrom",
			"outputs": [],
			"stateMutability": "nonpayable",
			"type": "function"
		},
		{
			"inputs": [
				{
					"internalType": "uint256",
					"name": "tokenId",
					"type": "uint256"
				},
				{
					"internalType": "address",
					"name": "newOwner",
					"type": "address"
				}
			],
			"name": "transferPet",
			"outputs": [],
			"stateMutability": "nonpayable",
			"type": "function"
		},
		{
			"inputs": [
				{
					"internalType": "uint256",
					"name": "tokenId",
					"type": "uint256"
				}
			],
			"name": "unassignVeterinary",
			"outputs": [],
			"stateMutability": "nonpayable",
			"type": "function"
		},
		{
			"inputs": [],
			"name": "unpause",
			"outputs": [],
			"stateMutability": "nonpayable",
			"type": "function"
		},
		{
			"inputs": [
				{
					"internalType": "uint256",
					"name": "tokenId",
					"type": "uint256"
				},
				{
					"internalType": "string",
					"name": "newName",
					"type": "string"
				},
				{
					"internalType": "string",
					"name": "newBreed",
					"type": "string"
				},
				{
					"internalType": "string",
					"name": "newColor",
					"type": "string"
				},
				{
					"internalType": "string",
					"name": "newSex",
					"type": "string"
				},
				{
					"internalType": "string",
					"name": "newBirthDate",
					"type": "string"
				},
				{
					"internalType": "uint256",
					"name": "newAge",
					"type": "uint256"
				},
				{
					"internalType": "uint256",
					"name": "newWeight",
					"type": "uint256"
				},
				{
					"internalType": "uint256[]",
					"name": "newVaccinesList",
					"type": "uint256[]"
				},
				{
					"internalType": "uint256[]",
					"name": "newSurgeries",
					"type": "uint256[]"
				}
			],
			"name": "updatePetInfo",
			"outputs": [],
			"stateMutability": "nonpayable",
			"type": "function"
		}
	]
}